{"abi":[{"type":"function","name":"UPGRADE_INTERFACE_VERSION","inputs":[],"outputs":[{"name":"","type":"string","internalType":"string"}],"stateMutability":"view"},{"type":"function","name":"batchCollectFee","inputs":[{"name":"tokenIds","type":"uint256[]","internalType":"uint256[]"},{"name":"b","type":"tuple","internalType":"struct LPManager.BasicParams","components":[{"name":"caller","type":"address","internalType":"address"},{"name":"token0","type":"address","internalType":"address"},{"name":"token1","type":"address","internalType":"address"},{"name":"deposit0","type":"uint256","internalType":"uint256"},{"name":"deposit1","type":"uint256","internalType":"uint256"}]}],"outputs":[{"name":"fee0","type":"uint256","internalType":"uint256"},{"name":"fee1","type":"uint256","internalType":"uint256"}],"stateMutability":"nonpayable"},{"type":"function","name":"batchDecreaseLP","inputs":[{"name":"params","type":"tuple[]","internalType":"struct LPManager.DecreParams[]","components":[{"name":"tokenId","type":"uint256","internalType":"uint256"},{"name":"liquidityToRemove","type":"uint128","internalType":"uint128"},{"name":"amount0Min","type":"uint256","internalType":"uint256"},{"name":"amount1Min","type":"uint256","internalType":"uint256"}]},{"name":"b","type":"tuple","internalType":"struct LPManager.BasicParams","components":[{"name":"caller","type":"address","internalType":"address"},{"name":"token0","type":"address","internalType":"address"},{"name":"token1","type":"address","internalType":"address"},{"name":"deposit0","type":"uint256","internalType":"uint256"},{"name":"deposit1","type":"uint256","internalType":"uint256"}]}],"outputs":[{"name":"totalRefund0","type":"uint256","internalType":"uint256"},{"name":"totalRefund1","type":"uint256","internalType":"uint256"}],"stateMutability":"nonpayable"},{"type":"function","name":"batchIncreaseLP","inputs":[{"name":"params","type":"tuple[]","internalType":"struct LPManager.IncreParams[]","components":[{"name":"tokenId","type":"uint256","internalType":"uint256"},{"name":"amountAdd0","type":"uint256","internalType":"uint256"},{"name":"amountAdd1","type":"uint256","internalType":"uint256"},{"name":"amount0Min","type":"uint256","internalType":"uint256"},{"name":"amount1Min","type":"uint256","internalType":"uint256"}]},{"name":"b","type":"tuple","internalType":"struct LPManager.BasicParams","components":[{"name":"caller","type":"address","internalType":"address"},{"name":"token0","type":"address","internalType":"address"},{"name":"token1","type":"address","internalType":"address"},{"name":"deposit0","type":"uint256","internalType":"uint256"},{"name":"deposit1","type":"uint256","internalType":"uint256"}]}],"outputs":[{"name":"allLiquidity","type":"uint128[]","internalType":"uint128[]"}],"stateMutability":"nonpayable"},{"type":"function","name":"batchMintLP","inputs":[{"name":"params","type":"tuple[]","internalType":"struct LPManager.MintParams[]","components":[{"name":"token0","type":"address","internalType":"address"},{"name":"token1","type":"address","internalType":"address"},{"name":"fee","type":"uint24","internalType":"uint24"},{"name":"tickLower","type":"int24","internalType":"int24"},{"name":"tickUpper","type":"int24","internalType":"int24"},{"name":"token0Amount","type":"uint256","internalType":"uint256"},{"name":"token1Amount","type":"uint256","internalType":"uint256"},{"name":"amount0Min","type":"uint256","internalType":"uint256"},{"name":"amount1Min","type":"uint256","internalType":"uint256"},{"name":"recipient","type":"address","internalType":"address"}]},{"name":"b","type":"tuple","internalType":"struct LPManager.BasicParams","components":[{"name":"caller","type":"address","internalType":"address"},{"name":"token0","type":"address","internalType":"address"},{"name":"token1","type":"address","internalType":"address"},{"name":"deposit0","type":"uint256","internalType":"uint256"},{"name":"deposit1","type":"uint256","internalType":"uint256"}]}],"outputs":[{"name":"allTokenIds","type":"uint256[]","internalType":"uint256[]"},{"name":"allLiquidity","type":"uint128[]","internalType":"uint128[]"}],"stateMutability":"nonpayable"},{"type":"function","name":"initialize","inputs":[{"name":"inpm_","type":"address","internalType":"contract INonfungiblePositionManager"},{"name":"owner_","type":"address","internalType":"address"},{"name":"userFeePerc_","type":"uint256","internalType":"uint256"}],"outputs":[],"stateMutability":"nonpayable"},{"type":"function","name":"onERC721Received","inputs":[{"name":"operator","type":"address","internalType":"address"},{"name":"","type":"address","internalType":"address"},{"name":"tokenId","type":"uint256","internalType":"uint256"},{"name":"","type":"bytes","internalType":"bytes"}],"outputs":[{"name":"","type":"bytes4","internalType":"bytes4"}],"stateMutability":"nonpayable"},{"type":"function","name":"owner","inputs":[],"outputs":[{"name":"","type":"address","internalType":"address"}],"stateMutability":"view"},{"type":"function","name":"proxiableUUID","inputs":[],"outputs":[{"name":"","type":"bytes32","internalType":"bytes32"}],"stateMutability":"view"},{"type":"function","name":"renounceOwnership","inputs":[],"outputs":[],"stateMutability":"nonpayable"},{"type":"function","name":"transferOwnership","inputs":[{"name":"newOwner","type":"address","internalType":"address"}],"outputs":[],"stateMutability":"nonpayable"},{"type":"function","name":"updateUserFeePerc","inputs":[{"name":"newUserFeePerc","type":"uint256","internalType":"uint256"}],"outputs":[],"stateMutability":"nonpayable"},{"type":"function","name":"upgradeToAndCall","inputs":[{"name":"newImplementation","type":"address","internalType":"address"},{"name":"data","type":"bytes","internalType":"bytes"}],"outputs":[],"stateMutability":"payable"},{"type":"function","name":"userFeePerc","inputs":[],"outputs":[{"name":"","type":"uint256","internalType":"uint256"}],"stateMutability":"view"},{"type":"event","name":"Initialized","inputs":[{"name":"version","type":"uint64","indexed":false,"internalType":"uint64"}],"anonymous":false},{"type":"event","name":"OwnershipTransferred","inputs":[{"name":"previousOwner","type":"address","indexed":true,"internalType":"address"},{"name":"newOwner","type":"address","indexed":true,"internalType":"address"}],"anonymous":false},{"type":"event","name":"Upgraded","inputs":[{"name":"implementation","type":"address","indexed":true,"internalType":"address"}],"anonymous":false},{"type":"error","name":"AddressEmptyCode","inputs":[{"name":"target","type":"address","internalType":"address"}]},{"type":"error","name":"ERC1967InvalidImplementation","inputs":[{"name":"implementation","type":"address","internalType":"address"}]},{"type":"error","name":"ERC1967NonPayable","inputs":[]},{"type":"error","name":"FailedCall","inputs":[]},{"type":"error","name":"InvalidInitialization","inputs":[]},{"type":"error","name":"NotInitializing","inputs":[]},{"type":"error","name":"OwnableInvalidOwner","inputs":[{"name":"owner","type":"address","internalType":"address"}]},{"type":"error","name":"OwnableUnauthorizedAccount","inputs":[{"name":"account","type":"address","internalType":"address"}]},{"type":"error","name":"UUPSUnauthorizedCallContext","inputs":[]},{"type":"error","name":"UUPSUnsupportedProxiableUUID","inputs":[{"name":"slot","type":"bytes32","internalType":"bytes32"}]}],"bytecode":{"object":"0x60a06040523060805234801561001457600080fd5b5060805161287a61003e6000396000818161112001528181611149015261128f015261287a6000f3fe6080604052600436106100dd5760003560e01c80638da5cb5b1161007f578063b23edf5811610059578063b23edf58146102ae578063b866f2a8146102c4578063f2fde38b146102e4578063f76cf6041461030457600080fd5b80638da5cb5b146101fb5780639181e23614610242578063ad3cb1cc1461027057600080fd5b8063481ffa9d116100bb578063481ffa9d146101835780634f1ef286146101b057806352d1902d146101c3578063715018a6146101e657600080fd5b8063150b7a02146100e25780631794bb3c1461012c57806336b22b5b1461014e575b600080fd5b3480156100ee57600080fd5b5061010e6100fd366004611c7e565b630a85bd0160e11b95945050505050565b6040516001600160e01b031990911681526020015b60405180910390f35b34801561013857600080fd5b5061014c610147366004611d1c565b610324565b005b34801561015a57600080fd5b5061016e610169366004611e9e565b6104a9565b60408051928352602083019190915201610123565b34801561018f57600080fd5b506101a361019e366004611f46565b6105d7565b6040516101239190612063565b61014c6101be366004612076565b610794565b3480156101cf57600080fd5b506101d86107b3565b604051908152602001610123565b3480156101f257600080fd5b5061014c6107d0565b34801561020757600080fd5b507f9016d09d72d40fdae2fd8ceac6b6234c7706214fd39c1cd1e609a0528c199300546040516001600160a01b039091168152602001610123565b34801561024e57600080fd5b5061026261025d366004612153565b6107e4565b604051610123929190612296565b34801561027c57600080fd5b506102a1604051806040016040528060058152602001640352e302e360dc1b81525081565b6040516101239190612312565b3480156102ba57600080fd5b506101d860015481565b3480156102d057600080fd5b5061016e6102df36600461235a565b6109b2565b3480156102f057600080fd5b5061014c6102ff366004612423565b610b14565b34801561031057600080fd5b5061014c61031f366004612440565b610b52565b7ff0c57e16840df040f15088dc2f81fe391c3923bec73e23a9662efc9c229c6a008054600160401b810460ff1615906001600160401b03166000811580156103695750825b90506000826001600160401b031660011480156103855750303b155b905081158015610393575080155b156103b15760405163f92ee8a960e01b815260040160405180910390fd5b845467ffffffffffffffff1916600117855583156103db57845460ff60401b1916600160401b1785555b60648611156104285760405162461bcd60e51b8152602060048201526014602482015273696e76616c69642075736572466565506572635f60601b60448201526064015b60405180910390fd5b61043187610ba7565b610439610bb8565b600080546001600160a01b0319166001600160a01b038a161790556001869055831561049f57845460ff60401b19168555604051600181527fc7f505b2f371ae2175ee4913f4499e1f2633a7b5936321eed1cdaeb6115181d29060200160405180910390a15b5050505050505050565b60008060005b84518160ff161015610578576104e58460000151868360ff16815181106104d8576104d8612459565b6020026020010151610bc0565b60008061051c878460ff168151811061050057610500612459565b60209081029190910101516000546001600160a01b0316610de9565b909250905061052b8286612485565b94506105378185612485565b93506105638660000151888560ff168151811061055657610556612459565b6020026020010151610e8b565b5050808061057090612498565b9150506104af565b50600060646001548461058b91906124b7565b61059591906124ce565b905060006064600154846105a991906124b7565b6105b391906124ce565b90506105ce8560000151866020015187604001518585610f97565b50509250929050565b60606105fa82600001518360200151846040015185606001518660800151610fc0565b60008084516001600160401b0381111561061657610616611d5d565b60405190808252806020026020018201604052801561063f578160200160208202803683370190505b50925060005b85518160ff1610156107485761067f8560000151878360ff168151811061066e5761066e612459565b602002602001015160000151610bc0565b60008060006106b8898560ff168151811061069c5761069c612459565b60209081029190910101516000546001600160a01b0316611014565b92509250925082878560ff16815181106106d4576106d4612459565b6001600160801b03909216602092830291909101909101526106f68287612485565b95506107028186612485565b945061073288600001518a8660ff168151811061072157610721612459565b602002602001015160000151610e8b565b505050808061074090612498565b915050610645565b50600082856060015161075b91906124f0565b9050600082866080015161076f91906124f0565b905061078a8660000151876020015188604001518585610f97565b5050505092915050565b61079c611115565b6107a5826111ba565b6107af82826111c2565b5050565b60006107bd611284565b5060008051602061282583398151915290565b6107d86112cd565b6107e26000611328565b565b60608061080883600001518460200151856040015186606001518760800151610fc0565b60008085516001600160401b0381111561082457610824611d5d565b60405190808252806020026020018201604052801561084d578160200160208202803683370190505b50935085516001600160401b0381111561086957610869611d5d565b604051908082528060200260200182016040528015610892578160200160208202803683370190505b50925060005b86518160ff161015610965576000806000806108de8b8660ff16815181106108c2576108c2612459565b60209081029190910101516000546001600160a01b0316611399565b935093509350935083898660ff16815181106108fc576108fc612459565b60200260200101818152505082888660ff168151811061091e5761091e612459565b6001600160801b03909216602092830291909101909101526109408288612485565b965061094c8187612485565b955050505050808061095d90612498565b915050610898565b50600082866060015161097891906124f0565b9050600082876080015161098c91906124f0565b90506109a78760000151886020015189604001518585610f97565b505050509250929050565b60008060005b84518160ff161015610af3576109dd33868360ff168151811061066e5761066e612459565b600080610a15878460ff16815181106109f8576109f8612459565b6020908102919091010151516000546001600160a01b0316610de9565b915091506000606460015484610a2b91906124b7565b610a3591906124ce565b90506000606460015484610a4991906124b7565b610a5391906124ce565b9050610a5f8288612485565b9650610a6b8187612485565b9550600080610aa48b8860ff1681518110610a8857610a88612459565b60209081029190910101516000546001600160a01b03166114cb565b9092509050610ab3828a612485565b9850610abf8189612485565b9750610ada338c8960ff168151811061072157610721612459565b5050505050508080610aeb90612498565b9150506109b8565b50610b0d8360000151846020015185604001518585610f97565b9250929050565b610b1c6112cd565b6001600160a01b038116610b4657604051631e4fbdf760e01b81526000600482015260240161041f565b610b4f81611328565b50565b610b5a6112cd565b6064811115610ba25760405162461bcd60e51b8152602060048201526014602482015273696e76616c69642075736572466565506572635f60601b604482015260640161041f565b600155565b610baf61173a565b610b4f81611783565b6107e261173a565b6000546040516331a9108f60e11b81526004810183905230916001600160a01b031690636352211e90602401602060405180830381865afa158015610c09573d6000803e3d6000fd5b505050506040513d601f19601f82011682018060405250810190610c2d919061250e565b6001600160a01b0316146107af5760005460405163020604bf60e21b81526004810183905230916001600160a01b03169063081812fc90602401602060405180830381865afa158015610c84573d6000803e3d6000fd5b505050506040513d601f19601f82011682018060405250810190610ca8919061250e565b6001600160a01b03161480610d2c575060005460405163e985e9c560e01b81526001600160a01b0384811660048301523060248301529091169063e985e9c590604401602060405180830381865afa158015610d08573d6000803e3d6000fd5b505050506040513d601f19601f82011682018060405250810190610d2c919061252b565b610d785760405162461bcd60e51b815260206004820152601d60248201527f4e4654204e4f5420617070726f76656420666f72207472616e73666572000000604482015260640161041f565b600054604051632142170760e11b81526001600160a01b03848116600483015230602483015260448201849052909116906342842e0e906064015b600060405180830381600087803b158015610dcd57600080fd5b505af1158015610de1573d6000803e3d6000fd5b505050505050565b604080516080810182528381523060208201526001600160801b038183018190526060820152905163fc6f786560e01b815260009182916001600160a01b0385169163fc6f786591610e3e919060040161254d565b60408051808303816000875af1158015610e5c573d6000803e3d6000fd5b505050506040513d601f19601f82011682018060405250810190610e809190612590565b909590945092505050565b6000546040516331a9108f60e11b81526004810183905230916001600160a01b031690636352211e90602401602060405180830381865afa158015610ed4573d6000803e3d6000fd5b505050506040513d601f19601f82011682018060405250810190610ef8919061250e565b6001600160a01b031614610f585760405162461bcd60e51b815260206004820152602160248201527f4e4654206f776e6572206973206e6f742063757272656e7420636f6e747261636044820152601d60fa1b606482015260840161041f565b600054604051632142170760e11b81523060048201526001600160a01b03848116602483015260448201849052909116906342842e0e90606401610db3565b8115610fa857610fa884868461178b565b8015610fb957610fb983868361178b565b5050505050565b8115610fea57610fd284863085611884565b600054610fea9085906001600160a01b031684611986565b8015610fb957610ffc83863084611884565b600054610fb99084906001600160a01b031683611986565b6000806000806040518060c0016040528087600001518152602001876020015181526020018760400151815260200187606001518152602001876080015181526020014260786110649190612485565b90526040805163219f5d1760e01b81528251600482015260208301516024820152908201516044820152606082015160648201526080820151608482015260a082015160a48201529091506001600160a01b0386169063219f5d179060c4016060604051808303816000875af11580156110e2573d6000803e3d6000fd5b505050506040513d601f19601f8201168201806040525081019061110691906125bf565b91989097509095509350505050565b306001600160a01b037f000000000000000000000000000000000000000000000000000000000000000016148061119c57507f00000000000000000000000000000000000000000000000000000000000000006001600160a01b0316611190600080516020612825833981519152546001600160a01b031690565b6001600160a01b031614155b156107e25760405163703e46dd60e11b815260040160405180910390fd5b610b4f6112cd565b816001600160a01b03166352d1902d6040518163ffffffff1660e01b8152600401602060405180830381865afa92505050801561121c575060408051601f3d908101601f19168201909252611219918101906125f6565b60015b61124457604051634c9c8ce360e01b81526001600160a01b038316600482015260240161041f565b600080516020612825833981519152811461127557604051632a87526960e21b81526004810182905260240161041f565b61127f8383611a7f565b505050565b306001600160a01b037f000000000000000000000000000000000000000000000000000000000000000016146107e25760405163703e46dd60e11b815260040160405180910390fd5b336112ff7f9016d09d72d40fdae2fd8ceac6b6234c7706214fd39c1cd1e609a0528c199300546001600160a01b031690565b6001600160a01b0316146107e25760405163118cdaa760e01b815233600482015260240161041f565b7f9016d09d72d40fdae2fd8ceac6b6234c7706214fd39c1cd1e609a0528c19930080546001600160a01b031981166001600160a01b03848116918217845560405192169182907f8be0079c531659141344cd1fd0a4f28419497f9722a3daafe3b4186f6b6457e090600090a3505050565b600080600080600060405180610160016040528088600001516001600160a01b0316815260200188602001516001600160a01b03168152602001886040015162ffffff168152602001886060015160020b8152602001886080015160020b81526020018860a0015181526020018860c0015181526020018860e00151815260200188610100015181526020018861012001516001600160a01b031681526020014260786114469190612485565b9052604051634418b22b60e11b81529091506001600160a01b0387169063883164569061147790849060040161260f565b6080604051808303816000875af1158015611496573d6000803e3d6000fd5b505050506040513d601f19601f820116820180604052508101906114ba91906126d3565b929a91995097509095509350505050565b815160405163133f757160e31b8152600091829182916001600160a01b038616916399fbab88916115029160040190815260200190565b61018060405180830381865afa158015611520573d6000803e3d6000fd5b505050506040513d601f19601f820116820180604052508101906115449190612727565b50505050975050505050505050806001600160801b031685602001516001600160801b031611156115b75760405162461bcd60e51b815260206004820152601b60248201527f4578636565647320617661696c61626c65206c69717569646974790000000000604482015260640161041f565b60006040518060a001604052808760000151815260200187602001516001600160801b0316815260200187604001518152602001876060015181526020014260786116029190612485565b905260408051630624e65f60e11b81528251600482015260208301516001600160801b0316602482015290820151604482015260608201516064820152608082015160848201529091506001600160a01b03861690630c49ccbe9060a40160408051808303816000875af115801561167e573d6000803e3d6000fd5b505050506040513d601f19601f820116820180604052508101906116a29190612590565b60408051608081018252895181523060208201526001600160801b038183018190526060820152905163fc6f786560e01b81529296509094506001600160a01b0387169163fc6f7865916116f89160040161254d565b60408051808303816000875af1158015611716573d6000803e3d6000fd5b505050506040513d601f19601f820116820180604052508101906109a79190612590565b7ff0c57e16840df040f15088dc2f81fe391c3923bec73e23a9662efc9c229c6a0054600160401b900460ff166107e257604051631afcd79f60e31b815260040160405180910390fd5b610b1c61173a565b604080516001600160a01b038481166024830152604480830185905283518084039091018152606490920183526020820180516001600160e01b031663a9059cbb60e01b17905291516000928392908716916117e79190612808565b6000604051808303816000865af19150503d8060008114611824576040519150601f19603f3d011682016040523d82523d6000602084013e611829565b606091505b5091509150818015611853575080511580611853575080806020019051810190611853919061252b565b610fb95760405162461bcd60e51b815260206004820152600260248201526114d560f21b604482015260640161041f565b604080516001600160a01b0385811660248301528481166044830152606480830185905283518084039091018152608490920183526020820180516001600160e01b03166323b872dd60e01b17905291516000928392908816916118e89190612808565b6000604051808303816000865af19150503d8060008114611925576040519150601f19603f3d011682016040523d82523d6000602084013e61192a565b606091505b5091509150818015611954575080511580611954575080806020019051810190611954919061252b565b610de15760405162461bcd60e51b815260206004820152600360248201526229aa2360e91b604482015260640161041f565b604080516001600160a01b038481166024830152604480830185905283518084039091018152606490920183526020820180516001600160e01b031663095ea7b360e01b17905291516000928392908716916119e29190612808565b6000604051808303816000865af19150503d8060008114611a1f576040519150601f19603f3d011682016040523d82523d6000602084013e611a24565b606091505b5091509150818015611a4e575080511580611a4e575080806020019051810190611a4e919061252b565b610fb95760405162461bcd60e51b8152602060048201526002602482015261534160f01b604482015260640161041f565b611a8882611ad5565b6040516001600160a01b038316907fbc7cd75a20ee27fd9adebab32041f755214dbc6bffa90cc0225b39da2e5c2d3b90600090a2805115611acd5761127f8282611b3a565b6107af611bb2565b806001600160a01b03163b600003611b0b57604051634c9c8ce360e01b81526001600160a01b038216600482015260240161041f565b60008051602061282583398151915280546001600160a01b0319166001600160a01b0392909216919091179055565b6060600080846001600160a01b031684604051611b579190612808565b600060405180830381855af49150503d8060008114611b92576040519150601f19603f3d011682016040523d82523d6000602084013e611b97565b606091505b5091509150611ba7858383611bd1565b925050505b92915050565b34156107e25760405163b398979f60e01b815260040160405180910390fd5b606082611be657611be182611c30565b611c29565b8151158015611bfd57506001600160a01b0384163b155b15611c2657604051639996b31560e01b81526001600160a01b038516600482015260240161041f565b50805b9392505050565b805115611c405780518082602001fd5b60405163d6bda27560e01b815260040160405180910390fd5b6001600160a01b0381168114610b4f57600080fd5b8035611c7981611c59565b919050565b600080600080600060808688031215611c9657600080fd5b8535611ca181611c59565b94506020860135611cb181611c59565b93506040860135925060608601356001600160401b0380821115611cd457600080fd5b818801915088601f830112611ce857600080fd5b813581811115611cf757600080fd5b896020828501011115611d0957600080fd5b9699959850939650602001949392505050565b600080600060608486031215611d3157600080fd5b8335611d3c81611c59565b92506020840135611d4c81611c59565b929592945050506040919091013590565b634e487b7160e01b600052604160045260246000fd5b60405160a081016001600160401b0381118282101715611d9557611d95611d5d565b60405290565b60405161014081016001600160401b0381118282101715611d9557611d95611d5d565b604051608081016001600160401b0381118282101715611d9557611d95611d5d565b604051601f8201601f191681016001600160401b0381118282101715611e0857611e08611d5d565b604052919050565b60006001600160401b03821115611e2957611e29611d5d565b5060051b60200190565b600060a08284031215611e4557600080fd5b611e4d611d73565b90508135611e5a81611c59565b81526020820135611e6a81611c59565b60208201526040820135611e7d81611c59565b80604083015250606082013560608201526080820135608082015292915050565b60008060c08385031215611eb157600080fd5b82356001600160401b03811115611ec757600080fd5b8301601f81018513611ed857600080fd5b80356020611eed611ee883611e10565b611de0565b82815260059290921b83018101918181019088841115611f0c57600080fd5b938201935b83851015611f2a57843582529382019390820190611f11565b9550611f3a905087878301611e33565b93505050509250929050565b60008060c08385031215611f5957600080fd5b82356001600160401b03811115611f6f57600080fd5b8301601f81018513611f8057600080fd5b80356020611f90611ee883611e10565b82815260a09283028401820192828201919089851115611faf57600080fd5b948301945b8486101561200d5780868b031215611fcc5760008081fd5b611fd4611d73565b86358152848701358582015260408088013590820152606080880135908201526080808801359082015283529485019491830191611fb4565b509550611f3a905087878301611e33565b60008151808452602080850194506020840160005b838110156120585781516001600160801b031687529582019590820190600101612033565b509495945050505050565b602081526000611c29602083018461201e565b6000806040838503121561208957600080fd5b823561209481611c59565b91506020838101356001600160401b03808211156120b157600080fd5b818601915086601f8301126120c557600080fd5b8135818111156120d7576120d7611d5d565b6120e9601f8201601f19168501611de0565b915080825287848285010111156120ff57600080fd5b80848401858401376000848284010152508093505050509250929050565b62ffffff81168114610b4f57600080fd5b8035611c798161211d565b8060020b8114610b4f57600080fd5b8035611c7981612139565b60008060c080848603121561216757600080fd5b83356001600160401b0381111561217d57600080fd5b8401601f8101861361218e57600080fd5b8035602061219e611ee883611e10565b828152610140928302840182019282820191908a8511156121be57600080fd5b948301945b848610156122785780868c0312156121db5760008081fd5b6121e3611d9b565b6121ec87611c6e565b81526121f9858801611c6e565b85820152604061220a81890161212e565b90820152606061221b888201612148565b90820152608061222c888201612148565b9082015260a08781013590820152878701358882015260e080880135908201526101008088013590820152610120612265818901611c6e565b90820152835294850194918301916121c3565b509650612289905088888301611e33565b9450505050509250929050565b604080825283519082018190526000906020906060840190828701845b828110156122cf578151845292840192908401906001016122b3565b50505083810360208501526122e4818661201e565b9695505050505050565b60005b838110156123095781810151838201526020016122f1565b50506000910152565b60208152600082518060208401526123318160408501602087016122ee565b601f01601f19169190910160400192915050565b6001600160801b0381168114610b4f57600080fd5b60008060c0838503121561236d57600080fd5b82356001600160401b0381111561238357600080fd5b8301601f8101851361239457600080fd5b803560206123a4611ee883611e10565b82815260079290921b830181019181810190888411156123c357600080fd5b938201935b83851015611f2a576080858a0312156123e15760008081fd5b6123e9611dbe565b85358152838601356123fa81612345565b8185015260408681013590820152606080870135908201528252608090940193908201906123c8565b60006020828403121561243557600080fd5b8135611c2981611c59565b60006020828403121561245257600080fd5b5035919050565b634e487b7160e01b600052603260045260246000fd5b634e487b7160e01b600052601160045260246000fd5b80820180821115611bac57611bac61246f565b600060ff821660ff81036124ae576124ae61246f565b60010192915050565b8082028115828204841417611bac57611bac61246f565b6000826124eb57634e487b7160e01b600052601260045260246000fd5b500490565b81810381811115611bac57611bac61246f565b8051611c7981611c59565b60006020828403121561252057600080fd5b8151611c2981611c59565b60006020828403121561253d57600080fd5b81518015158114611c2957600080fd5b815181526020808301516001600160a01b0316908201526040808301516001600160801b0390811691830191909152606092830151169181019190915260800190565b600080604083850312156125a357600080fd5b505080516020909101519092909150565b8051611c7981612345565b6000806000606084860312156125d457600080fd5b83516125df81612345565b602085015160409095015190969495509392505050565b60006020828403121561260857600080fd5b5051919050565b81516001600160a01b031681526101608101602083015161263b60208401826001600160a01b03169052565b506040830151612652604084018262ffffff169052565b506060830151612667606084018260020b9052565b50608083015161267c608084018260020b9052565b5060a083015160a083015260c083015160c083015260e083015160e0830152610100808401518184015250610120808401516126c2828501826001600160a01b03169052565b505061014092830151919092015290565b600080600080608085870312156126e957600080fd5b8451935060208501516126fb81612345565b6040860151606090960151949790965092505050565b8051611c798161211d565b8051611c7981612139565b6000806000806000806000806000806000806101808d8f03121561274a57600080fd5b8c516bffffffffffffffffffffffff8116811461276657600080fd5b9b5061277460208e01612503565b9a5061278260408e01612503565b995061279060608e01612503565b985061279e60808e01612711565b97506127ac60a08e0161271c565b96506127ba60c08e0161271c565b95506127c860e08e016125b4565b94506101008d015193506101208d015192506127e76101408e016125b4565b91506127f66101608e016125b4565b90509295989b509295989b509295989b565b6000825161281a8184602087016122ee565b919091019291505056fe360894a13ba1a3210667c828492db98dca3e2076cc3735a920a3ca505d382bbca26469706673582212207d5a80943362614c1ba39d33b62f674d7d397790d73e550fa3e0fcf745b3509464736f6c63430008180033","linkReferences":{}},"methodIdentifiers":{"UPGRADE_INTERFACE_VERSION()":"ad3cb1cc","batchCollectFee(uint256[],(address,address,address,uint256,uint256))":"36b22b5b","batchDecreaseLP((uint256,uint128,uint256,uint256)[],(address,address,address,uint256,uint256))":"b866f2a8","batchIncreaseLP((uint256,uint256,uint256,uint256,uint256)[],(address,address,address,uint256,uint256))":"481ffa9d","batchMintLP((address,address,uint24,int24,int24,uint256,uint256,uint256,uint256,address)[],(address,address,address,uint256,uint256))":"9181e236","initialize(address,address,uint256)":"1794bb3c","onERC721Received(address,address,uint256,bytes)":"150b7a02","owner()":"8da5cb5b","proxiableUUID()":"52d1902d","renounceOwnership()":"715018a6","transferOwnership(address)":"f2fde38b","updateUserFeePerc(uint256)":"f76cf604","upgradeToAndCall(address,bytes)":"4f1ef286","userFeePerc()":"b23edf58"},"id":82}