{"abi":[{"type":"function","name":"BLAST","inputs":[],"outputs":[{"name":"","type":"address","internalType":"contract IBlast"}],"stateMutability":"view"},{"type":"function","name":"UPGRADE_INTERFACE_VERSION","inputs":[],"outputs":[{"name":"","type":"string","internalType":"string"}],"stateMutability":"view"},{"type":"function","name":"USDS_DECIMAL","inputs":[],"outputs":[{"name":"","type":"uint8","internalType":"uint8"}],"stateMutability":"view"},{"type":"function","name":"addLPToken","inputs":[{"name":"lpToken","type":"address","internalType":"address"},{"name":"factory","type":"address","internalType":"address"}],"outputs":[],"stateMutability":"nonpayable"},{"type":"function","name":"addPool","inputs":[{"name":"lpToken","type":"address","internalType":"address"},{"name":"pool","type":"address","internalType":"address"},{"name":"info","type":"tuple","internalType":"struct DataType.PoolInfo","components":[{"name":"RC","type":"uint8","internalType":"enum DataType.RiskClass"},{"name":"Enabled","type":"bool","internalType":"bool"}]}],"outputs":[],"stateMutability":"nonpayable"},{"type":"function","name":"adminCollectFee","inputs":[{"name":"token","type":"address","internalType":"address"},{"name":"to","type":"address","internalType":"address"}],"outputs":[],"stateMutability":"nonpayable"},{"type":"function","name":"claimAllGas","inputs":[],"outputs":[],"stateMutability":"nonpayable"},{"type":"function","name":"claimAllYield","inputs":[],"outputs":[],"stateMutability":"nonpayable"},{"type":"function","name":"claimFee","inputs":[{"name":"lpToken","type":"address","internalType":"address"},{"name":"tokenId","type":"uint256","internalType":"uint256"}],"outputs":[],"stateMutability":"nonpayable"},{"type":"function","name":"factories","inputs":[{"name":"lpToken","type":"address","internalType":"address"}],"outputs":[{"name":"factory","type":"address","internalType":"address"}],"stateMutability":"view"},{"type":"function","name":"initialize","inputs":[{"name":"owner_","type":"address","internalType":"address"},{"name":"usds_address_","type":"address","internalType":"address"},{"name":"usds_decimal_","type":"uint8","internalType":"uint8"},{"name":"priceFeed_","type":"address","internalType":"address"},{"name":"lpManager_","type":"address","internalType":"address"},{"name":"peripehry_","type":"address","internalType":"address"}],"outputs":[],"stateMutability":"nonpayable"},{"type":"function","name":"lend","inputs":[{"name":"lpToken","type":"address","internalType":"address"},{"name":"tokenId","type":"uint256","internalType":"uint256"},{"name":"loanUSDSAmount","type":"uint256","internalType":"uint256"}],"outputs":[],"stateMutability":"nonpayable"},{"type":"function","name":"lendings","inputs":[{"name":"positionId","type":"bytes32","internalType":"bytes32"}],"outputs":[{"name":"lendAmount","type":"uint256","internalType":"uint256"}],"stateMutability":"view"},{"type":"function","name":"liquidationCall","inputs":[{"name":"p","type":"tuple","internalType":"struct DataType.LiquidationParam","components":[{"name":"User","type":"address","internalType":"address"},{"name":"LpToken","type":"address","internalType":"address"},{"name":"TokenId","type":"uint256","internalType":"uint256"},{"name":"UsdsDebtToCover","type":"uint256","internalType":"uint256"}]}],"outputs":[],"stateMutability":"nonpayable"},{"type":"function","name":"lpManager","inputs":[],"outputs":[{"name":"","type":"address","internalType":"contract ILPManager"}],"stateMutability":"view"},{"type":"function","name":"owner","inputs":[],"outputs":[{"name":"","type":"address","internalType":"address"}],"stateMutability":"view"},{"type":"function","name":"periphery","inputs":[],"outputs":[{"name":"","type":"address","internalType":"contract IPeriphery"}],"stateMutability":"view"},{"type":"function","name":"poolInfos","inputs":[{"name":"pool","type":"address","internalType":"address"}],"outputs":[{"name":"RC","type":"uint8","internalType":"enum DataType.RiskClass"},{"name":"Enabled","type":"bool","internalType":"bool"}],"stateMutability":"view"},{"type":"function","name":"previewHealthFactor","inputs":[{"name":"user","type":"address","internalType":"address"},{"name":"lpToken","type":"address","internalType":"address"},{"name":"tokenId","type":"uint256","internalType":"uint256"}],"outputs":[{"name":"usdsDebtTotal","type":"uint256","internalType":"uint256"},{"name":"lpValue","type":"uint256","internalType":"uint256"},{"name":"lqdtBonus","type":"uint16","internalType":"uint16"},{"name":"healthFactor","type":"uint256","internalType":"uint256"}],"stateMutability":"view"},{"type":"function","name":"previewLPUSDValue","inputs":[{"name":"lpToken","type":"address","internalType":"address"},{"name":"tokenId","type":"uint256","internalType":"uint256"}],"outputs":[{"name":"","type":"uint256","internalType":"uint256"}],"stateMutability":"view"},{"type":"function","name":"previewMaxLoanUSDS","inputs":[{"name":"user","type":"address","internalType":"address"},{"name":"lpToken","type":"address","internalType":"address"},{"name":"tokenId","type":"uint256","internalType":"uint256"},{"name":"isInitialSupply","type":"bool","internalType":"bool"}],"outputs":[{"name":"lpUSDSAmount","type":"uint256","internalType":"uint256"}],"stateMutability":"view"},{"type":"function","name":"previewMaxLqdtUSDSAmount","inputs":[{"name":"user","type":"address","internalType":"address"},{"name":"lpToken","type":"address","internalType":"address"},{"name":"tokenId","type":"uint256","internalType":"uint256"}],"outputs":[{"name":"","type":"uint256","internalType":"uint256"}],"stateMutability":"view"},{"type":"function","name":"previewPositionId","inputs":[{"name":"user","type":"address","internalType":"address"},{"name":"lpToken","type":"address","internalType":"address"},{"name":"tokenId","type":"uint256","internalType":"uint256"}],"outputs":[{"name":"","type":"bytes32","internalType":"bytes32"}],"stateMutability":"pure"},{"type":"function","name":"previewUserLending","inputs":[{"name":"user","type":"address","internalType":"address"},{"name":"lpToken","type":"address","internalType":"address"},{"name":"tokenId","type":"uint256","internalType":"uint256"}],"outputs":[{"name":"","type":"uint256","internalType":"uint256"}],"stateMutability":"view"},{"type":"function","name":"priceFeed","inputs":[],"outputs":[{"name":"","type":"address","internalType":"contract IPriceFeed"}],"stateMutability":"view"},{"type":"function","name":"protFee","inputs":[{"name":"token","type":"address","internalType":"address"}],"outputs":[{"name":"fee","type":"uint256","internalType":"uint256"}],"stateMutability":"view"},{"type":"function","name":"protFeeRate","inputs":[],"outputs":[{"name":"","type":"uint16","internalType":"uint16"}],"stateMutability":"view"},{"type":"function","name":"proxiableUUID","inputs":[],"outputs":[{"name":"","type":"bytes32","internalType":"bytes32"}],"stateMutability":"view"},{"type":"function","name":"rateBase","inputs":[],"outputs":[{"name":"","type":"uint16","internalType":"uint16"}],"stateMutability":"view"},{"type":"function","name":"rates","inputs":[{"name":"rc","type":"uint8","internalType":"enum DataType.RiskClass"}],"outputs":[{"name":"LendingRate","type":"uint16","internalType":"uint16"},{"name":"LiquidationThldRate","type":"uint16","internalType":"uint16"},{"name":"LiquidationBonusRate","type":"uint16","internalType":"uint16"}],"stateMutability":"view"},{"type":"function","name":"removeLPToken","inputs":[{"name":"lpToken","type":"address","internalType":"address"}],"outputs":[],"stateMutability":"nonpayable"},{"type":"function","name":"removePool","inputs":[{"name":"lpToken","type":"address","internalType":"address"},{"name":"pool","type":"address","internalType":"address"}],"outputs":[],"stateMutability":"nonpayable"},{"type":"function","name":"renounceOwnership","inputs":[],"outputs":[],"stateMutability":"nonpayable"},{"type":"function","name":"repay","inputs":[{"name":"lpToken","type":"address","internalType":"address"},{"name":"tokenId","type":"uint256","internalType":"uint256"},{"name":"repayAmount","type":"uint256","internalType":"uint256"}],"outputs":[],"stateMutability":"nonpayable"},{"type":"function","name":"supply","inputs":[{"name":"lpToken","type":"address","internalType":"address"},{"name":"tokenId","type":"uint256","internalType":"uint256"},{"name":"loanUSDSAmount","type":"uint256","internalType":"uint256"}],"outputs":[],"stateMutability":"nonpayable"},{"type":"function","name":"tokenIdFrom","inputs":[{"name":"lpToken","type":"address","internalType":"address"},{"name":"tokenId","type":"uint256","internalType":"uint256"}],"outputs":[{"name":"user","type":"address","internalType":"address"}],"stateMutability":"view"},{"type":"function","name":"transferOwnership","inputs":[{"name":"newOwner","type":"address","internalType":"address"}],"outputs":[],"stateMutability":"nonpayable"},{"type":"function","name":"updateLPToken","inputs":[{"name":"lpToken","type":"address","internalType":"address"}],"outputs":[],"stateMutability":"nonpayable"},{"type":"function","name":"updateLpManager","inputs":[{"name":"lpManagerAddr","type":"address","internalType":"address"}],"outputs":[],"stateMutability":"nonpayable"},{"type":"function","name":"updatePeriphery","inputs":[{"name":"peripheryAddr","type":"address","internalType":"address"}],"outputs":[],"stateMutability":"nonpayable"},{"type":"function","name":"updatePool","inputs":[{"name":"lpToken","type":"address","internalType":"address"},{"name":"pool","type":"address","internalType":"address"},{"name":"info","type":"tuple","internalType":"struct DataType.PoolInfo","components":[{"name":"RC","type":"uint8","internalType":"enum DataType.RiskClass"},{"name":"Enabled","type":"bool","internalType":"bool"}]}],"outputs":[],"stateMutability":"nonpayable"},{"type":"function","name":"updatePriceFeed","inputs":[{"name":"priceFeedAddr","type":"address","internalType":"address"}],"outputs":[],"stateMutability":"nonpayable"},{"type":"function","name":"updateRate","inputs":[{"name":"rc","type":"uint8","internalType":"enum DataType.RiskClass"},{"name":"rate","type":"tuple","internalType":"struct DataType.Rate","components":[{"name":"LendingRate","type":"uint16","internalType":"uint16"},{"name":"LiquidationThldRate","type":"uint16","internalType":"uint16"},{"name":"LiquidationBonusRate","type":"uint16","internalType":"uint16"}]}],"outputs":[],"stateMutability":"nonpayable"},{"type":"function","name":"upgradeToAndCall","inputs":[{"name":"newImplementation","type":"address","internalType":"address"},{"name":"data","type":"bytes","internalType":"bytes"}],"outputs":[],"stateMutability":"payable"},{"type":"function","name":"usds","inputs":[],"outputs":[{"name":"","type":"address","internalType":"contract IUSDS"}],"stateMutability":"view"},{"type":"function","name":"userFee","inputs":[{"name":"positionId","type":"bytes32","internalType":"bytes32"}],"outputs":[{"name":"Fee0","type":"uint256","internalType":"uint256"},{"name":"Fee1","type":"uint256","internalType":"uint256"}],"stateMutability":"view"},{"type":"event","name":"Initialized","inputs":[{"name":"version","type":"uint64","indexed":false,"internalType":"uint64"}],"anonymous":false},{"type":"event","name":"OwnershipTransferred","inputs":[{"name":"previousOwner","type":"address","indexed":true,"internalType":"address"},{"name":"newOwner","type":"address","indexed":true,"internalType":"address"}],"anonymous":false},{"type":"event","name":"Upgraded","inputs":[{"name":"implementation","type":"address","indexed":true,"internalType":"address"}],"anonymous":false},{"type":"error","name":"AddressEmptyCode","inputs":[{"name":"target","type":"address","internalType":"address"}]},{"type":"error","name":"ERC1967InvalidImplementation","inputs":[{"name":"implementation","type":"address","internalType":"address"}]},{"type":"error","name":"ERC1967NonPayable","inputs":[]},{"type":"error","name":"FailedInnerCall","inputs":[]},{"type":"error","name":"InvalidInitialization","inputs":[]},{"type":"error","name":"NotInitializing","inputs":[]},{"type":"error","name":"OwnableInvalidOwner","inputs":[{"name":"owner","type":"address","internalType":"address"}]},{"type":"error","name":"OwnableUnauthorizedAccount","inputs":[{"name":"account","type":"address","internalType":"address"}]},{"type":"error","name":"UUPSUnauthorizedCallContext","inputs":[]},{"type":"error","name":"UUPSUnsupportedProxiableUUID","inputs":[{"name":"slot","type":"bytes32","internalType":"bytes32"}]}],"bytecode":{"object":"0x60a06040523060805234801561001457600080fd5b506080516135d561003e600039600081816124ff01528181612528015261266001526135d56000f3fe60806040526004361061023d5760003560e01c80637dbca3531161012f578063b20ef60c116100b1578063b20ef60c14610775578063b906f15a14610795578063c654ad60146107b5578063cde4ba9e146107e2578063d1def91614610802578063dda4079714610843578063e211332f14610863578063f1bf028614610883578063f2fde38b146108a3578063f6061526146108c3578063f84c007b146108e3578063fab526891461090357600080fd5b80637dbca353146105cb5780638cd2e0c7146105eb5780638da5cb5b1461060b5780638fb04c4b14610620578063929ed74f1461065357806395877f781461067357806397d75776146106935780639c1aeebd146106ae578063ad3cb1cc146106f7578063adbfded014610735578063afc578da1461075557600080fd5b806352796eae116101c357806352796eae146103f757806352d1902d1461041757806353ba3aa61461042c5780635976949b14610476578063645dd1fa146104965780637082d203146104ab578063715018a6146104cb578063741bef1a146104e0578063744b92e21461050057806377aace1a1461052057806379810531146105405780637db8c8631461056057600080fd5b8063014e95ba146102425780630d27b5e21461027c5780631394602f1461029e578063377fa120146102be578063390b2ec5146102ec5780633e77b4ca1461030c578063409a33ce1461033957806342340a561461034e5780634900b265146103955780634cf282fb146103b75780634f1ef286146103e4575b600080fd5b34801561024e57600080fd5b5060035461026490600160b81b900461ffff1681565b60405161ffff90911681526020015b60405180910390f35b34801561028857600080fd5b5061029c610297366004612d78565b610939565b005b3480156102aa57600080fd5b5061029c6102b9366004612e1f565b6109c5565b3480156102ca57600080fd5b506102de6102d9366004612e93565b610e16565b604051908152602001610273565b3480156102f857600080fd5b506102de610307366004612ed4565b610e3e565b34801561031857600080fd5b506102de610327366004612f00565b60076020526000908152604090205481565b34801561034557600080fd5b5061029c610e53565b34801561035a57600080fd5b50610387610369366004612f19565b60056020526000908152604090205460ff8082169161010090041682565b604051610273929190612f4c565b3480156103a157600080fd5b5060035461026490600160a81b900461ffff1681565b3480156103c357600080fd5b506003546103d7906001600160a01b031681565b6040516102739190612f7d565b61029c6103f2366004612f91565b610ecd565b34801561040357600080fd5b5061029c610412366004613038565b610eec565b34801561042357600080fd5b506102de610f3d565b34801561043857600080fd5b5061044c610447366004612e93565b610f5a565b6040516102739493929190938452602084019290925261ffff166040830152606082015260800190565b34801561048257600080fd5b5061029c610491366004613071565b610f7c565b3480156104a257600080fd5b5061029c6110f0565b3480156104b757600080fd5b5061029c6104c63660046130f9565b611124565b3480156104d757600080fd5b5061029c611320565b3480156104ec57600080fd5b506000546103d7906001600160a01b031681565b34801561050c57600080fd5b5061029c61051b366004613038565b611334565b34801561052c57600080fd5b506002546103d7906001600160a01b031681565b34801561054c57600080fd5b506102de61055b366004612e93565b6113fb565b34801561056c57600080fd5b506105a661057b36600461312e565b60066020526000908152604090205461ffff80821691620100008104821691600160201b9091041683565b6040805161ffff94851681529284166020840152921691810191909152606001610273565b3480156105d757600080fd5b5061029c6105e63660046130f9565b611410565b3480156105f757600080fd5b5061029c6106063660046130f9565b6117ef565b34801561061757600080fd5b506103d7611b06565b34801561062c57600080fd5b5060035461064190600160a01b900460ff1681565b60405160ff9091168152602001610273565b34801561065f57600080fd5b5061029c61066e366004612f19565b611b21565b34801561067f57600080fd5b5061029c61068e366004612f19565b611b4b565b34801561069f57600080fd5b506103d76002604360981b0181565b3480156106ba57600080fd5b506106e26106c9366004612f00565b6008602052600090815260409020805460019091015482565b60408051928352602083019190915201610273565b34801561070357600080fd5b50610728604051806040016040528060058152602001640352e302e360dc1b81525081565b604051610273919061316d565b34801561074157600080fd5b5061029c610750366004613038565b611b75565b34801561076157600080fd5b506102de610770366004612e93565b611c2b565b34801561078157600080fd5b5061029c610790366004612f19565b611cb0565b3480156107a157600080fd5b506001546103d7906001600160a01b031681565b3480156107c157600080fd5b506102de6107d0366004612f19565b60096020526000908152604090205481565b3480156107ee57600080fd5b506102de6107fd3660046131ae565b611d4e565b34801561080e57600080fd5b506103d761081d366004612ed4565b600a6020908152600092835260408084209091529082529020546001600160a01b031681565b34801561084f57600080fd5b5061029c61085e366004612ed4565b611d65565b34801561086f57600080fd5b5061029c61087e366004613201565b611e90565b34801561088f57600080fd5b5061029c61089e366004613201565b61200e565b3480156108af57600080fd5b5061029c6108be366004612f19565b612106565b3480156108cf57600080fd5b5061029c6108de366004612f19565b612141565b3480156108ef57600080fd5b5061029c6108fe366004612f19565b6121aa565b34801561090f57600080fd5b506103d761091e366004612f19565b6004602052600090815260409020546001600160a01b031681565b6109416121d4565b806006600084600281111561095857610958612f36565b600281111561096957610969612f36565b815260208082019290925260409081016000208351815493850151949092015161ffff908116600160201b0265ffff0000000019958216620100000263ffffffff19909516919093161792909217929092169190911790555050565b60008060006109e1846000015185602001518660400151612206565b6003549296509094509250600160b81b900461ffff1682109050610a055750505050565b600354610a1e908390600160b81b900461ffff166132b1565b60035461ffff91821691610a3a91600160b81b900416856132d3565b610a4491906132ea565b84606001511115610a975760405162461bcd60e51b815260206004820152601860248201527732bc31b2b2b21036b0bc103232b13a103a379031b7bb32b960411b60448201526064015b60405180910390fd5b600154602085015160408087015190516305fd3fa360e21b81526000936001600160a01b0316926317f4fe8c92610ad09260040161330c565b602060405180830381865afa158015610aed573d6000803e3d6000fd5b505050506040513d601f19601f82011682018060405250810190610b119190613325565b60035490915060009085908390600160b81b900461ffff16610b3387826132b1565b61ffff168960600151610b4691906132d3565b610b5091906132ea565b610b5a91906132d3565b610b6491906132ea565b60015460208801516040808a01519051635e8e661360e11b81526001600160a01b0392831660048201526024810191909152604481018490529293506000928392919091169063bd1ccc269060640160408051808303816000875af1158015610bd1573d6000803e3d6000fd5b505050506040513d601f19601f82011682018060405250810190610bf5919061333e565b60015460208b015192945090925060009182916001600160a01b031690633c49be0c90610c21816122fc565b8d60400151306040518563ffffffff1660e01b8152600401610c469493929190613362565b6080604051808303816000875af1158015610c65573d6000803e3d6000fd5b505050506040513d601f19601f82011682018060405250810190610c89919061338d565b935093505050600260009054906101000a90046001600160a01b03166001600160a01b031663e393a9708b602001518c6060015160006040518463ffffffff1660e01b8152600401610cdd939291906133cd565b600060405180830381600087803b158015610cf757600080fd5b505af1158015610d0b573d6000803e3d6000fd5b505050506000610d288b600001518c602001518d6040015161231a565b60608c01516000828152600760205260409020549192501115610d4c576000610d6a565b60608b0151600082815260076020526040902054610d6a91906133f0565b600082815260076020526040908190209190915560035460608d01519151639fea51fb60e01b81526001600160a01b0390911691639fea51fb91610db291339160040161330c565b600060405180830381600087803b158015610dcc57600080fd5b505af1158015610de0573d6000803e3d6000fd5b505050506000851115610df857610df8833387612350565b8315610e0957610e09823386612350565b5050505050505050505050565b600080610e2485858561231a565b6000908152600760205260409020549150505b9392505050565b6000610e4a8383612453565b90505b92915050565b610e5b6121d4565b60405163430021db60e11b81526002604360981b019063860043b690610e879030903390600401613403565b6020604051808303816000875af1158015610ea6573d6000803e3d6000fd5b505050506040513d601f19601f82011682018060405250810190610eca9190613325565b50565b610ed56124f4565b610ede82612599565b610ee882826125a1565b5050565b610ef46121d4565b6001600160a01b0382166000908152600960205260409020548015610f3857610f1e838383612350565b6001600160a01b0383166000908152600960205260408120555b505050565b6000610f47612655565b5060008051602061358083398151915290565b600080600080610f6b878787612206565b929a91995097509095509350505050565b6000610f8661269e565b805490915060ff600160401b82041615906001600160401b0316600081158015610fad5750825b90506000826001600160401b03166001148015610fc95750303b155b905081158015610fd7575080155b15610ff55760405163f92ee8a960e01b815260040160405180910390fd5b845467ffffffffffffffff19166001178555831561101f57845460ff60401b1916600160401b1785555b6110288b6126c2565b6110306126d3565b600080546001600160a01b03199081166001600160a01b038b8116919091179092556001805482168a84161790556002805490911688831617905560038054918c166001600160a81b031990921691909117600160a01b60ff8c16021761ffff60b81b191661027160bc1b1790558315610e0957845460ff60401b19168555604051600181527fc7f505b2f371ae2175ee4913f4499e1f2633a7b5936321eed1cdaeb6115181d29060200160405180910390a15050505050505050505050565b6110f86121d4565b604051634aa7d2f760e11b81526002604360981b019063954fa5ee90610e879030903390600401613403565b6001546040516331a9108f60e11b8152600481018490526001600160a01b0391821691851690636352211e90602401602060405180830381865afa158015611170573d6000803e3d6000fd5b505050506040513d601f19601f82011682018060405250810190611194919061341d565b6001600160a01b0316146111e15760405162461bcd60e51b81526020600482015260146024820152731d1bdad95b9259081b9bdd081cdd5c1c1b1a595960621b6044820152606401610a8e565b6111eb83836126db565b505060006111fc33858560006128cc565b905060008211801561120e5750808211155b61121757600080fd5b600254604051630e393a9760e41b81526001600160a01b039091169063e393a9709061124c90879086906001906004016133cd565b600060405180830381600087803b15801561126657600080fd5b505af115801561127a573d6000803e3d6000fd5b50505050600061128b33868661231a565b9050826007600083815260200190815260200160002060008282546112b0919061343a565b90915550506003546040516351bfc6fb60e11b81526001600160a01b039091169063a37f8df6906112e7903390879060040161330c565b600060405180830381600087803b15801561130157600080fd5b505af1158015611315573d6000803e3d6000fd5b505050505050505050565b6113286121d4565b6113326000612950565b565b61133c6121d4565b6001600160a01b038116600090815260056020526040902054610100900460ff166113795760405162461bcd60e51b8152600401610a8e9061344d565b6001600160a01b0380821660009081526005602052604090819020805461ffff191690556002549051636e8b4b5160e01b8152911690636e8b4b51906113c59085908590600401613403565b600060405180830381600087803b1580156113df57600080fd5b505af11580156113f3573d6000803e3d6000fd5b505050505050565b600061140884848461231a565b949350505050565b6001546000906001600160a01b03166392e48a2d8561142e816122fc565b866040518463ffffffff1660e01b815260040161144d93929190613477565b606060405180830381865afa15801561146a573d6000803e3d6000fd5b505050506040513d601f19601f8201168201806040525081019061148e919061349b565b6001600160a01b038116600090815260056020526040902054909350610100900460ff1691506114f190505760405162461bcd60e51b815260206004820152600c60248201526b1a5b9d985b1a59081c1bdbdb60a21b6044820152606401610a8e565b600154604051632142170760e11b81526001600160a01b03808716926342842e0e9261152592339216908890600401613477565b600060405180830381600087803b15801561153f57600080fd5b505af1158015611553573d6000803e3d6000fd5b505060015460009250829150819081906001600160a01b0316633c49be0c8961157b816122fc565b8a306040518563ffffffff1660e01b815260040161159c9493929190613362565b6080604051808303816000875af11580156115bb573d6000803e3d6000fd5b505050506040513d601f19601f820116820180604052508101906115df919061338d565b935093509350935060008411156115fb576115fb823386612350565b821561160c5761160c813385612350565b600061161b338a8a60016128cc565b905060008711801561162d5750808711155b61166a5760405162461bcd60e51b815260206004820152600e60248201526d1a5b9d985b1a5908185b5bdd5b9d60921b6044820152606401610a8e565b600254604051622536f760e61b81526001600160a01b039091169063094dbdc09061169d9033908d908d90600401613477565b600060405180830381600087803b1580156116b757600080fd5b505af11580156116cb573d6000803e3d6000fd5b5050600254604051630e393a9760e41b81526001600160a01b03909116925063e393a9709150611704908c908b906001906004016133cd565b600060405180830381600087803b15801561171e57600080fd5b505af1158015611732573d6000803e3d6000fd5b505050506000611743338b8b61231a565b60008181526007602090815260408083208c90556001600160a01b03808f168452600a83528184208e85529092529182902080546001600160a01b0319163390811790915560035492516351bfc6fb60e11b815293945091169163a37f8df6916117b1918c9060040161330c565b600060405180830381600087803b1580156117cb57600080fd5b505af11580156117df573d6000803e3d6000fd5b5050505050505050505050505050565b60006117fc33858561231a565b6003546040516370a0823160e01b815291925083916001600160a01b03909116906370a0823190611831903390600401612f7d565b602060405180830381865afa15801561184e573d6000803e3d6000fd5b505050506040513d601f19601f820116820180604052508101906118729190613325565b10156118ba5760405162461bcd60e51b81526020600482015260176024820152766e6f7420656e6f75676820757364732062616c616e636560481b6044820152606401610a8e565b6000821180156118d857506000818152600760205260409020548211155b61191b5760405162461bcd60e51b81526020600482015260146024820152731a5b9d985b1a59081c995c185e48185b5bdd5b9d60621b6044820152606401610a8e565b61192584846126db565b5050600254604051630e393a9760e41b81526001600160a01b039091169063e393a9709061195c90879086906000906004016133cd565b600060405180830381600087803b15801561197657600080fd5b505af115801561198a573d6000803e3d6000fd5b505050600082815260076020526040812080548593509091906119ae9084906133f0565b9091555050600354604051639fea51fb60e01b81526001600160a01b0390911690639fea51fb906119e5903390869060040161330c565b600060405180830381600087803b1580156119ff57600080fd5b505af1158015611a13573d6000803e3d6000fd5b50505060008281526007602052604081205490039050611b005760015460405163e466f4c560e01b81526001600160a01b038681166004830152602482018690523360448301529091169063e466f4c590606401600060405180830381600087803b158015611a8157600080fd5b505af1158015611a95573d6000803e3d6000fd5b505060025460405163017dd70f60e61b81526001600160a01b039091169250635f75c3c09150611acd90339088908890600401613477565b600060405180830381600087803b158015611ae757600080fd5b505af1158015611afb573d6000803e3d6000fd5b505050505b50505050565b600080611b116129ac565b546001600160a01b031692915050565b611b296121d4565b600280546001600160a01b0319166001600160a01b0392909216919091179055565b611b536121d4565b600080546001600160a01b0319166001600160a01b0392909216919091179055565b611b7d6121d4565b6000611b88836122fc565b6001600160a01b031614611bd65760405162461bcd60e51b8152602060048201526015602482015274199858dd1bdc9e48185b1c9958591e481859191959605a1b6044820152606401610a8e565b6001600160a01b0382811660009081526004602081905260409182902080546001600160a01b0319168585161790556002549151631633eb6360e21b815291909216916358cfad8c916113c591869101612f7d565b600080600080611c3c878787612206565b6003549296509094509250600160b81b900461ffff1682109050611c665760009350505050610e37565b600354611c7f908390600160b81b900461ffff166132b1565b60035461ffff91821691611c9b91600160b81b900416856132d3565b611ca591906132ea565b979650505050505050565b611cb86121d4565b6000611cc3826122fc565b6001600160a01b031603611ce95760405162461bcd60e51b8152600401610a8e906134e8565b6002546040516399ee00f960e01b81526001600160a01b03909116906399ee00f990611d19908490600401612f7d565b600060405180830381600087803b158015611d3357600080fd5b505af1158015611d47573d6000803e3d6000fd5b5050505050565b6000611d5c858585856128cc565b95945050505050565b6001546040516331a9108f60e11b8152600481018390526001600160a01b0391821691841690636352211e90602401602060405180830381865afa158015611db1573d6000803e3d6000fd5b505050506040513d601f19601f82011682018060405250810190611dd5919061341d565b6001600160a01b031614611e1d5760405162461bcd60e51b815260206004820152600f60248201526e1a5b9d985b1a59081d1bdad95b9259608a1b6044820152606401610a8e565b600080611e2a84846126db565b915091506000611e3b33868661231a565b600081815260086020526040902080549192509015611e6857611e6384338360000154612350565b600081555b6001810154156113f357611e8183338360010154612350565b60006001820155505050505050565b611e986121d4565b6001600160a01b038216600090815260056020526040902054610100900460ff16611ed55760405162461bcd60e51b8152600401610a8e9061344d565b6001600160a01b03821660009081526005602052604090208151815483929190829060ff19166001836002811115611f0f57611f0f612f36565b02179055506020919091015181549015156101000261ff001990911617905560025460405163a028ab0160e01b81526001600160a01b039091169063a028ab0190611f609086908690600401613403565b602060405180830381865afa158015611f7d573d6000803e3d6000fd5b505050506040513d601f19601f82011682018060405250810190611fa19190613513565b610f3857600254604051630209c51b60e01b81526001600160a01b0390911690630209c51b90611fd79086908690600401613403565b600060405180830381600087803b158015611ff157600080fd5b505af1158015612005573d6000803e3d6000fd5b50505050505050565b6120166121d4565b6001600160a01b038216600090815260056020526040902054610100900460ff161561207b5760405162461bcd60e51b81526020600482015260146024820152731c1bdbdb08185b1c9958591e48195b98589b195960621b6044820152606401610a8e565b6001600160a01b03821660009081526005602052604090208151815483929190829060ff191660018360028111156120b5576120b5612f36565b02179055506020919091015181549015156101000261ff0019909116179055600254604051630209c51b60e01b81526001600160a01b0390911690630209c51b90611fd79086908690600401613403565b61210e6121d4565b6001600160a01b038116612138576000604051631e4fbdf760e01b8152600401610a8e9190612f7d565b610eca81612950565b6121496121d4565b6000612154826122fc565b6001600160a01b03160361217a5760405162461bcd60e51b8152600401610a8e906134e8565b600254604051631633eb6360e21b81526001600160a01b03909116906358cfad8c90611d19908490600401612f7d565b6121b26121d4565b600180546001600160a01b0319166001600160a01b0392909216919091179055565b336121dd611b06565b6001600160a01b031614611332573360405163118cdaa760e01b8152600401610a8e9190612f7d565b600080600080600061221988888861231a565b6000818152600760205260409020546001549096509091506001600160a01b0316636a72450f88612249816122fc565b60035460005460405160e086901b6001600160e01b031916815261228b9493928d92600160a01b90910460ff16916001600160a01b0390911690600401613530565b602060405180830381865afa1580156122a8573d6000803e3d6000fd5b505050506040513d601f19601f820116820180604052508101906122cc9190613325565b93506000806122db89896129d0565b92509250508094506122ee868389612af0565b935050505093509350935093565b6001600160a01b039081166000908152600460205260409020541690565b600083838360405160200161233193929190613477565b6040516020818303038152906040528051906020012090509392505050565b600080846001600160a01b031663a9059cbb60e01b858560405160240161237892919061330c565b60408051601f198184030181529181526020820180516001600160e01b03166001600160e01b03199094169390931790925290516123b69190613563565b6000604051808303816000865af19150503d80600081146123f3576040519150601f19603f3d011682016040523d82523d6000602084013e6123f8565b606091505b50915091508180156124225750805115806124225750808060200190518101906124229190613513565b611d475760405162461bcd60e51b815260206004820152600260248201526114d560f21b6044820152606401610a8e565b6001546000906001600160a01b0316636a72450f84612471816122fc565b60035460005460405160e086901b6001600160e01b03191681526124b39493928992600160a01b90910460ff16916001600160a01b0390911690600401613530565b602060405180830381865afa1580156124d0573d6000803e3d6000fd5b505050506040513d601f19601f82011682018060405250810190610e4a9190613325565b306001600160a01b037f000000000000000000000000000000000000000000000000000000000000000016148061257b57507f00000000000000000000000000000000000000000000000000000000000000006001600160a01b031661256f600080516020613580833981519152546001600160a01b031690565b6001600160a01b031614155b156113325760405163703e46dd60e11b815260040160405180910390fd5b610eca6121d4565b816001600160a01b03166352d1902d6040518163ffffffff1660e01b8152600401602060405180830381865afa9250505080156125fb575060408051601f3d908101601f191682019092526125f891810190613325565b60015b61261a5781604051634c9c8ce360e01b8152600401610a8e9190612f7d565b600080516020613580833981519152811461264b57604051632a87526960e21b815260048101829052602401610a8e565b610f388383612b0b565b306001600160a01b037f000000000000000000000000000000000000000000000000000000000000000016146113325760405163703e46dd60e11b815260040160405180910390fd5b7ff0c57e16840df040f15088dc2f81fe391c3923bec73e23a9662efc9c229c6a0090565b6126ca612b61565b610eca81612b86565b611332612b61565b600154600090819081908190819081906001600160a01b0316633c49be0c89612703816122fc565b8a306040518563ffffffff1660e01b81526004016127249493929190613362565b6080604051808303816000875af1158015612743573d6000803e3d6000fd5b505050506040513d601f19601f82011682018060405250810190612767919061338d565b6003549397509195509350915060009061ffff600160b81b820481169161279791600160a81b90910416876132d3565b6127a191906132ea565b60035490915060009061ffff600160b81b82048116916127ca91600160a81b90910416876132d3565b6127d491906132ea565b9050811561280a576001600160a01b0388166000908152600960205260408120805484929061280490849061343a565b90915550505b801561283e576001600160a01b0387166000908152600960205260408120805483929061283890849061343a565b90915550505b600061284a83886133f0565b9050600061285883886133f0565b90506000612867338e8e61231a565b600081815260086020526040902090915083156128985783816000016000828254612892919061343a565b90915550505b82156128b857828160010160008282546128b2919061343a565b90915550505b50959c949b50939950505050505050505050565b6000806128d985856129d0565b5050905060006128e98686612453565b905060006128f888888861231a565b90508461291d5760008181526007602052604090205461291890836133f0565b612944565b60035461ffff600160b81b90910481169061293a908516846132d3565b61294491906132ea565b98975050505050505050565b600061295a6129ac565b80546001600160a01b038481166001600160a01b031983168117845560405193945091169182907f8be0079c531659141344cd1fd0a4f28419497f9722a3daafe3b4186f6b6457e090600090a3505050565b7f9016d09d72d40fdae2fd8ceac6b6234c7706214fd39c1cd1e609a0528c19930090565b6001546000908190819081906001600160a01b03166392e48a2d876129f4816122fc565b886040518463ffffffff1660e01b8152600401612a1393929190613477565b606060405180830381865afa158015612a30573d6000803e3d6000fd5b505050506040513d601f19601f82011682018060405250810190612a54919061349b565b6001600160a01b038116600090815260056020526040812054919450925060069150829060ff166002811115612a8c57612a8c612f36565b6002811115612a9d57612a9d612f36565b815260208082019290925260409081016000208151606081018352905461ffff8082168084526201000083048216958401869052600160201b909204169190920181905290999198509650945050505050565b600081612b0161ffff8516866132d3565b61140891906132ea565b612b1482612b8e565b6040516001600160a01b038316907fbc7cd75a20ee27fd9adebab32041f755214dbc6bffa90cc0225b39da2e5c2d3b90600090a2805115612b5957610f388282612bea565b610ee8612c57565b612b69612c76565b61133257604051631afcd79f60e31b815260040160405180910390fd5b61210e612b61565b806001600160a01b03163b600003612bbb5780604051634c9c8ce360e01b8152600401610a8e9190612f7d565b60008051602061358083398151915280546001600160a01b0319166001600160a01b0392909216919091179055565b6060600080846001600160a01b031684604051612c079190613563565b600060405180830381855af49150503d8060008114612c42576040519150601f19603f3d011682016040523d82523d6000602084013e612c47565b606091505b5091509150611d5c858383612c90565b34156113325760405163b398979f60e01b815260040160405180910390fd5b6000612c8061269e565b54600160401b900460ff16919050565b606082612ca557612ca082612ce3565b610e37565b8151158015612cbc57506001600160a01b0384163b155b15612cdc5783604051639996b31560e01b8152600401610a8e9190612f7d565b5080610e37565b805115612cf35780518082602001fd5b604051630a12f52160e11b815260040160405180910390fd5b803560038110612d1b57600080fd5b919050565b634e487b7160e01b600052604160045260246000fd5b604051601f8201601f191681016001600160401b0381118282101715612d5e57612d5e612d20565b604052919050565b803561ffff81168114612d1b57600080fd5b6000808284036080811215612d8c57600080fd5b612d9584612d0c565b92506060601f1982011215612da957600080fd5b50604051606081018181106001600160401b0382111715612dcc57612dcc612d20565b604052612ddb60208501612d66565b8152612de960408501612d66565b6020820152612dfa60608501612d66565b6040820152809150509250929050565b6001600160a01b0381168114610eca57600080fd5b600060808284031215612e3157600080fd5b604051608081018181106001600160401b0382111715612e5357612e53612d20565b6040528235612e6181612e0a565b81526020830135612e7181612e0a565b6020820152604083810135908201526060928301359281019290925250919050565b600080600060608486031215612ea857600080fd5b8335612eb381612e0a565b92506020840135612ec381612e0a565b929592945050506040919091013590565b60008060408385031215612ee757600080fd5b8235612ef281612e0a565b946020939093013593505050565b600060208284031215612f1257600080fd5b5035919050565b600060208284031215612f2b57600080fd5b8135610e3781612e0a565b634e487b7160e01b600052602160045260246000fd5b6040810160038410612f6e57634e487b7160e01b600052602160045260246000fd5b92815290151560209091015290565b6001600160a01b0391909116815260200190565b60008060408385031215612fa457600080fd5b8235612faf81612e0a565b91506020838101356001600160401b0380821115612fcc57600080fd5b818601915086601f830112612fe057600080fd5b813581811115612ff257612ff2612d20565b613004601f8201601f19168501612d36565b9150808252878482850101111561301a57600080fd5b80848401858401376000848284010152508093505050509250929050565b6000806040838503121561304b57600080fd5b823561305681612e0a565b9150602083013561306681612e0a565b809150509250929050565b60008060008060008060c0878903121561308a57600080fd5b863561309581612e0a565b955060208701356130a581612e0a565b9450604087013560ff811681146130bb57600080fd5b935060608701356130cb81612e0a565b925060808701356130db81612e0a565b915060a08701356130eb81612e0a565b809150509295509295509295565b60008060006060848603121561310e57600080fd5b833561311981612e0a565b95602085013595506040909401359392505050565b60006020828403121561314057600080fd5b610e4a82612d0c565b60005b8381101561316457818101518382015260200161314c565b50506000910152565b602081526000825180602084015261318c816040850160208701613149565b601f01601f19169190910160400192915050565b8015158114610eca57600080fd5b600080600080608085870312156131c457600080fd5b84356131cf81612e0a565b935060208501356131df81612e0a565b92506040850135915060608501356131f6816131a0565b939692955090935050565b6000806000838503608081121561321757600080fd5b843561322281612e0a565b9350602085013561323281612e0a565b92506040603f198201121561324657600080fd5b50604051604081018181106001600160401b038211171561326957613269612d20565b806040525061327a60408601612d0c565b8152606085013561328a816131a0565b602082015292959194509192509050565b634e487b7160e01b600052601160045260246000fd5b61ffff8181168382160190808211156132cc576132cc61329b565b5092915050565b8082028115828204841417610e4d57610e4d61329b565b60008261330757634e487b7160e01b600052601260045260246000fd5b500490565b6001600160a01b03929092168252602082015260400190565b60006020828403121561333757600080fd5b5051919050565b6000806040838503121561335157600080fd5b505080516020909101519092909150565b6001600160a01b03948516815292841660208401526040830191909152909116606082015260800190565b600080600080608085870312156133a357600080fd5b845193506020850151925060408501516133bc81612e0a565b60608601519092506131f681612e0a565b6001600160a01b0393909316835260208301919091521515604082015260600190565b81810381811115610e4d57610e4d61329b565b6001600160a01b0392831681529116602082015260400190565b60006020828403121561342f57600080fd5b8151610e3781612e0a565b80820180821115610e4d57610e4d61329b565b60208082526010908201526f1c1bdbdb081b9bdd08195b98589b195960821b604082015260600190565b6001600160a01b039384168152919092166020820152604081019190915260600190565b6000806000606084860312156134b057600080fd5b83516134bb81612e0a565b60208501519093506134cc81612e0a565b60408501519092506134dd81612e0a565b809150509250925092565b602080825260119082015270199858dd1bdc9e481393d5081859191959607a1b604082015260600190565b60006020828403121561352557600080fd5b8151610e37816131a0565b6001600160a01b0395861681529385166020850152604084019290925260ff166060830152909116608082015260a00190565b60008251613575818460208701613149565b919091019291505056fe360894a13ba1a3210667c828492db98dca3e2076cc3735a920a3ca505d382bbca2646970667358221220741e4df148ea33060eb1c62e45c282dfa2970a02d5464c509f35555a13cd854364736f6c63430008180033","linkReferences":{}},"methodIdentifiers":{"BLAST()":"97d75776","UPGRADE_INTERFACE_VERSION()":"ad3cb1cc","USDS_DECIMAL()":"8fb04c4b","addLPToken(address,address)":"adbfded0","addPool(address,address,(uint8,bool))":"f1bf0286","adminCollectFee(address,address)":"52796eae","claimAllGas()":"645dd1fa","claimAllYield()":"409a33ce","claimFee(address,uint256)":"dda40797","factories(address)":"fab52689","initialize(address,address,uint8,address,address,address)":"5976949b","lend(address,uint256,uint256)":"7082d203","lendings(bytes32)":"3e77b4ca","liquidationCall((address,address,uint256,uint256))":"1394602f","lpManager()":"b906f15a","owner()":"8da5cb5b","periphery()":"77aace1a","poolInfos(address)":"42340a56","previewHealthFactor(address,address,uint256)":"53ba3aa6","previewLPUSDValue(address,uint256)":"390b2ec5","previewMaxLoanUSDS(address,address,uint256,bool)":"cde4ba9e","previewMaxLqdtUSDSAmount(address,address,uint256)":"afc578da","previewPositionId(address,address,uint256)":"79810531","previewUserLending(address,address,uint256)":"377fa120","priceFeed()":"741bef1a","protFee(address)":"c654ad60","protFeeRate()":"4900b265","proxiableUUID()":"52d1902d","rateBase()":"014e95ba","rates(uint8)":"7db8c863","removeLPToken(address)":"b20ef60c","removePool(address,address)":"744b92e2","renounceOwnership()":"715018a6","repay(address,uint256,uint256)":"8cd2e0c7","supply(address,uint256,uint256)":"7dbca353","tokenIdFrom(address,uint256)":"d1def916","transferOwnership(address)":"f2fde38b","updateLPToken(address)":"f6061526","updateLpManager(address)":"f84c007b","updatePeriphery(address)":"929ed74f","updatePool(address,address,(uint8,bool))":"e211332f","updatePriceFeed(address)":"95877f78","updateRate(uint8,(uint16,uint16,uint16))":"0d27b5e2","upgradeToAndCall(address,bytes)":"4f1ef286","usds()":"4cf282fb","userFee(bytes32)":"9c1aeebd"},"storageLayout":{"storage":[{"astId":59711,"contract":"src/LPLend.sol:LPLend","label":"priceFeed","offset":0,"slot":"0","type":"t_contract(IPriceFeed)61906"},{"astId":59714,"contract":"src/LPLend.sol:LPLend","label":"lpManager","offset":0,"slot":"1","type":"t_contract(ILPManager)61738"},{"astId":59717,"contract":"src/LPLend.sol:LPLend","label":"periphery","offset":0,"slot":"2","type":"t_contract(IPeriphery)61872"},{"astId":59720,"contract":"src/LPLend.sol:LPLend","label":"usds","offset":0,"slot":"3","type":"t_contract(IUSDS)73799"},{"astId":59722,"contract":"src/LPLend.sol:LPLend","label":"USDS_DECIMAL","offset":20,"slot":"3","type":"t_uint8"},{"astId":59724,"contract":"src/LPLend.sol:LPLend","label":"protFeeRate","offset":21,"slot":"3","type":"t_uint16"},{"astId":59726,"contract":"src/LPLend.sol:LPLend","label":"rateBase","offset":23,"slot":"3","type":"t_uint16"},{"astId":59730,"contract":"src/LPLend.sol:LPLend","label":"factories","offset":0,"slot":"4","type":"t_mapping(t_address,t_address)"},{"astId":59735,"contract":"src/LPLend.sol:LPLend","label":"poolInfos","offset":0,"slot":"5","type":"t_mapping(t_address,t_struct(PoolInfo)68272_storage)"},{"astId":59741,"contract":"src/LPLend.sol:LPLend","label":"rates","offset":0,"slot":"6","type":"t_mapping(t_enum(RiskClass)68266,t_struct(Rate)68279_storage)"},{"astId":59745,"contract":"src/LPLend.sol:LPLend","label":"lendings","offset":0,"slot":"7","type":"t_mapping(t_bytes32,t_uint256)"},{"astId":59750,"contract":"src/LPLend.sol:LPLend","label":"userFee","offset":0,"slot":"8","type":"t_mapping(t_bytes32,t_struct(Fee)68284_storage)"},{"astId":59754,"contract":"src/LPLend.sol:LPLend","label":"protFee","offset":0,"slot":"9","type":"t_mapping(t_address,t_uint256)"},{"astId":59760,"contract":"src/LPLend.sol:LPLend","label":"tokenIdFrom","offset":0,"slot":"10","type":"t_mapping(t_address,t_mapping(t_uint256,t_address))"}],"types":{"t_address":{"encoding":"inplace","label":"address","numberOfBytes":"20"},"t_bool":{"encoding":"inplace","label":"bool","numberOfBytes":"1"},"t_bytes32":{"encoding":"inplace","label":"bytes32","numberOfBytes":"32"},"t_contract(ILPManager)61738":{"encoding":"inplace","label":"contract ILPManager","numberOfBytes":"20"},"t_contract(IPeriphery)61872":{"encoding":"inplace","label":"contract IPeriphery","numberOfBytes":"20"},"t_contract(IPriceFeed)61906":{"encoding":"inplace","label":"contract IPriceFeed","numberOfBytes":"20"},"t_contract(IUSDS)73799":{"encoding":"inplace","label":"contract IUSDS","numberOfBytes":"20"},"t_enum(RiskClass)68266":{"encoding":"inplace","label":"enum DataType.RiskClass","numberOfBytes":"1"},"t_mapping(t_address,t_address)":{"encoding":"mapping","key":"t_address","label":"mapping(address => address)","numberOfBytes":"32","value":"t_address"},"t_mapping(t_address,t_mapping(t_uint256,t_address))":{"encoding":"mapping","key":"t_address","label":"mapping(address => mapping(uint256 => address))","numberOfBytes":"32","value":"t_mapping(t_uint256,t_address)"},"t_mapping(t_address,t_struct(PoolInfo)68272_storage)":{"encoding":"mapping","key":"t_address","label":"mapping(address => struct DataType.PoolInfo)","numberOfBytes":"32","value":"t_struct(PoolInfo)68272_storage"},"t_mapping(t_address,t_uint256)":{"encoding":"mapping","key":"t_address","label":"mapping(address => uint256)","numberOfBytes":"32","value":"t_uint256"},"t_mapping(t_bytes32,t_struct(Fee)68284_storage)":{"encoding":"mapping","key":"t_bytes32","label":"mapping(bytes32 => struct DataType.Fee)","numberOfBytes":"32","value":"t_struct(Fee)68284_storage"},"t_mapping(t_bytes32,t_uint256)":{"encoding":"mapping","key":"t_bytes32","label":"mapping(bytes32 => uint256)","numberOfBytes":"32","value":"t_uint256"},"t_mapping(t_enum(RiskClass)68266,t_struct(Rate)68279_storage)":{"encoding":"mapping","key":"t_enum(RiskClass)68266","label":"mapping(enum DataType.RiskClass => struct DataType.Rate)","numberOfBytes":"32","value":"t_struct(Rate)68279_storage"},"t_mapping(t_uint256,t_address)":{"encoding":"mapping","key":"t_uint256","label":"mapping(uint256 => address)","numberOfBytes":"32","value":"t_address"},"t_struct(Fee)68284_storage":{"encoding":"inplace","label":"struct DataType.Fee","numberOfBytes":"64","members":[{"astId":68281,"contract":"src/LPLend.sol:LPLend","label":"Fee0","offset":0,"slot":"0","type":"t_uint256"},{"astId":68283,"contract":"src/LPLend.sol:LPLend","label":"Fee1","offset":0,"slot":"1","type":"t_uint256"}]},"t_struct(PoolInfo)68272_storage":{"encoding":"inplace","label":"struct DataType.PoolInfo","numberOfBytes":"32","members":[{"astId":68269,"contract":"src/LPLend.sol:LPLend","label":"RC","offset":0,"slot":"0","type":"t_enum(RiskClass)68266"},{"astId":68271,"contract":"src/LPLend.sol:LPLend","label":"Enabled","offset":1,"slot":"0","type":"t_bool"}]},"t_struct(Rate)68279_storage":{"encoding":"inplace","label":"struct DataType.Rate","numberOfBytes":"32","members":[{"astId":68274,"contract":"src/LPLend.sol:LPLend","label":"LendingRate","offset":0,"slot":"0","type":"t_uint16"},{"astId":68276,"contract":"src/LPLend.sol:LPLend","label":"LiquidationThldRate","offset":2,"slot":"0","type":"t_uint16"},{"astId":68278,"contract":"src/LPLend.sol:LPLend","label":"LiquidationBonusRate","offset":4,"slot":"0","type":"t_uint16"}]},"t_uint16":{"encoding":"inplace","label":"uint16","numberOfBytes":"2"},"t_uint256":{"encoding":"inplace","label":"uint256","numberOfBytes":"32"},"t_uint8":{"encoding":"inplace","label":"uint8","numberOfBytes":"1"}}},"id":72}