{"abi":[{"type":"function","name":"UPGRADE_INTERFACE_VERSION","inputs":[],"outputs":[{"name":"","type":"string","internalType":"string"}],"stateMutability":"view"},{"type":"function","name":"addLPTokenPeri","inputs":[{"name":"lpToken","type":"address","internalType":"address"}],"outputs":[],"stateMutability":"nonpayable"},{"type":"function","name":"addPoolPeri","inputs":[{"name":"lpToken","type":"address","internalType":"address"},{"name":"pool","type":"address","internalType":"address"}],"outputs":[],"stateMutability":"nonpayable"},{"type":"function","name":"getIsLPTokenIn","inputs":[{"name":"lpToken","type":"address","internalType":"address"}],"outputs":[{"name":"","type":"bool","internalType":"bool"}],"stateMutability":"view"},{"type":"function","name":"getIsPoolIn","inputs":[{"name":"lpToken","type":"address","internalType":"address"},{"name":"pool","type":"address","internalType":"address"}],"outputs":[{"name":"","type":"bool","internalType":"bool"}],"stateMutability":"view"},{"type":"function","name":"getIsTokenIDInProt","inputs":[{"name":"lpToken","type":"address","internalType":"address"},{"name":"tokenId","type":"uint256","internalType":"uint256"}],"outputs":[{"name":"","type":"bool","internalType":"bool"}],"stateMutability":"view"},{"type":"function","name":"getIsTokenIDInUser","inputs":[{"name":"user","type":"address","internalType":"address"},{"name":"lpToken","type":"address","internalType":"address"},{"name":"tokenId","type":"uint256","internalType":"uint256"}],"outputs":[{"name":"","type":"bool","internalType":"bool"}],"stateMutability":"view"},{"type":"function","name":"getSupportLPTokens","inputs":[],"outputs":[{"name":"","type":"address[]","internalType":"address[]"}],"stateMutability":"view"},{"type":"function","name":"getSupportPoolsPerLPToken","inputs":[{"name":"lpToken","type":"address","internalType":"address"}],"outputs":[{"name":"","type":"address[]","internalType":"address[]"}],"stateMutability":"view"},{"type":"function","name":"initialize","inputs":[{"name":"owner_","type":"address","internalType":"address"}],"outputs":[],"stateMutability":"nonpayable"},{"type":"function","name":"lpLend","inputs":[],"outputs":[{"name":"","type":"address","internalType":"contract ILPLend"}],"stateMutability":"view"},{"type":"function","name":"onReceiveNFT","inputs":[{"name":"user","type":"address","internalType":"address"},{"name":"lpToken","type":"address","internalType":"address"},{"name":"tokenId","type":"uint256","internalType":"uint256"}],"outputs":[],"stateMutability":"nonpayable"},{"type":"function","name":"onReleaseNFT","inputs":[{"name":"user","type":"address","internalType":"address"},{"name":"lpToken","type":"address","internalType":"address"},{"name":"tokenId","type":"uint256","internalType":"uint256"}],"outputs":[],"stateMutability":"nonpayable"},{"type":"function","name":"owner","inputs":[],"outputs":[{"name":"","type":"address","internalType":"address"}],"stateMutability":"view"},{"type":"function","name":"previewProtTokenIds","inputs":[{"name":"lpToken","type":"address","internalType":"address"}],"outputs":[{"name":"","type":"uint256[]","internalType":"uint256[]"}],"stateMutability":"view"},{"type":"function","name":"previewProtTotalLPValuePerLPToken","inputs":[{"name":"lpToken","type":"address","internalType":"address"}],"outputs":[{"name":"protTotalLPValue","type":"uint256","internalType":"uint256"}],"stateMutability":"view"},{"type":"function","name":"previewProtTotalLoan","inputs":[],"outputs":[{"name":"protTotalLoan","type":"uint256","internalType":"uint256"}],"stateMutability":"view"},{"type":"function","name":"previewUserTokenIds","inputs":[{"name":"user","type":"address","internalType":"address"},{"name":"lpToken","type":"address","internalType":"address"}],"outputs":[{"name":"","type":"uint256[]","internalType":"uint256[]"}],"stateMutability":"view"},{"type":"function","name":"previewUserTotalLPValuePerLPToken","inputs":[{"name":"lpToken","type":"address","internalType":"address"},{"name":"user","type":"address","internalType":"address"}],"outputs":[{"name":"userTotalLPValue","type":"uint256","internalType":"uint256"}],"stateMutability":"view"},{"type":"function","name":"previewUserTotalLoanPerLPToken","inputs":[{"name":"lpToken","type":"address","internalType":"address"},{"name":"user","type":"address","internalType":"address"}],"outputs":[{"name":"userTotalLoan","type":"uint256","internalType":"uint256"}],"stateMutability":"view"},{"type":"function","name":"protTokenIds","inputs":[{"name":"lpToken","type":"address","internalType":"address"}],"outputs":[{"name":"Count","type":"uint256","internalType":"uint256"}],"stateMutability":"view"},{"type":"function","name":"protTotalLoanUpdate","inputs":[{"name":"lpToken","type":"address","internalType":"address"},{"name":"amount","type":"uint256","internalType":"uint256"},{"name":"isAdd","type":"bool","internalType":"bool"}],"outputs":[],"stateMutability":"nonpayable"},{"type":"function","name":"protTotalLoans","inputs":[{"name":"lpToken","type":"address","internalType":"address"}],"outputs":[{"name":"","type":"uint256","internalType":"uint256"}],"stateMutability":"view"},{"type":"function","name":"proxiableUUID","inputs":[],"outputs":[{"name":"","type":"bytes32","internalType":"bytes32"}],"stateMutability":"view"},{"type":"function","name":"removeLPTokenPeri","inputs":[{"name":"lpToken","type":"address","internalType":"address"}],"outputs":[],"stateMutability":"nonpayable"},{"type":"function","name":"removePoolPeri","inputs":[{"name":"lpToken","type":"address","internalType":"address"},{"name":"pool","type":"address","internalType":"address"}],"outputs":[],"stateMutability":"nonpayable"},{"type":"function","name":"renounceOwnership","inputs":[],"outputs":[],"stateMutability":"nonpayable"},{"type":"function","name":"supportLPTokens","inputs":[],"outputs":[{"name":"Count","type":"uint256","internalType":"uint256"}],"stateMutability":"view"},{"type":"function","name":"supportPools","inputs":[{"name":"lpToken","type":"address","internalType":"address"}],"outputs":[{"name":"Count","type":"uint256","internalType":"uint256"}],"stateMutability":"view"},{"type":"function","name":"transferOwnership","inputs":[{"name":"newOwner","type":"address","internalType":"address"}],"outputs":[],"stateMutability":"nonpayable"},{"type":"function","name":"updateLPLend","inputs":[{"name":"lpLand_","type":"address","internalType":"address"}],"outputs":[],"stateMutability":"nonpayable"},{"type":"function","name":"upgradeToAndCall","inputs":[{"name":"newImplementation","type":"address","internalType":"address"},{"name":"data","type":"bytes","internalType":"bytes"}],"outputs":[],"stateMutability":"payable"},{"type":"function","name":"userTokenIds","inputs":[{"name":"user","type":"address","internalType":"address"},{"name":"lpToken","type":"address","internalType":"address"}],"outputs":[{"name":"Count","type":"uint256","internalType":"uint256"}],"stateMutability":"view"},{"type":"event","name":"Initialized","inputs":[{"name":"version","type":"uint64","indexed":false,"internalType":"uint64"}],"anonymous":false},{"type":"event","name":"OwnershipTransferred","inputs":[{"name":"previousOwner","type":"address","indexed":true,"internalType":"address"},{"name":"newOwner","type":"address","indexed":true,"internalType":"address"}],"anonymous":false},{"type":"event","name":"Upgraded","inputs":[{"name":"implementation","type":"address","indexed":true,"internalType":"address"}],"anonymous":false},{"type":"error","name":"AddressEmptyCode","inputs":[{"name":"target","type":"address","internalType":"address"}]},{"type":"error","name":"ERC1967InvalidImplementation","inputs":[{"name":"implementation","type":"address","internalType":"address"}]},{"type":"error","name":"ERC1967NonPayable","inputs":[]},{"type":"error","name":"FailedInnerCall","inputs":[]},{"type":"error","name":"InvalidInitialization","inputs":[]},{"type":"error","name":"NotInitializing","inputs":[]},{"type":"error","name":"OwnableInvalidOwner","inputs":[{"name":"owner","type":"address","internalType":"address"}]},{"type":"error","name":"OwnableUnauthorizedAccount","inputs":[{"name":"account","type":"address","internalType":"address"}]},{"type":"error","name":"UUPSUnauthorizedCallContext","inputs":[]},{"type":"error","name":"UUPSUnsupportedProxiableUUID","inputs":[{"name":"slot","type":"bytes32","internalType":"bytes32"}]}],"bytecode":{"object":"0x60a06040523060805234801561001457600080fd5b50608051611df061003e600039600081816112470152818161127001526113a80152611df06000f3fe6080604052600436106101ae5760003560e01c80637e3ff944116100ed578063ad3cb1cc11610090578063ad3cb1cc146104f3578063ae74379b14610531578063b19aa68614610561578063b1c1e47814610581578063c4d66de8146105a1578063e393a970146105c1578063f2fde38b146105e1578063fa928e9814610601578063fe0b48551461061857600080fd5b80637e3ff944146103ec57806383beae5f1461041c5780638da5cb5b1461043c578063914adafe1461045157806396e7bf5f1461047e57806399ee00f914610493578063a028ab01146104b3578063aca760c6146104d357600080fd5b806358cfad8c1161015557806358cfad8c146102e85780635cf2e57c146103085780635f75c3c01461033557806361e5234a146103555780636e5f473e146103825780636e8b4b5114610397578063715018a6146103b7578063724dc8f4146103cc57600080fd5b80630209c51b146101b357806302c6ab0a146101d557806306af044a146101f5578063094dbdc014610243578063259a9900146102635780632600845b146102905780634f1ef286146102c057806352d1902d146102d3575b600080fd5b3480156101bf57600080fd5b506101d36101ce3660046119e2565b610667565b005b3480156101e157600080fd5b506101d36101f0366004611a15565b6106c0565b34801561020157600080fd5b506102306102103660046119e2565b600560209081526000928352604080842090915290825290206002015481565b6040519081526020015b60405180910390f35b34801561024f57600080fd5b506101d361025e366004611a30565b6106ea565b34801561026f57600080fd5b5061028361027e366004611a15565b61076a565b60405161023a9190611a6c565b34801561029c57600080fd5b506102b06102ab366004611a15565b610794565b604051901515815260200161023a565b6101d36102ce366004611acf565b6107a1565b3480156102df57600080fd5b506102306107bc565b3480156102f457600080fd5b506101d3610303366004611a15565b6107d9565b34801561031457600080fd5b50610328610323366004611a15565b610811565b60405161023a9190611b90565b34801561034157600080fd5b506101d3610350366004611a30565b610835565b34801561036157600080fd5b50600054610375906001600160a01b031681565b60405161023a9190611bc8565b34801561038e57600080fd5b506102306108b0565b3480156103a357600080fd5b506101d36103b23660046119e2565b610924565b3480156103c357600080fd5b506101d3610970565b3480156103d857600080fd5b506102306103e73660046119e2565b610984565b3480156103f857600080fd5b50610230610407366004611a15565b60066020526000908152604090206002015481565b34801561042857600080fd5b506103286104373660046119e2565b610a71565b34801561044857600080fd5b50610375610aa9565b34801561045d57600080fd5b5061023061046c366004611a15565b60076020526000908152604090205481565b34801561048a57600080fd5b50610283610ac4565b34801561049f57600080fd5b506101d36104ae366004611a15565b610ad5565b3480156104bf57600080fd5b506102b06104ce3660046119e2565b610b0a565b3480156104df57600080fd5b506102b06104ee366004611bdc565b610b2c565b3480156104ff57600080fd5b50610524604051806040016040528060058152602001640352e302e360dc1b81525081565b60405161023a9190611c2a565b34801561053d57600080fd5b5061023061054c366004611a15565b60046020526000908152604090206002015481565b34801561056d57600080fd5b5061023061057c3660046119e2565b610b57565b34801561058d57600080fd5b5061023061059c366004611a15565b610c62565b3480156105ad57600080fd5b506101d36105bc366004611a15565b610d3f565b3480156105cd57600080fd5b506101d36105dc366004611c5d565b610e41565b3480156105ed57600080fd5b506101d36105fc366004611a15565b610f0d565b34801561060d57600080fd5b506003546102309081565b34801561062457600080fd5b506102b0610633366004611a30565b6001600160a01b03928316600090815260056020908152604080832094909516825292835283812091815291522054151590565b6000546001600160a01b0316331461069a5760405162461bcd60e51b815260040161069190611ca2565b60405180910390fd5b6001600160a01b03821660009081526004602052604090206106bc9082610f48565b5050565b6106c8611051565b600080546001600160a01b0319166001600160a01b0392909216919091179055565b6000546001600160a01b031633146107145760405162461bcd60e51b815260040161069190611ca2565b6001600160a01b0380841660009081526005602090815260408083209386168352929052206107439082611083565b6001600160a01b03821660009081526006602052604090206107659082611083565b505050565b6001600160a01b038116600090815260046020526040902060609061078e90611158565b92915050565b600061078e60018361121e565b6107a961123c565b6107b2826112e1565b6106bc82826112e9565b60006107c661139d565b50600080516020611d9b83398151915290565b6000546001600160a01b031633146108035760405162461bcd60e51b815260040161069190611ca2565b61080e600182610f48565b50565b6001600160a01b038116600090815260066020526040902060609061078e906113e6565b6000546001600160a01b0316331461085f5760405162461bcd60e51b815260040161069190611ca2565b6001600160a01b03808416600090815260056020908152604080832093861683529290522061088e9082611486565b6001600160a01b03821660009081526006602052604090206107659082611486565b6000806108bd6001611158565b905060005b815181101561091f57600760008383815181106108e1576108e1611cca565b60200260200101516001600160a01b03166001600160a01b0316815260200190815260200160002054836109159190611cf6565b92506001016108c2565b505090565b6000546001600160a01b0316331461094e5760405162461bcd60e51b815260040161069190611ca2565b6001600160a01b03821660009081526004602052604090206106bc908261159f565b610978611051565b61098260006116ff565b565b6001600160a01b038082166000908152600560209081526040808320938616835292905290812081906109b6906113e6565b905060005b8151811015610a695760005482516001600160a01b039091169063390b2ec59087908590859081106109ef576109ef611cca565b60200260200101516040518363ffffffff1660e01b8152600401610a14929190611d09565b602060405180830381865afa158015610a31573d6000803e3d6000fd5b505050506040513d601f19601f82011682018060405250810190610a559190611d22565b610a5f9084611cf6565b92506001016109bb565b505092915050565b6001600160a01b038083166000908152600560209081526040808320938516835292905220606090610aa2906113e6565b9392505050565b600080610ab461175b565b546001600160a01b031692915050565b6060610ad06001611158565b905090565b6000546001600160a01b03163314610aff5760405162461bcd60e51b815260040161069190611ca2565b61080e60018261159f565b6001600160a01b0382166000908152600460205260408120610aa2908361121e565b6001600160a01b03821660009081526006602090815260408083208484529091528120541515610aa2565b6001600160a01b03808216600090815260056020908152604080832093861683529290529081208190610b89906113e6565b905060005b8151811015610a695760008054906101000a90046001600160a01b03166001600160a01b031663377fa1208587858581518110610bcd57610bcd611cca565b60209081029190910101516040516001600160e01b031960e086901b1681526001600160a01b0393841660048201529290911660248301526044820152606401602060405180830381865afa158015610c2a573d6000803e3d6000fd5b505050506040513d601f19601f82011682018060405250810190610c4e9190611d22565b610c589084611cf6565b9250600101610b8e565b6001600160a01b03811660009081526006602052604081208190610c85906113e6565b905060005b8151811015610d385760005482516001600160a01b039091169063390b2ec5908690859085908110610cbe57610cbe611cca565b60200260200101516040518363ffffffff1660e01b8152600401610ce3929190611d09565b602060405180830381865afa158015610d00573d6000803e3d6000fd5b505050506040513d601f19601f82011682018060405250810190610d249190611d22565b610d2e9084611cf6565b9250600101610c8a565b5050919050565b6000610d4961177f565b805490915060ff600160401b82041615906001600160401b0316600081158015610d705750825b90506000826001600160401b03166001148015610d8c5750303b155b905081158015610d9a575080155b15610db85760405163f92ee8a960e01b815260040160405180910390fd5b845467ffffffffffffffff191660011785558315610de257845460ff60401b1916600160401b1785555b610deb866117a3565b610df36117b4565b8315610e3957845460ff60401b19168555604051600181527fc7f505b2f371ae2175ee4913f4499e1f2633a7b5936321eed1cdaeb6115181d29060200160405180910390a15b505050505050565b6000546001600160a01b03163314610e6b5760405162461bcd60e51b815260040161069190611ca2565b8015610ea4576001600160a01b03831660009081526007602052604081208054849290610e99908490611cf6565b909155506107659050565b6001600160a01b038316600090815260076020526040902054821115610ecb576000610eef565b6001600160a01b038316600090815260076020526040902054610eef908390611d3b565b6001600160a01b038416600090815260076020526040902055505050565b610f15611051565b6001600160a01b038116610f3f576000604051631e4fbdf760e01b81526004016106919190611bc8565b61080e816116ff565b6001600160a01b038116610f955760405162461bcd60e51b81526020600482015260146024820152731a5b9d985b1a59081859191c995cdcd51bd0591960621b6044820152606401610691565b6001600160a01b03811660009081526020839052604090205415610ff85760405162461bcd60e51b815260206004820152601a6024820152791859191c995cdcd51bd0591908185b1c9958591e48185919195960321b6044820152606401610691565b60028201805490600061100a83611d4e565b909155505060028201546001600160a01b039091166000818152602084815260408083208590559382526001909401909352912080546001600160a01b0319169091179055565b3361105a610aa9565b6001600160a01b031614610982573360405163118cdaa760e01b81526004016106919190611bc8565b806000036110c55760405162461bcd60e51b815260206004820152600f60248201526e1a5b9d985b1a59081a59151bd05919608a1b6044820152606401610691565b600081815260208390526040902054156111195760405162461bcd60e51b81526020600482015260156024820152741a59151bd0591908185b1c9958591e481859191959605a1b6044820152606401610691565b60028201805490600061112b83611d4e565b90915550506002820154600082815260208481526040808320849055928252600190940190935290912055565b606081600201546001600160401b0381111561117657611176611ab9565b60405190808252806020026020018201604052801561119f578160200160208202803683370190505b50905060005b8260020154811015611218578260010160008260016111c49190611cf6565b815260200190815260200160002060009054906101000a90046001600160a01b03168282815181106111f8576111f8611cca565b6001600160a01b03909216602092830291909101909101526001016111a5565b50919050565b6001600160a01b031660009081526020919091526040902054151590565b306001600160a01b037f00000000000000000000000000000000000000000000000000000000000000001614806112c357507f00000000000000000000000000000000000000000000000000000000000000006001600160a01b03166112b7600080516020611d9b833981519152546001600160a01b031690565b6001600160a01b031614155b156109825760405163703e46dd60e11b815260040160405180910390fd5b61080e611051565b816001600160a01b03166352d1902d6040518163ffffffff1660e01b8152600401602060405180830381865afa925050508015611343575060408051601f3d908101601f1916820190925261134091810190611d22565b60015b6113625781604051634c9c8ce360e01b81526004016106919190611bc8565b600080516020611d9b833981519152811461139357604051632a87526960e21b815260048101829052602401610691565b61076583836117bc565b306001600160a01b037f000000000000000000000000000000000000000000000000000000000000000016146109825760405163703e46dd60e11b815260040160405180910390fd5b606081600201546001600160401b0381111561140457611404611ab9565b60405190808252806020026020018201604052801561142d578160200160208202803683370190505b50905060005b8260020154811015611218578260010160008260016114529190611cf6565b81526020019081526020016000205482828151811061147357611473611cca565b6020908102919091010152600101611433565b806000036114cb5760405162461bcd60e51b8152602060048201526012602482015271696e76616c6964206964546f52656d6f766560701b6044820152606401610691565b600081815260208390526040812054900361151f5760405162461bcd60e51b81526020600482015260146024820152731a59151bd4995b5bdd99481b9bdd08199bdd5b9960621b6044820152606401610691565b600081815260208390526040902054600283015480821461156357600081815260018501602090815260408083205485845281842081905583529086905290208290555b6000838152602085815260408083208390558383526001870190915281208190556002850180549161159483611d67565b919050555050505050565b6001600160a01b0381166115ef5760405162461bcd60e51b8152602060048201526017602482015276696e76616c69642061646472657373546f52656d6f766560481b6044820152606401610691565b6001600160a01b03811660009081526020839052604081205490036116525760405162461bcd60e51b81526020600482015260196024820152781859191c995cdcd51bd4995b5bdd99481b9bdd08199bdd5b99603a1b6044820152606401610691565b6001600160a01b03811660009081526020839052604090205460028301548082146116b957600081815260018501602090815260408083205485845281842080546001600160a01b0319166001600160a01b03909216918217905583529086905290208290555b6001600160a01b03831660009081526020858152604080832083905583835260018701909152812080546001600160a01b03191690556002850180549161159483611d67565b600061170961175b565b80546001600160a01b038481166001600160a01b031983168117845560405193945091169182907f8be0079c531659141344cd1fd0a4f28419497f9722a3daafe3b4186f6b6457e090600090a3505050565b7f9016d09d72d40fdae2fd8ceac6b6234c7706214fd39c1cd1e609a0528c19930090565b7ff0c57e16840df040f15088dc2f81fe391c3923bec73e23a9662efc9c229c6a0090565b6117ab611812565b61080e81611837565b610982611812565b6117c58261183f565b6040516001600160a01b038316907fbc7cd75a20ee27fd9adebab32041f755214dbc6bffa90cc0225b39da2e5c2d3b90600090a280511561180a57610765828261189b565b6106bc611911565b61181a611930565b61098257604051631afcd79f60e31b815260040160405180910390fd5b610f15611812565b806001600160a01b03163b60000361186c5780604051634c9c8ce360e01b81526004016106919190611bc8565b600080516020611d9b83398151915280546001600160a01b0319166001600160a01b0392909216919091179055565b6060600080846001600160a01b0316846040516118b89190611d7e565b600060405180830381855af49150503d80600081146118f3576040519150601f19603f3d011682016040523d82523d6000602084013e6118f8565b606091505b509150915061190885838361194a565b95945050505050565b34156109825760405163b398979f60e01b815260040160405180910390fd5b600061193a61177f565b54600160401b900460ff16919050565b60608261195f5761195a8261199d565b610aa2565b815115801561197657506001600160a01b0384163b155b156119965783604051639996b31560e01b81526004016106919190611bc8565b5080610aa2565b8051156119ad5780518082602001fd5b604051630a12f52160e11b815260040160405180910390fd5b80356001600160a01b03811681146119dd57600080fd5b919050565b600080604083850312156119f557600080fd5b6119fe836119c6565b9150611a0c602084016119c6565b90509250929050565b600060208284031215611a2757600080fd5b610aa2826119c6565b600080600060608486031215611a4557600080fd5b611a4e846119c6565b9250611a5c602085016119c6565b9150604084013590509250925092565b6020808252825182820181905260009190848201906040850190845b81811015611aad5783516001600160a01b031683529284019291840191600101611a88565b50909695505050505050565b634e487b7160e01b600052604160045260246000fd5b60008060408385031215611ae257600080fd5b611aeb836119c6565b915060208301356001600160401b0380821115611b0757600080fd5b818501915085601f830112611b1b57600080fd5b813581811115611b2d57611b2d611ab9565b604051601f8201601f19908116603f01168101908382118183101715611b5557611b55611ab9565b81604052828152886020848701011115611b6e57600080fd5b8260208601602083013760006020848301015280955050505050509250929050565b6020808252825182820181905260009190848201906040850190845b81811015611aad57835183529284019291840191600101611bac565b6001600160a01b0391909116815260200190565b60008060408385031215611bef57600080fd5b611bf8836119c6565b946020939093013593505050565b60005b83811015611c21578181015183820152602001611c09565b50506000910152565b6020815260008251806020840152611c49816040850160208701611c06565b601f01601f19169190910160400192915050565b600080600060608486031215611c7257600080fd5b611c7b846119c6565b92506020840135915060408401358015158114611c9757600080fd5b809150509250925092565b6020808252600e908201526d34b73b30b634b21031b0b63632b960911b604082015260600190565b634e487b7160e01b600052603260045260246000fd5b634e487b7160e01b600052601160045260246000fd5b8082018082111561078e5761078e611ce0565b6001600160a01b03929092168252602082015260400190565b600060208284031215611d3457600080fd5b5051919050565b8181038181111561078e5761078e611ce0565b600060018201611d6057611d60611ce0565b5060010190565b600081611d7657611d76611ce0565b506000190190565b60008251611d90818460208701611c06565b919091019291505056fe360894a13ba1a3210667c828492db98dca3e2076cc3735a920a3ca505d382bbca2646970667358221220998e4318f66b4e4b70a96af0564675590be4de9c6e8958a4b4904d00fa86fed964736f6c63430008180033","linkReferences":{}},"methodIdentifiers":{"UPGRADE_INTERFACE_VERSION()":"ad3cb1cc","addLPTokenPeri(address)":"58cfad8c","addPoolPeri(address,address)":"0209c51b","getIsLPTokenIn(address)":"2600845b","getIsPoolIn(address,address)":"a028ab01","getIsTokenIDInProt(address,uint256)":"aca760c6","getIsTokenIDInUser(address,address,uint256)":"fe0b4855","getSupportLPTokens()":"96e7bf5f","getSupportPoolsPerLPToken(address)":"259a9900","initialize(address)":"c4d66de8","lpLend()":"61e5234a","onReceiveNFT(address,address,uint256)":"094dbdc0","onReleaseNFT(address,address,uint256)":"5f75c3c0","owner()":"8da5cb5b","previewProtTokenIds(address)":"5cf2e57c","previewProtTotalLPValuePerLPToken(address)":"b1c1e478","previewProtTotalLoan()":"6e5f473e","previewUserTokenIds(address,address)":"83beae5f","previewUserTotalLPValuePerLPToken(address,address)":"724dc8f4","previewUserTotalLoanPerLPToken(address,address)":"b19aa686","protTokenIds(address)":"7e3ff944","protTotalLoanUpdate(address,uint256,bool)":"e393a970","protTotalLoans(address)":"914adafe","proxiableUUID()":"52d1902d","removeLPTokenPeri(address)":"99ee00f9","removePoolPeri(address,address)":"6e8b4b51","renounceOwnership()":"715018a6","supportLPTokens()":"fa928e98","supportPools(address)":"ae74379b","transferOwnership(address)":"f2fde38b","updateLPLend(address)":"02c6ab0a","upgradeToAndCall(address,bytes)":"4f1ef286","userTokenIds(address,address)":"06af044a"},"storageLayout":{"storage":[{"astId":72102,"contract":"src/periphery/Periphery.sol:Periphery","label":"lpLend","offset":0,"slot":"0","type":"t_contract(ILPLend)61696"},{"astId":72105,"contract":"src/periphery/Periphery.sol:Periphery","label":"supportLPTokens","offset":0,"slot":"1","type":"t_struct(AddressArray)68405_storage"},{"astId":72110,"contract":"src/periphery/Periphery.sol:Periphery","label":"supportPools","offset":0,"slot":"4","type":"t_mapping(t_address,t_struct(AddressArray)68405_storage)"},{"astId":72117,"contract":"src/periphery/Periphery.sol:Periphery","label":"userTokenIds","offset":0,"slot":"5","type":"t_mapping(t_address,t_mapping(t_address,t_struct(Uint256Array)68416_storage))"},{"astId":72122,"contract":"src/periphery/Periphery.sol:Periphery","label":"protTokenIds","offset":0,"slot":"6","type":"t_mapping(t_address,t_struct(Uint256Array)68416_storage)"},{"astId":72126,"contract":"src/periphery/Periphery.sol:Periphery","label":"protTotalLoans","offset":0,"slot":"7","type":"t_mapping(t_address,t_uint256)"}],"types":{"t_address":{"encoding":"inplace","label":"address","numberOfBytes":"20"},"t_contract(ILPLend)61696":{"encoding":"inplace","label":"contract ILPLend","numberOfBytes":"20"},"t_mapping(t_address,t_mapping(t_address,t_struct(Uint256Array)68416_storage))":{"encoding":"mapping","key":"t_address","label":"mapping(address => mapping(address => struct DataType.Uint256Array))","numberOfBytes":"32","value":"t_mapping(t_address,t_struct(Uint256Array)68416_storage)"},"t_mapping(t_address,t_struct(AddressArray)68405_storage)":{"encoding":"mapping","key":"t_address","label":"mapping(address => struct DataType.AddressArray)","numberOfBytes":"32","value":"t_struct(AddressArray)68405_storage"},"t_mapping(t_address,t_struct(Uint256Array)68416_storage)":{"encoding":"mapping","key":"t_address","label":"mapping(address => struct DataType.Uint256Array)","numberOfBytes":"32","value":"t_struct(Uint256Array)68416_storage"},"t_mapping(t_address,t_uint256)":{"encoding":"mapping","key":"t_address","label":"mapping(address => uint256)","numberOfBytes":"32","value":"t_uint256"},"t_mapping(t_uint256,t_address)":{"encoding":"mapping","key":"t_uint256","label":"mapping(uint256 => address)","numberOfBytes":"32","value":"t_address"},"t_mapping(t_uint256,t_uint256)":{"encoding":"mapping","key":"t_uint256","label":"mapping(uint256 => uint256)","numberOfBytes":"32","value":"t_uint256"},"t_struct(AddressArray)68405_storage":{"encoding":"inplace","label":"struct DataType.AddressArray","numberOfBytes":"96","members":[{"astId":68398,"contract":"src/periphery/Periphery.sol:Periphery","label":"TokenIndex","offset":0,"slot":"0","type":"t_mapping(t_address,t_uint256)"},{"astId":68402,"contract":"src/periphery/Periphery.sol:Periphery","label":"IndexToken","offset":0,"slot":"1","type":"t_mapping(t_uint256,t_address)"},{"astId":68404,"contract":"src/periphery/Periphery.sol:Periphery","label":"Count","offset":0,"slot":"2","type":"t_uint256"}]},"t_struct(Uint256Array)68416_storage":{"encoding":"inplace","label":"struct DataType.Uint256Array","numberOfBytes":"96","members":[{"astId":68409,"contract":"src/periphery/Periphery.sol:Periphery","label":"IdIndex","offset":0,"slot":"0","type":"t_mapping(t_uint256,t_uint256)"},{"astId":68413,"contract":"src/periphery/Periphery.sol:Periphery","label":"IndexId","offset":0,"slot":"1","type":"t_mapping(t_uint256,t_uint256)"},{"astId":68415,"contract":"src/periphery/Periphery.sol:Periphery","label":"Count","offset":0,"slot":"2","type":"t_uint256"}]},"t_uint256":{"encoding":"inplace","label":"uint256","numberOfBytes":"32"}}},"id":111}