{"abi":[{"type":"function","name":"UPGRADE_INTERFACE_VERSION","inputs":[],"outputs":[{"name":"","type":"string","internalType":"string"}],"stateMutability":"view"},{"type":"function","name":"addLPTokenPeri","inputs":[{"name":"lpToken","type":"address","internalType":"address"}],"outputs":[],"stateMutability":"nonpayable"},{"type":"function","name":"addPoolPeri","inputs":[{"name":"lpToken","type":"address","internalType":"address"},{"name":"pool","type":"address","internalType":"address"}],"outputs":[],"stateMutability":"nonpayable"},{"type":"function","name":"getIsLPTokenIn","inputs":[{"name":"lpToken","type":"address","internalType":"address"}],"outputs":[{"name":"","type":"bool","internalType":"bool"}],"stateMutability":"view"},{"type":"function","name":"getIsPoolIn","inputs":[{"name":"lpToken","type":"address","internalType":"address"},{"name":"pool","type":"address","internalType":"address"}],"outputs":[{"name":"","type":"bool","internalType":"bool"}],"stateMutability":"view"},{"type":"function","name":"getIsTokenIDInProt","inputs":[{"name":"lpToken","type":"address","internalType":"address"},{"name":"tokenId","type":"uint256","internalType":"uint256"}],"outputs":[{"name":"","type":"bool","internalType":"bool"}],"stateMutability":"view"},{"type":"function","name":"getIsTokenIDInUser","inputs":[{"name":"user","type":"address","internalType":"address"},{"name":"lpToken","type":"address","internalType":"address"},{"name":"tokenId","type":"uint256","internalType":"uint256"}],"outputs":[{"name":"","type":"bool","internalType":"bool"}],"stateMutability":"view"},{"type":"function","name":"getSupportLPTokens","inputs":[],"outputs":[{"name":"","type":"address[]","internalType":"address[]"}],"stateMutability":"view"},{"type":"function","name":"getSupportPoolsPerLPToken","inputs":[{"name":"lpToken","type":"address","internalType":"address"}],"outputs":[{"name":"","type":"address[]","internalType":"address[]"}],"stateMutability":"view"},{"type":"function","name":"initialize","inputs":[{"name":"owner_","type":"address","internalType":"address"}],"outputs":[],"stateMutability":"nonpayable"},{"type":"function","name":"lpLend","inputs":[],"outputs":[{"name":"","type":"address","internalType":"contract ILPLend"}],"stateMutability":"view"},{"type":"function","name":"onReceiveNFT","inputs":[{"name":"user","type":"address","internalType":"address"},{"name":"lpToken","type":"address","internalType":"address"},{"name":"tokenId","type":"uint256","internalType":"uint256"}],"outputs":[],"stateMutability":"nonpayable"},{"type":"function","name":"onReleaseNFT","inputs":[{"name":"user","type":"address","internalType":"address"},{"name":"lpToken","type":"address","internalType":"address"},{"name":"tokenId","type":"uint256","internalType":"uint256"}],"outputs":[],"stateMutability":"nonpayable"},{"type":"function","name":"owner","inputs":[],"outputs":[{"name":"","type":"address","internalType":"address"}],"stateMutability":"view"},{"type":"function","name":"previewProtTotalLPValuePerLPToken","inputs":[{"name":"lpToken","type":"address","internalType":"address"}],"outputs":[{"name":"protTotalLPValue","type":"uint256","internalType":"uint256"}],"stateMutability":"view"},{"type":"function","name":"previewProtTotalLoan","inputs":[],"outputs":[{"name":"protTotalLoan","type":"uint256","internalType":"uint256"}],"stateMutability":"view"},{"type":"function","name":"previewUserTotalLPValuePerLPToken","inputs":[{"name":"lpToken","type":"address","internalType":"address"},{"name":"user","type":"address","internalType":"address"}],"outputs":[{"name":"userTotalLPValue","type":"uint256","internalType":"uint256"}],"stateMutability":"view"},{"type":"function","name":"previewUserTotalLoanPerLPToken","inputs":[{"name":"lpToken","type":"address","internalType":"address"},{"name":"user","type":"address","internalType":"address"}],"outputs":[{"name":"userTotalLoan","type":"uint256","internalType":"uint256"}],"stateMutability":"view"},{"type":"function","name":"protTokenIds","inputs":[{"name":"lpToken","type":"address","internalType":"address"}],"outputs":[{"name":"Count","type":"uint256","internalType":"uint256"}],"stateMutability":"view"},{"type":"function","name":"protTotalLoanUpdate","inputs":[{"name":"lpToken","type":"address","internalType":"address"},{"name":"amount","type":"uint256","internalType":"uint256"},{"name":"isAdd","type":"bool","internalType":"bool"}],"outputs":[],"stateMutability":"nonpayable"},{"type":"function","name":"protTotalLoans","inputs":[{"name":"lpToken","type":"address","internalType":"address"}],"outputs":[{"name":"","type":"uint256","internalType":"uint256"}],"stateMutability":"view"},{"type":"function","name":"proxiableUUID","inputs":[],"outputs":[{"name":"","type":"bytes32","internalType":"bytes32"}],"stateMutability":"view"},{"type":"function","name":"removeLPTokenPeri","inputs":[{"name":"lpToken","type":"address","internalType":"address"}],"outputs":[],"stateMutability":"nonpayable"},{"type":"function","name":"removePoolPeri","inputs":[{"name":"lpToken","type":"address","internalType":"address"},{"name":"pool","type":"address","internalType":"address"}],"outputs":[],"stateMutability":"nonpayable"},{"type":"function","name":"renounceOwnership","inputs":[],"outputs":[],"stateMutability":"nonpayable"},{"type":"function","name":"supportLPTokens","inputs":[],"outputs":[{"name":"Count","type":"uint256","internalType":"uint256"}],"stateMutability":"view"},{"type":"function","name":"supportPools","inputs":[{"name":"lpToken","type":"address","internalType":"address"}],"outputs":[{"name":"Count","type":"uint256","internalType":"uint256"}],"stateMutability":"view"},{"type":"function","name":"transferOwnership","inputs":[{"name":"newOwner","type":"address","internalType":"address"}],"outputs":[],"stateMutability":"nonpayable"},{"type":"function","name":"updateLPLend","inputs":[{"name":"lpLand_","type":"address","internalType":"address"}],"outputs":[],"stateMutability":"nonpayable"},{"type":"function","name":"upgradeToAndCall","inputs":[{"name":"newImplementation","type":"address","internalType":"address"},{"name":"data","type":"bytes","internalType":"bytes"}],"outputs":[],"stateMutability":"payable"},{"type":"function","name":"userTokenIds","inputs":[{"name":"user","type":"address","internalType":"address"},{"name":"lpToken","type":"address","internalType":"address"}],"outputs":[{"name":"Count","type":"uint256","internalType":"uint256"}],"stateMutability":"view"},{"type":"event","name":"Initialized","inputs":[{"name":"version","type":"uint64","indexed":false,"internalType":"uint64"}],"anonymous":false},{"type":"event","name":"OwnershipTransferred","inputs":[{"name":"previousOwner","type":"address","indexed":true,"internalType":"address"},{"name":"newOwner","type":"address","indexed":true,"internalType":"address"}],"anonymous":false},{"type":"event","name":"Upgraded","inputs":[{"name":"implementation","type":"address","indexed":true,"internalType":"address"}],"anonymous":false},{"type":"error","name":"AddressEmptyCode","inputs":[{"name":"target","type":"address","internalType":"address"}]},{"type":"error","name":"ERC1967InvalidImplementation","inputs":[{"name":"implementation","type":"address","internalType":"address"}]},{"type":"error","name":"ERC1967NonPayable","inputs":[]},{"type":"error","name":"FailedInnerCall","inputs":[]},{"type":"error","name":"InvalidInitialization","inputs":[]},{"type":"error","name":"NotInitializing","inputs":[]},{"type":"error","name":"OwnableInvalidOwner","inputs":[{"name":"owner","type":"address","internalType":"address"}]},{"type":"error","name":"OwnableUnauthorizedAccount","inputs":[{"name":"account","type":"address","internalType":"address"}]},{"type":"error","name":"UUPSUnauthorizedCallContext","inputs":[]},{"type":"error","name":"UUPSUnsupportedProxiableUUID","inputs":[{"name":"slot","type":"bytes32","internalType":"bytes32"}]}],"bytecode":{"object":"0x60a06040523060805234801561001457600080fd5b50608051611cf061003e6000396000818161117f015281816111a801526112e00152611cf06000f3fe6080604052600436106101885760003560e01c80637e3ff944116100e2578063ae74379b11610085578063ae74379b146104be578063b19aa686146104ee578063b1c1e4781461050e578063c4d66de81461052e578063e393a9701461054e578063f2fde38b1461056e578063fa928e981461058e578063fe0b4855146105a557600080fd5b80637e3ff944146103995780638da5cb5b146103c9578063914adafe146103de57806396e7bf5f1461040b57806399ee00f914610420578063a028ab0114610440578063aca760c614610460578063ad3cb1cc1461048057600080fd5b80630209c51b1461018d57806302c6ab0a146101af57806306af044a146101cf578063094dbdc01461021d578063259a99001461023d5780632600845b1461026a5780634f1ef2861461029a57806352d1902d146102ad57806358cfad8c146102c25780635f75c3c0146102e257806361e5234a146103025780636e5f473e1461032f5780636e8b4b5114610344578063715018a614610364578063724dc8f414610379575b600080fd5b34801561019957600080fd5b506101ad6101a836600461191a565b6105f4565b005b3480156101bb57600080fd5b506101ad6101ca36600461194d565b61064d565b3480156101db57600080fd5b5061020a6101ea36600461191a565b600560209081526000928352604080842090915290825290206002015481565b6040519081526020015b60405180910390f35b34801561022957600080fd5b506101ad610238366004611968565b610677565b34801561024957600080fd5b5061025d61025836600461194d565b6106f7565b60405161021491906119a4565b34801561027657600080fd5b5061028a61028536600461194d565b610721565b6040519015158152602001610214565b6101ad6102a8366004611a07565b61072e565b3480156102b957600080fd5b5061020a610749565b3480156102ce57600080fd5b506101ad6102dd36600461194d565b610766565b3480156102ee57600080fd5b506101ad6102fd366004611968565b61079e565b34801561030e57600080fd5b50600054610322906001600160a01b031681565b6040516102149190611ac8565b34801561033b57600080fd5b5061020a610819565b34801561035057600080fd5b506101ad61035f36600461191a565b61088d565b34801561037057600080fd5b506101ad6108d9565b34801561038557600080fd5b5061020a61039436600461191a565b6108ed565b3480156103a557600080fd5b5061020a6103b436600461194d565b60066020526000908152604090206002015481565b3480156103d557600080fd5b506103226109da565b3480156103ea57600080fd5b5061020a6103f936600461194d565b60076020526000908152604090205481565b34801561041757600080fd5b5061025d6109f5565b34801561042c57600080fd5b506101ad61043b36600461194d565b610a06565b34801561044c57600080fd5b5061028a61045b36600461191a565b610a3b565b34801561046c57600080fd5b5061028a61047b366004611adc565b610a64565b34801561048c57600080fd5b506104b1604051806040016040528060058152602001640352e302e360dc1b81525081565b6040516102149190611b2a565b3480156104ca57600080fd5b5061020a6104d936600461194d565b60046020526000908152604090206002015481565b3480156104fa57600080fd5b5061020a61050936600461191a565b610a8f565b34801561051a57600080fd5b5061020a61052936600461194d565b610b9a565b34801561053a57600080fd5b506101ad61054936600461194d565b610c77565b34801561055a57600080fd5b506101ad610569366004611b5d565b610d79565b34801561057a57600080fd5b506101ad61058936600461194d565b610e45565b34801561059a57600080fd5b5060035461020a9081565b3480156105b157600080fd5b5061028a6105c0366004611968565b6001600160a01b03928316600090815260056020908152604080832094909516825292835283812091815291522054151590565b6000546001600160a01b031633146106275760405162461bcd60e51b815260040161061e90611ba2565b60405180910390fd5b6001600160a01b03821660009081526004602052604090206106499082610e80565b5050565b610655610f89565b600080546001600160a01b0319166001600160a01b0392909216919091179055565b6000546001600160a01b031633146106a15760405162461bcd60e51b815260040161061e90611ba2565b6001600160a01b0380841660009081526005602090815260408083209386168352929052206106d09082610fbb565b6001600160a01b03821660009081526006602052604090206106f29082610fbb565b505050565b6001600160a01b038116600090815260046020526040902060609061071b90611090565b92915050565b600061071b600183611156565b610736611174565b61073f82611219565b6106498282611221565b60006107536112d5565b50600080516020611c9b83398151915290565b6000546001600160a01b031633146107905760405162461bcd60e51b815260040161061e90611ba2565b61079b600182610e80565b50565b6000546001600160a01b031633146107c85760405162461bcd60e51b815260040161061e90611ba2565b6001600160a01b0380841660009081526005602090815260408083209386168352929052206107f7908261131e565b6001600160a01b03821660009081526006602052604090206106f2908261131e565b6000806108266001611090565b905060005b8151811015610888576007600083838151811061084a5761084a611bca565b60200260200101516001600160a01b03166001600160a01b03168152602001908152602001600020548361087e9190611bf6565b925060010161082b565b505090565b6000546001600160a01b031633146108b75760405162461bcd60e51b815260040161061e90611ba2565b6001600160a01b03821660009081526004602052604090206106499082611437565b6108e1610f89565b6108eb6000611597565b565b6001600160a01b0380821660009081526005602090815260408083209386168352929052908120819061091f906115f3565b905060005b81518110156109d25760005482516001600160a01b039091169063390b2ec590879085908590811061095857610958611bca565b60200260200101516040518363ffffffff1660e01b815260040161097d929190611c09565b602060405180830381865afa15801561099a573d6000803e3d6000fd5b505050506040513d601f19601f820116820180604052508101906109be9190611c22565b6109c89084611bf6565b9250600101610924565b505092915050565b6000806109e5611693565b546001600160a01b031692915050565b6060610a016001611090565b905090565b6000546001600160a01b03163314610a305760405162461bcd60e51b815260040161061e90611ba2565b61079b600182611437565b6001600160a01b0382166000908152600460205260408120610a5d9083611156565b9392505050565b6001600160a01b03821660009081526006602090815260408083208484529091528120541515610a5d565b6001600160a01b03808216600090815260056020908152604080832093861683529290529081208190610ac1906115f3565b905060005b81518110156109d25760008054906101000a90046001600160a01b03166001600160a01b031663377fa1208587858581518110610b0557610b05611bca565b60209081029190910101516040516001600160e01b031960e086901b1681526001600160a01b0393841660048201529290911660248301526044820152606401602060405180830381865afa158015610b62573d6000803e3d6000fd5b505050506040513d601f19601f82011682018060405250810190610b869190611c22565b610b909084611bf6565b9250600101610ac6565b6001600160a01b03811660009081526006602052604081208190610bbd906115f3565b905060005b8151811015610c705760005482516001600160a01b039091169063390b2ec5908690859085908110610bf657610bf6611bca565b60200260200101516040518363ffffffff1660e01b8152600401610c1b929190611c09565b602060405180830381865afa158015610c38573d6000803e3d6000fd5b505050506040513d601f19601f82011682018060405250810190610c5c9190611c22565b610c669084611bf6565b9250600101610bc2565b5050919050565b6000610c816116b7565b805490915060ff600160401b82041615906001600160401b0316600081158015610ca85750825b90506000826001600160401b03166001148015610cc45750303b155b905081158015610cd2575080155b15610cf05760405163f92ee8a960e01b815260040160405180910390fd5b845467ffffffffffffffff191660011785558315610d1a57845460ff60401b1916600160401b1785555b610d23866116db565b610d2b6116ec565b8315610d7157845460ff60401b19168555604051600181527fc7f505b2f371ae2175ee4913f4499e1f2633a7b5936321eed1cdaeb6115181d29060200160405180910390a15b505050505050565b6000546001600160a01b03163314610da35760405162461bcd60e51b815260040161061e90611ba2565b8015610ddc576001600160a01b03831660009081526007602052604081208054849290610dd1908490611bf6565b909155506106f29050565b6001600160a01b038316600090815260076020526040902054821115610e03576000610e27565b6001600160a01b038316600090815260076020526040902054610e27908390611c3b565b6001600160a01b038416600090815260076020526040902055505050565b610e4d610f89565b6001600160a01b038116610e77576000604051631e4fbdf760e01b815260040161061e9190611ac8565b61079b81611597565b6001600160a01b038116610ecd5760405162461bcd60e51b81526020600482015260146024820152731a5b9d985b1a59081859191c995cdcd51bd0591960621b604482015260640161061e565b6001600160a01b03811660009081526020839052604090205415610f305760405162461bcd60e51b815260206004820152601a6024820152791859191c995cdcd51bd0591908185b1c9958591e48185919195960321b604482015260640161061e565b600282018054906000610f4283611c4e565b909155505060028201546001600160a01b039091166000818152602084815260408083208590559382526001909401909352912080546001600160a01b0319169091179055565b33610f926109da565b6001600160a01b0316146108eb573360405163118cdaa760e01b815260040161061e9190611ac8565b80600003610ffd5760405162461bcd60e51b815260206004820152600f60248201526e1a5b9d985b1a59081a59151bd05919608a1b604482015260640161061e565b600081815260208390526040902054156110515760405162461bcd60e51b81526020600482015260156024820152741a59151bd0591908185b1c9958591e481859191959605a1b604482015260640161061e565b60028201805490600061106383611c4e565b90915550506002820154600082815260208481526040808320849055928252600190940190935290912055565b606081600201546001600160401b038111156110ae576110ae6119f1565b6040519080825280602002602001820160405280156110d7578160200160208202803683370190505b50905060005b8260020154811015611150578260010160008260016110fc9190611bf6565b815260200190815260200160002060009054906101000a90046001600160a01b031682828151811061113057611130611bca565b6001600160a01b03909216602092830291909101909101526001016110dd565b50919050565b6001600160a01b031660009081526020919091526040902054151590565b306001600160a01b037f00000000000000000000000000000000000000000000000000000000000000001614806111fb57507f00000000000000000000000000000000000000000000000000000000000000006001600160a01b03166111ef600080516020611c9b833981519152546001600160a01b031690565b6001600160a01b031614155b156108eb5760405163703e46dd60e11b815260040160405180910390fd5b61079b610f89565b816001600160a01b03166352d1902d6040518163ffffffff1660e01b8152600401602060405180830381865afa92505050801561127b575060408051601f3d908101601f1916820190925261127891810190611c22565b60015b61129a5781604051634c9c8ce360e01b815260040161061e9190611ac8565b600080516020611c9b83398151915281146112cb57604051632a87526960e21b81526004810182905260240161061e565b6106f283836116f4565b306001600160a01b037f000000000000000000000000000000000000000000000000000000000000000016146108eb5760405163703e46dd60e11b815260040160405180910390fd5b806000036113635760405162461bcd60e51b8152602060048201526012602482015271696e76616c6964206964546f52656d6f766560701b604482015260640161061e565b60008181526020839052604081205490036113b75760405162461bcd60e51b81526020600482015260146024820152731a59151bd4995b5bdd99481b9bdd08199bdd5b9960621b604482015260640161061e565b60008181526020839052604090205460028301548082146113fb57600081815260018501602090815260408083205485845281842081905583529086905290208290555b6000838152602085815260408083208390558383526001870190915281208190556002850180549161142c83611c67565b919050555050505050565b6001600160a01b0381166114875760405162461bcd60e51b8152602060048201526017602482015276696e76616c69642061646472657373546f52656d6f766560481b604482015260640161061e565b6001600160a01b03811660009081526020839052604081205490036114ea5760405162461bcd60e51b81526020600482015260196024820152781859191c995cdcd51bd4995b5bdd99481b9bdd08199bdd5b99603a1b604482015260640161061e565b6001600160a01b038116600090815260208390526040902054600283015480821461155157600081815260018501602090815260408083205485845281842080546001600160a01b0319166001600160a01b03909216918217905583529086905290208290555b6001600160a01b03831660009081526020858152604080832083905583835260018701909152812080546001600160a01b03191690556002850180549161142c83611c67565b60006115a1611693565b80546001600160a01b038481166001600160a01b031983168117845560405193945091169182907f8be0079c531659141344cd1fd0a4f28419497f9722a3daafe3b4186f6b6457e090600090a3505050565b606081600201546001600160401b03811115611611576116116119f1565b60405190808252806020026020018201604052801561163a578160200160208202803683370190505b50905060005b82600201548110156111505782600101600082600161165f9190611bf6565b81526020019081526020016000205482828151811061168057611680611bca565b6020908102919091010152600101611640565b7f9016d09d72d40fdae2fd8ceac6b6234c7706214fd39c1cd1e609a0528c19930090565b7ff0c57e16840df040f15088dc2f81fe391c3923bec73e23a9662efc9c229c6a0090565b6116e361174a565b61079b8161176f565b6108eb61174a565b6116fd82611777565b6040516001600160a01b038316907fbc7cd75a20ee27fd9adebab32041f755214dbc6bffa90cc0225b39da2e5c2d3b90600090a2805115611742576106f282826117d3565b610649611849565b611752611868565b6108eb57604051631afcd79f60e31b815260040160405180910390fd5b610e4d61174a565b806001600160a01b03163b6000036117a45780604051634c9c8ce360e01b815260040161061e9190611ac8565b600080516020611c9b83398151915280546001600160a01b0319166001600160a01b0392909216919091179055565b6060600080846001600160a01b0316846040516117f09190611c7e565b600060405180830381855af49150503d806000811461182b576040519150601f19603f3d011682016040523d82523d6000602084013e611830565b606091505b5091509150611840858383611882565b95945050505050565b34156108eb5760405163b398979f60e01b815260040160405180910390fd5b60006118726116b7565b54600160401b900460ff16919050565b60608261189757611892826118d5565b610a5d565b81511580156118ae57506001600160a01b0384163b155b156118ce5783604051639996b31560e01b815260040161061e9190611ac8565b5080610a5d565b8051156118e55780518082602001fd5b604051630a12f52160e11b815260040160405180910390fd5b80356001600160a01b038116811461191557600080fd5b919050565b6000806040838503121561192d57600080fd5b611936836118fe565b9150611944602084016118fe565b90509250929050565b60006020828403121561195f57600080fd5b610a5d826118fe565b60008060006060848603121561197d57600080fd5b611986846118fe565b9250611994602085016118fe565b9150604084013590509250925092565b6020808252825182820181905260009190848201906040850190845b818110156119e55783516001600160a01b0316835292840192918401916001016119c0565b50909695505050505050565b634e487b7160e01b600052604160045260246000fd5b60008060408385031215611a1a57600080fd5b611a23836118fe565b915060208301356001600160401b0380821115611a3f57600080fd5b818501915085601f830112611a5357600080fd5b813581811115611a6557611a656119f1565b604051601f8201601f19908116603f01168101908382118183101715611a8d57611a8d6119f1565b81604052828152886020848701011115611aa657600080fd5b8260208601602083013760006020848301015280955050505050509250929050565b6001600160a01b0391909116815260200190565b60008060408385031215611aef57600080fd5b611af8836118fe565b946020939093013593505050565b60005b83811015611b21578181015183820152602001611b09565b50506000910152565b6020815260008251806020840152611b49816040850160208701611b06565b601f01601f19169190910160400192915050565b600080600060608486031215611b7257600080fd5b611b7b846118fe565b92506020840135915060408401358015158114611b9757600080fd5b809150509250925092565b6020808252600e908201526d34b73b30b634b21031b0b63632b960911b604082015260600190565b634e487b7160e01b600052603260045260246000fd5b634e487b7160e01b600052601160045260246000fd5b8082018082111561071b5761071b611be0565b6001600160a01b03929092168252602082015260400190565b600060208284031215611c3457600080fd5b5051919050565b8181038181111561071b5761071b611be0565b600060018201611c6057611c60611be0565b5060010190565b600081611c7657611c76611be0565b506000190190565b60008251611c90818460208701611b06565b919091019291505056fe360894a13ba1a3210667c828492db98dca3e2076cc3735a920a3ca505d382bbca26469706673582212204132be0778f1c55d20fa514fc881067e1468cc8bc035538d260598b7ae96464264736f6c63430008180033","linkReferences":{}},"methodIdentifiers":{"UPGRADE_INTERFACE_VERSION()":"ad3cb1cc","addLPTokenPeri(address)":"58cfad8c","addPoolPeri(address,address)":"0209c51b","getIsLPTokenIn(address)":"2600845b","getIsPoolIn(address,address)":"a028ab01","getIsTokenIDInProt(address,uint256)":"aca760c6","getIsTokenIDInUser(address,address,uint256)":"fe0b4855","getSupportLPTokens()":"96e7bf5f","getSupportPoolsPerLPToken(address)":"259a9900","initialize(address)":"c4d66de8","lpLend()":"61e5234a","onReceiveNFT(address,address,uint256)":"094dbdc0","onReleaseNFT(address,address,uint256)":"5f75c3c0","owner()":"8da5cb5b","previewProtTotalLPValuePerLPToken(address)":"b1c1e478","previewProtTotalLoan()":"6e5f473e","previewUserTotalLPValuePerLPToken(address,address)":"724dc8f4","previewUserTotalLoanPerLPToken(address,address)":"b19aa686","protTokenIds(address)":"7e3ff944","protTotalLoanUpdate(address,uint256,bool)":"e393a970","protTotalLoans(address)":"914adafe","proxiableUUID()":"52d1902d","removeLPTokenPeri(address)":"99ee00f9","removePoolPeri(address,address)":"6e8b4b51","renounceOwnership()":"715018a6","supportLPTokens()":"fa928e98","supportPools(address)":"ae74379b","transferOwnership(address)":"f2fde38b","updateLPLend(address)":"02c6ab0a","upgradeToAndCall(address,bytes)":"4f1ef286","userTokenIds(address,address)":"06af044a"},"storageLayout":{"storage":[{"astId":71917,"contract":"src/periphery/Periphery.sol:Periphery","label":"lpLend","offset":0,"slot":"0","type":"t_contract(ILPLend)61511"},{"astId":71920,"contract":"src/periphery/Periphery.sol:Periphery","label":"supportLPTokens","offset":0,"slot":"1","type":"t_struct(AddressArray)68220_storage"},{"astId":71925,"contract":"src/periphery/Periphery.sol:Periphery","label":"supportPools","offset":0,"slot":"4","type":"t_mapping(t_address,t_struct(AddressArray)68220_storage)"},{"astId":71932,"contract":"src/periphery/Periphery.sol:Periphery","label":"userTokenIds","offset":0,"slot":"5","type":"t_mapping(t_address,t_mapping(t_address,t_struct(Uint256Array)68231_storage))"},{"astId":71937,"contract":"src/periphery/Periphery.sol:Periphery","label":"protTokenIds","offset":0,"slot":"6","type":"t_mapping(t_address,t_struct(Uint256Array)68231_storage)"},{"astId":71941,"contract":"src/periphery/Periphery.sol:Periphery","label":"protTotalLoans","offset":0,"slot":"7","type":"t_mapping(t_address,t_uint256)"}],"types":{"t_address":{"encoding":"inplace","label":"address","numberOfBytes":"20"},"t_contract(ILPLend)61511":{"encoding":"inplace","label":"contract ILPLend","numberOfBytes":"20"},"t_mapping(t_address,t_mapping(t_address,t_struct(Uint256Array)68231_storage))":{"encoding":"mapping","key":"t_address","label":"mapping(address => mapping(address => struct DataType.Uint256Array))","numberOfBytes":"32","value":"t_mapping(t_address,t_struct(Uint256Array)68231_storage)"},"t_mapping(t_address,t_struct(AddressArray)68220_storage)":{"encoding":"mapping","key":"t_address","label":"mapping(address => struct DataType.AddressArray)","numberOfBytes":"32","value":"t_struct(AddressArray)68220_storage"},"t_mapping(t_address,t_struct(Uint256Array)68231_storage)":{"encoding":"mapping","key":"t_address","label":"mapping(address => struct DataType.Uint256Array)","numberOfBytes":"32","value":"t_struct(Uint256Array)68231_storage"},"t_mapping(t_address,t_uint256)":{"encoding":"mapping","key":"t_address","label":"mapping(address => uint256)","numberOfBytes":"32","value":"t_uint256"},"t_mapping(t_uint256,t_address)":{"encoding":"mapping","key":"t_uint256","label":"mapping(uint256 => address)","numberOfBytes":"32","value":"t_address"},"t_mapping(t_uint256,t_uint256)":{"encoding":"mapping","key":"t_uint256","label":"mapping(uint256 => uint256)","numberOfBytes":"32","value":"t_uint256"},"t_struct(AddressArray)68220_storage":{"encoding":"inplace","label":"struct DataType.AddressArray","numberOfBytes":"96","members":[{"astId":68213,"contract":"src/periphery/Periphery.sol:Periphery","label":"TokenIndex","offset":0,"slot":"0","type":"t_mapping(t_address,t_uint256)"},{"astId":68217,"contract":"src/periphery/Periphery.sol:Periphery","label":"IndexToken","offset":0,"slot":"1","type":"t_mapping(t_uint256,t_address)"},{"astId":68219,"contract":"src/periphery/Periphery.sol:Periphery","label":"Count","offset":0,"slot":"2","type":"t_uint256"}]},"t_struct(Uint256Array)68231_storage":{"encoding":"inplace","label":"struct DataType.Uint256Array","numberOfBytes":"96","members":[{"astId":68224,"contract":"src/periphery/Periphery.sol:Periphery","label":"IdIndex","offset":0,"slot":"0","type":"t_mapping(t_uint256,t_uint256)"},{"astId":68228,"contract":"src/periphery/Periphery.sol:Periphery","label":"IndexId","offset":0,"slot":"1","type":"t_mapping(t_uint256,t_uint256)"},{"astId":68230,"contract":"src/periphery/Periphery.sol:Periphery","label":"Count","offset":0,"slot":"2","type":"t_uint256"}]},"t_uint256":{"encoding":"inplace","label":"uint256","numberOfBytes":"32"}}},"id":111}