{"abi":[{"type":"function","name":"BLAST","inputs":[],"outputs":[{"name":"","type":"address","internalType":"contract IBlast"}],"stateMutability":"view"},{"type":"function","name":"UPGRADE_INTERFACE_VERSION","inputs":[],"outputs":[{"name":"","type":"string","internalType":"string"}],"stateMutability":"view"},{"type":"function","name":"allowance","inputs":[{"name":"owner","type":"address","internalType":"address"},{"name":"spender","type":"address","internalType":"address"}],"outputs":[{"name":"","type":"uint256","internalType":"uint256"}],"stateMutability":"view"},{"type":"function","name":"approve","inputs":[{"name":"spender","type":"address","internalType":"address"},{"name":"value","type":"uint256","internalType":"uint256"}],"outputs":[{"name":"","type":"bool","internalType":"bool"}],"stateMutability":"nonpayable"},{"type":"function","name":"balanceOf","inputs":[{"name":"account","type":"address","internalType":"address"}],"outputs":[{"name":"","type":"uint256","internalType":"uint256"}],"stateMutability":"view"},{"type":"function","name":"claimAllGas","inputs":[],"outputs":[],"stateMutability":"nonpayable"},{"type":"function","name":"claimAllYield","inputs":[],"outputs":[],"stateMutability":"nonpayable"},{"type":"function","name":"decimals","inputs":[],"outputs":[{"name":"","type":"uint8","internalType":"uint8"}],"stateMutability":"view"},{"type":"function","name":"deposit","inputs":[{"name":"token","type":"address","internalType":"address"},{"name":"value","type":"uint256","internalType":"uint256"}],"outputs":[],"stateMutability":"nonpayable"},{"type":"function","name":"factory","inputs":[],"outputs":[{"name":"","type":"address","internalType":"address"}],"stateMutability":"view"},{"type":"function","name":"fee","inputs":[],"outputs":[{"name":"","type":"uint24","internalType":"uint24"}],"stateMutability":"view"},{"type":"function","name":"initialize","inputs":[{"name":"name_","type":"string","internalType":"string"},{"name":"symbol_","type":"string","internalType":"string"},{"name":"owner_","type":"address","internalType":"address"},{"name":"factory_","type":"address","internalType":"address"},{"name":"npm_","type":"address","internalType":"address"},{"name":"token0_","type":"address","internalType":"address"},{"name":"token1_","type":"address","internalType":"address"},{"name":"fee_","type":"uint24","internalType":"uint24"},{"name":"tokenId_","type":"uint256","internalType":"uint256"},{"name":"lpManager_","type":"address","internalType":"address"}],"outputs":[],"stateMutability":"nonpayable"},{"type":"function","name":"initiateLP","inputs":[],"outputs":[],"stateMutability":"nonpayable"},{"type":"function","name":"lpManager","inputs":[],"outputs":[{"name":"","type":"address","internalType":"contract ILPManager"}],"stateMutability":"view"},{"type":"function","name":"myBalc","inputs":[{"name":"token","type":"address","internalType":"address"}],"outputs":[{"name":"","type":"uint256","internalType":"uint256"}],"stateMutability":"view"},{"type":"function","name":"name","inputs":[],"outputs":[{"name":"","type":"string","internalType":"string"}],"stateMutability":"view"},{"type":"function","name":"npm","inputs":[],"outputs":[{"name":"","type":"address","internalType":"address"}],"stateMutability":"view"},{"type":"function","name":"onERC721Received","inputs":[{"name":"","type":"address","internalType":"address"},{"name":"from","type":"address","internalType":"address"},{"name":"tokenId_","type":"uint256","internalType":"uint256"},{"name":"","type":"bytes","internalType":"bytes"}],"outputs":[{"name":"","type":"bytes4","internalType":"bytes4"}],"stateMutability":"nonpayable"},{"type":"function","name":"owner","inputs":[],"outputs":[{"name":"","type":"address","internalType":"address"}],"stateMutability":"view"},{"type":"function","name":"protTotalDeposits","inputs":[{"name":"token","type":"address","internalType":"address"}],"outputs":[{"name":"totalDeposit","type":"int256","internalType":"int256"}],"stateMutability":"view"},{"type":"function","name":"proxiableUUID","inputs":[],"outputs":[{"name":"","type":"bytes32","internalType":"bytes32"}],"stateMutability":"view"},{"type":"function","name":"redeem","inputs":[{"name":"shares","type":"uint256","internalType":"uint256"}],"outputs":[],"stateMutability":"nonpayable"},{"type":"function","name":"renounceOwnership","inputs":[],"outputs":[],"stateMutability":"nonpayable"},{"type":"function","name":"revokeLP","inputs":[{"name":"to","type":"address","internalType":"address"}],"outputs":[],"stateMutability":"nonpayable"},{"type":"function","name":"symbol","inputs":[],"outputs":[{"name":"","type":"string","internalType":"string"}],"stateMutability":"view"},{"type":"function","name":"token0","inputs":[],"outputs":[{"name":"","type":"address","internalType":"address"}],"stateMutability":"view"},{"type":"function","name":"token1","inputs":[],"outputs":[{"name":"","type":"address","internalType":"address"}],"stateMutability":"view"},{"type":"function","name":"tokenId","inputs":[],"outputs":[{"name":"","type":"uint256","internalType":"uint256"}],"stateMutability":"view"},{"type":"function","name":"totalAssets","inputs":[],"outputs":[{"name":"","type":"uint256","internalType":"uint256"}],"stateMutability":"view"},{"type":"function","name":"totalLp","inputs":[],"outputs":[{"name":"","type":"uint256","internalType":"uint256"}],"stateMutability":"view"},{"type":"function","name":"totalSupply","inputs":[],"outputs":[{"name":"","type":"uint256","internalType":"uint256"}],"stateMutability":"view"},{"type":"function","name":"transfer","inputs":[{"name":"to","type":"address","internalType":"address"},{"name":"value","type":"uint256","internalType":"uint256"}],"outputs":[{"name":"","type":"bool","internalType":"bool"}],"stateMutability":"nonpayable"},{"type":"function","name":"transferFrom","inputs":[{"name":"from","type":"address","internalType":"address"},{"name":"to","type":"address","internalType":"address"},{"name":"value","type":"uint256","internalType":"uint256"}],"outputs":[{"name":"","type":"bool","internalType":"bool"}],"stateMutability":"nonpayable"},{"type":"function","name":"transferOwnership","inputs":[{"name":"newOwner","type":"address","internalType":"address"}],"outputs":[],"stateMutability":"nonpayable"},{"type":"function","name":"updateLPManager","inputs":[{"name":"newLpMgrAddr","type":"address","internalType":"address"}],"outputs":[],"stateMutability":"nonpayable"},{"type":"function","name":"upgradeToAndCall","inputs":[{"name":"newImplementation","type":"address","internalType":"address"},{"name":"data","type":"bytes","internalType":"bytes"}],"outputs":[],"stateMutability":"payable"},{"type":"function","name":"userTotalDeposits","inputs":[{"name":"user","type":"address","internalType":"address"},{"name":"token","type":"address","internalType":"address"}],"outputs":[{"name":"totalDeposit","type":"int256","internalType":"int256"}],"stateMutability":"view"},{"type":"function","name":"withdraw","inputs":[{"name":"assets","type":"uint256","internalType":"uint256"}],"outputs":[],"stateMutability":"nonpayable"},{"type":"event","name":"Approval","inputs":[{"name":"owner","type":"address","indexed":true,"internalType":"address"},{"name":"spender","type":"address","indexed":true,"internalType":"address"},{"name":"value","type":"uint256","indexed":false,"internalType":"uint256"}],"anonymous":false},{"type":"event","name":"Initialized","inputs":[{"name":"version","type":"uint64","indexed":false,"internalType":"uint64"}],"anonymous":false},{"type":"event","name":"OwnershipTransferred","inputs":[{"name":"previousOwner","type":"address","indexed":true,"internalType":"address"},{"name":"newOwner","type":"address","indexed":true,"internalType":"address"}],"anonymous":false},{"type":"event","name":"Transfer","inputs":[{"name":"from","type":"address","indexed":true,"internalType":"address"},{"name":"to","type":"address","indexed":true,"internalType":"address"},{"name":"value","type":"uint256","indexed":false,"internalType":"uint256"}],"anonymous":false},{"type":"event","name":"Upgraded","inputs":[{"name":"implementation","type":"address","indexed":true,"internalType":"address"}],"anonymous":false},{"type":"error","name":"AddressEmptyCode","inputs":[{"name":"target","type":"address","internalType":"address"}]},{"type":"error","name":"ERC1967InvalidImplementation","inputs":[{"name":"implementation","type":"address","internalType":"address"}]},{"type":"error","name":"ERC1967NonPayable","inputs":[]},{"type":"error","name":"ERC20InsufficientAllowance","inputs":[{"name":"spender","type":"address","internalType":"address"},{"name":"allowance","type":"uint256","internalType":"uint256"},{"name":"needed","type":"uint256","internalType":"uint256"}]},{"type":"error","name":"ERC20InsufficientBalance","inputs":[{"name":"sender","type":"address","internalType":"address"},{"name":"balance","type":"uint256","internalType":"uint256"},{"name":"needed","type":"uint256","internalType":"uint256"}]},{"type":"error","name":"ERC20InvalidApprover","inputs":[{"name":"approver","type":"address","internalType":"address"}]},{"type":"error","name":"ERC20InvalidReceiver","inputs":[{"name":"receiver","type":"address","internalType":"address"}]},{"type":"error","name":"ERC20InvalidSender","inputs":[{"name":"sender","type":"address","internalType":"address"}]},{"type":"error","name":"ERC20InvalidSpender","inputs":[{"name":"spender","type":"address","internalType":"address"}]},{"type":"error","name":"FailedInnerCall","inputs":[]},{"type":"error","name":"InvalidInitialization","inputs":[]},{"type":"error","name":"MathOverflowedMulDiv","inputs":[]},{"type":"error","name":"NotInitializing","inputs":[]},{"type":"error","name":"OwnableInvalidOwner","inputs":[{"name":"owner","type":"address","internalType":"address"}]},{"type":"error","name":"OwnableUnauthorizedAccount","inputs":[{"name":"account","type":"address","internalType":"address"}]},{"type":"error","name":"UUPSUnauthorizedCallContext","inputs":[]},{"type":"error","name":"UUPSUnsupportedProxiableUUID","inputs":[{"name":"slot","type":"bytes32","internalType":"bytes32"}]}],"bytecode":{"object":"0x60a06040523060805234801561001457600080fd5b50608051612d1f61003e60003960008181611bc301528181611bec0152611d240152612d1f6000f3fe6080604052600436106101e55760003560e01c8063715018a611610103578063b22ec6ac1161009b578063b22ec6ac14610552578063b5da527f14610572578063b906f15a14610587578063c45a0155146105a7578063ccea5b2b146105c7578063d21220a7146105ff578063db006a751461061f578063dd62ed3e1461063f578063ddca3f431461065f578063f2fde38b1461069657600080fd5b8063715018a6146104475780637508e1731461045c5780637f1e9ef61461047c5780638da5cb5b1461049c57806395d89b41146104b157806397d75776146104c6578063a9059cbb146104e1578063ad3cb1cc14610501578063aff5442c1461053257600080fd5b806328f639441161018157806328f639441461032a5780632e1a7d4d14610357578063313ce56714610379578063409a33ce1461039557806347e7ef24146103aa5780634f1ef286146103ca57806352d1902d146103dd578063645dd1fa146103f25780636f8c8ee11461040757806370a082311461042757600080fd5b806301e1d114146101ea57806306fdde0314610212578063095ea7b3146102345780630dfe168114610264578063150b7a021461029157806317d70f7c146102ca57806318160ddd146102e057806323b872dd146102f5578063242c135d14610315575b600080fd5b3480156101f657600080fd5b506101ff6106b6565b6040519081526020015b60405180910390f35b34801561021e57600080fd5b50610227610791565b60405161020991906124d4565b34801561024057600080fd5b5061025461024f36600461252c565b610832565b6040519015158152602001610209565b34801561027057600080fd5b50600354610284906001600160a01b031681565b6040516102099190612558565b34801561029d57600080fd5b506102b16102ac36600461256c565b61084c565b6040516001600160e01b03199091168152602001610209565b3480156102d657600080fd5b506101ff60055481565b3480156102ec57600080fd5b506101ff610955565b34801561030157600080fd5b5061025461031036600461260a565b61096a565b34801561032157600080fd5b506101ff610990565b34801561033657600080fd5b506101ff61034536600461264b565b60066020526000908152604090205481565b34801561036357600080fd5b50610377610372366004612668565b610a0e565b005b34801561038557600080fd5b5060405160128152602001610209565b3480156103a157600080fd5b50610377610ad9565b3480156103b657600080fd5b506103776103c536600461252c565b610b53565b6103776103d836600461270c565b610e2e565b3480156103e957600080fd5b506101ff610e49565b3480156103fe57600080fd5b50610377610e66565b34801561041357600080fd5b506101ff61042236600461264b565b610e9a565b34801561043357600080fd5b506101ff61044236600461264b565b610f0a565b34801561045357600080fd5b50610377610f35565b34801561046857600080fd5b506103776104773660046127a2565b610f49565b34801561048857600080fd5b50600254610284906001600160a01b031681565b3480156104a857600080fd5b506102846110c8565b3480156104bd57600080fd5b506102276110e3565b3480156104d257600080fd5b506102846002604360981b0181565b3480156104ed57600080fd5b506102546104fc36600461252c565b611100565b34801561050d57600080fd5b50610227604051806040016040528060058152602001640352e302e360dc1b81525081565b34801561053e57600080fd5b5061037761054d36600461264b565b61110e565b34801561055e57600080fd5b5061037761056d36600461264b565b611138565b34801561057e57600080fd5b506103776111b0565b34801561059357600080fd5b50600054610284906001600160a01b031681565b3480156105b357600080fd5b50600154610284906001600160a01b031681565b3480156105d357600080fd5b506101ff6105e2366004612885565b600760209081526000928352604080842090915290825290205481565b34801561060b57600080fd5b50600454610284906001600160a01b031681565b34801561062b57600080fd5b5061037761063a366004612668565b6112d7565b34801561064b57600080fd5b506101ff61065a366004612885565b61139e565b34801561066b57600080fd5b5060045461068290600160a01b900462ffffff1681565b60405162ffffff9091168152602001610209565b3480156106a257600080fd5b506103776106b136600461264b565b6113da565b6000805460025460015460055460405163bb858c1d60e01b8152859485946001600160a01b039182169463bb858c1d946106fa9492841693909116916004016128be565b608060405180830381865afa158015610717573d6000803e3d6000fd5b505050506040513d601f19601f8201168201806040525081019061073b91906128e2565b50506004549193509150610757906001600160a01b0316610e9a565b60035461076c906001600160a01b0316610e9a565b6107768385612943565b6107809190612943565b61078a9190612943565b9250505090565b6060600061079d611415565b90508060030180546107ae90612956565b80601f01602080910402602001604051908101604052809291908181526020018280546107da90612956565b80156108275780601f106107fc57610100808354040283529160200191610827565b820191906000526020600020905b81548152906001019060200180831161080a57829003601f168201915b505050505091505090565b600033610840818585611439565b60019150505b92915050565b600060055484146108965760405162461bcd60e51b815260206004820152600f60248201526e1a5b9d985b1a59081d1bdad95b9259608a1b60448201526064015b60405180910390fd5b6000805460025460015460055460405163bb858c1d60e01b815285946001600160a01b039081169463bb858c1d946108d794918316939216916004016128be565b608060405180830381865afa1580156108f4573d6000803e3d6000fd5b505050506040513d601f19601f8201168201806040525081019061091891906128e2565b5050915091506000610934828461092f9190612943565b611446565b90506109408882611478565b50630a85bd0160e11b98975050505050505050565b600080610960611415565b6002015492915050565b6000336109788582856114ae565b610983858585611501565b60019150505b9392505050565b600080546002546005546040516305fd3fa360e21b81526001600160a01b03938416936317f4fe8c936109c893911691600401612990565b602060405180830381865afa1580156109e5573d6000803e3d6000fd5b505050506040513d601f19601f82011682018060405250810190610a0991906129a9565b905090565b600054600254600154600554604051630f126f8360e21b81526001600160a01b0394851694633c49be0c94610a4e949082169391169130906004016129c2565b6080604051808303816000875af1158015610a6d573d6000803e3d6000fd5b505050506040513d601f19601f82011682018060405250810190610a9191906128e2565b505050506000610aa082611446565b905080610aac33610f0a565b1015610aca5760405162461bcd60e51b815260040161088d906129ed565b610ad5338383611560565b5050565b610ae16117ab565b60405163430021db60e11b81526002604360981b019063860043b690610b0d9030903390600401612a1a565b6020604051808303816000875af1158015610b2c573d6000803e3d6000fd5b505050506040513d601f19601f82011682018060405250810190610b5091906129a9565b50565b6003546001600160a01b0383811691161480610b7c57506004546001600160a01b038381169116145b610bb85760405162461bcd60e51b815260206004820152600d60248201526c34b73b30b634b2103a37b5b2b760991b604482015260640161088d565b6040516370a0823160e01b815281906001600160a01b038416906370a0823190610be6903390600401612558565b602060405180830381865afa158015610c03573d6000803e3d6000fd5b505050506040513d601f19601f82011682018060405250810190610c2791906129a9565b1015610c6c5760405162461bcd60e51b8152602060048201526014602482015273696e73756666696369656e742062616c616e636560601b604482015260640161088d565b610c773383836117dd565b600054600254600154600554604051630f126f8360e21b81526001600160a01b0394851694633c49be0c94610cb7949082169391169130906004016129c2565b6080604051808303816000875af1158015610cd6573d6000803e3d6000fd5b505050506040513d601f19601f82011682018060405250810190610cfa91906128e2565b505050506000610d0982611446565b9050610d178333308561184b565b600080610d22611951565b91509150600082118015610d365750600081115b15610e1d57600354600054610d58916001600160a01b03908116911684611ab5565b600454600054610d75916001600160a01b03908116911683611ab5565b60005460025460055460035460048054604051632dbdfa2960e01b81526001600160a01b03958616928101929092526024820193909352908316604482015290821660648201526084810185905260a48101849052911690632dbdfa299060c4016060604051808303816000875af1158015610df5573d6000803e3d6000fd5b505050506040513d601f19601f82011682018060405250810190610e199190612a34565b5050505b610e273384611478565b5050505050565b610e36611bb8565b610e3f82611c5d565b610ad58282611c65565b6000610e53611d19565b50600080516020612cca83398151915290565b610e6e6117ab565b604051634aa7d2f760e11b81526002604360981b019063954fa5ee90610b0d9030903390600401612a1a565b6040516370a0823160e01b81526000906001600160a01b038316906370a0823190610ec9903090600401612558565b602060405180830381865afa158015610ee6573d6000803e3d6000fd5b505050506040513d601f19601f8201168201806040525081019061084691906129a9565b600080610f15611415565b6001600160a01b0390931660009081526020939093525050604090205490565b610f3d6117ab565b610f476000611d62565b565b6000610f53611dbe565b805490915060ff600160401b82041615906001600160401b0316600081158015610f7a5750825b90506000826001600160401b03166001148015610f965750303b155b905081158015610fa4575080155b15610fc25760405163f92ee8a960e01b815260040160405180910390fd5b845467ffffffffffffffff191660011785558315610fec57845460ff60401b1916600160401b1785555b610ff58d611de2565b610fff8f8f611df3565b600180546001600160a01b03808f166001600160a01b031992831617909255600280548e8416908316179055600380548d84169083161790556004805462ffffff8c16600160a01b026001600160b81b03199091168d8516171790556005899055600080549289169290911691909117905583156110b757845460ff60401b19168555604051600181527fc7f505b2f371ae2175ee4913f4499e1f2633a7b5936321eed1cdaeb6115181d29060200160405180910390a15b505050505050505050505050505050565b6000806110d3611e05565b546001600160a01b031692915050565b606060006110ef611415565b90508060040180546107ae90612956565b600033610840818585611501565b6111166117ab565b600080546001600160a01b0319166001600160a01b0392909216919091179055565b6111406117ab565b60005460025460055460405163e466f4c560e01b81526001600160a01b0392831660048201526024810191909152838216604482015291169063e466f4c590606401600060405180830381600087803b15801561119c57600080fd5b505af1158015610e27573d6000803e3d6000fd5b6111b86117ab565b600254600054600554604051632142170760e11b81526001600160a01b03938416936342842e0e936111f393339392909116916004016128be565b600060405180830381600087803b15801561120d57600080fd5b505af1158015611221573d6000803e3d6000fd5b50506000805460025460015460055460405163bb858c1d60e01b81529496508695506001600160a01b039384169463bb858c1d94611267948116931691906004016128be565b608060405180830381865afa158015611284573d6000803e3d6000fd5b505050506040513d601f19601f820116820180604052508101906112a891906128e2565b50509150915060006112bf828461092f9190612943565b90506112d26112cc6110c8565b82611478565b505050565b600054600254600154600554604051630f126f8360e21b81526001600160a01b0394851694633c49be0c94611317949082169391169130906004016129c2565b6080604051808303816000875af1158015611336573d6000803e3d6000fd5b505050506040513d601f19601f8201168201806040525081019061135a91906128e2565b505050508061136833610f0a565b10156113865760405162461bcd60e51b815260040161088d906129ed565b600061139182611e29565b9050610ad5338284611560565b6000806113a9611415565b6001600160a01b03948516600090815260019190910160209081526040808320959096168252939093525050205490565b6113e26117ab565b6001600160a01b03811661140c576000604051631e4fbdf760e01b815260040161088d9190612558565b610b5081611d62565b7f52c63247e1f47db19d5ce0460030c497f067ca4cebf71ba98eeadabe20bace0090565b6112d28383836001611e48565b600080611451610955565b905080600003611462575090919050565b6109898161146e6106b6565b8591906000611f2c565b6001600160a01b0382166114a257600060405163ec442f0560e01b815260040161088d9190612558565b610ad560008383611f7d565b60006114ba848461139e565b905060001981146114fb57818110156114ec57828183604051637dc7a0d960e11b815260040161088d93929190612a77565b6114fb84848484036000611e48565b50505050565b6001600160a01b03831661152b576000604051634b637e8f60e11b815260040161088d9190612558565b6001600160a01b03821661155557600060405163ec442f0560e01b815260040161088d9190612558565b6112d2838383611f7d565b600061156b836120a5565b60008054600254600554604051635e8e661360e11b8152949550929384936001600160a01b039384169363bd1ccc26936115ad93911691908890600401612a77565b60408051808303816000875af11580156115cb573d6000803e3d6000fd5b505050506040513d601f19601f820116820180604052508101906115ef9190612a98565b600054600254600154600554604051630f126f8360e21b81529597509395506001600160a01b0392831694633c49be0c946116379493841693909216919030906004016129c2565b6080604051808303816000875af1158015611656573d6000803e3d6000fd5b505050506040513d601f19601f8201168201806040525081019061167a91906128e2565b50505050600082111561170d5760035461169e906001600160a01b03168784611ab5565b6003546001600160a01b0316600090815260066020526040812080548492906116c8908490612abc565b90915550506001600160a01b03808716600090815260076020908152604080832060035490941683529290529081208054849290611707908490612abc565b90915550505b80156117995760045461172a906001600160a01b03168783611ab5565b6004546001600160a01b031660009081526006602052604081208054839290611754908490612abc565b90915550506001600160a01b03808716600090815260076020908152604080832060045490941683529290529081208054839290611793908490612abc565b90915550505b6117a38685612157565b505050505050565b336117b46110c8565b6001600160a01b031614610f47573360405163118cdaa760e01b815260040161088d9190612558565b6001600160a01b03821660009081526006602052604081208054839290611805908490612ae3565b90915550506001600160a01b03808416600090815260076020908152604080832093861683529290529081208054839290611841908490612ae3565b9091555050505050565b600080856001600160a01b03166323b872dd60e01b868686604051602401611875939291906128be565b60408051601f198184030181529181526020820180516001600160e01b03166001600160e01b03199094169390931790925290516118b39190612b0b565b6000604051808303816000865af19150503d80600081146118f0576040519150601f19603f3d011682016040523d82523d6000602084013e6118f5565b606091505b509150915081801561191f57508051158061191f57508080602001905181019061191f9190612b27565b6117a35760405162461bcd60e51b815260206004820152600360248201526229aa2360e91b604482015260640161088d565b6003546000908190819061196d906001600160a01b0316610e9a565b600454909150600090611988906001600160a01b0316610e9a565b9050811580611995575080155b156119a65750600093849350915050565b6000805460025460015460055460405163bb858c1d60e01b815285946001600160a01b039081169463bb858c1d946119e794918316939216916004016128be565b608060405180830381865afa158015611a04573d6000803e3d6000fd5b505050506040513d601f19601f82011682018060405250810190611a2891906128e2565b5050915091508160001480611a3b575080155b15611a4e57506000958695509350505050565b80611a5b83612710612b49565b611a659190612b76565b83611a7286612710612b49565b611a7c9190612b76565b1115611a9b57611a8f8383836000611f2c565b96929550919350505050565b83611aa98183856000611f2c565b95509550505050509091565b600080846001600160a01b031663a9059cbb60e01b8585604051602401611add929190612990565b60408051601f198184030181529181526020820180516001600160e01b03166001600160e01b0319909416939093179092529051611b1b9190612b0b565b6000604051808303816000865af19150503d8060008114611b58576040519150601f19603f3d011682016040523d82523d6000602084013e611b5d565b606091505b5091509150818015611b87575080511580611b87575080806020019051810190611b879190612b27565b610e275760405162461bcd60e51b815260206004820152600260248201526114d560f21b604482015260640161088d565b306001600160a01b037f0000000000000000000000000000000000000000000000000000000000000000161480611c3f57507f00000000000000000000000000000000000000000000000000000000000000006001600160a01b0316611c33600080516020612cca833981519152546001600160a01b031690565b6001600160a01b031614155b15610f475760405163703e46dd60e11b815260040160405180910390fd5b610b506117ab565b816001600160a01b03166352d1902d6040518163ffffffff1660e01b8152600401602060405180830381865afa925050508015611cbf575060408051601f3d908101601f19168201909252611cbc918101906129a9565b60015b611cde5781604051634c9c8ce360e01b815260040161088d9190612558565b600080516020612cca8339815191528114611d0f57604051632a87526960e21b81526004810182905260240161088d565b6112d2838361218d565b306001600160a01b037f00000000000000000000000000000000000000000000000000000000000000001614610f475760405163703e46dd60e11b815260040160405180910390fd5b6000611d6c611e05565b80546001600160a01b038481166001600160a01b031983168117845560405193945091169182907f8be0079c531659141344cd1fd0a4f28419497f9722a3daafe3b4186f6b6457e090600090a3505050565b7ff0c57e16840df040f15088dc2f81fe391c3923bec73e23a9662efc9c229c6a0090565b611dea6121e3565b610b5081612208565b611dfb6121e3565b610ad58282612210565b7f9016d09d72d40fdae2fd8ceac6b6234c7706214fd39c1cd1e609a0528c19930090565b6000610846611e366106b6565b611e3e610955565b8491906000611f2c565b6000611e52611415565b90506001600160a01b038516611e7e57600060405163e602df0560e01b815260040161088d9190612558565b6001600160a01b038416611ea8576000604051634a1406b160e11b815260040161088d9190612558565b6001600160a01b03808616600090815260018301602090815260408083209388168352929052208390558115610e2757836001600160a01b0316856001600160a01b03167f8c5be1e5ebec7d5bd14f71427d1e84f3dd0314c0f7b2291e5b200ac8c7c3b92585604051611f1d91815260200190565b60405180910390a35050505050565b600080611f3a868686612241565b9050611f4583612305565b8015611f61575060008480611f5c57611f5c612b60565b868809115b15611f7457611f71600182612943565b90505b95945050505050565b6000611f87611415565b90506001600160a01b038416611fb65781816002016000828254611fab9190612943565b909155506120159050565b6001600160a01b03841660009081526020829052604090205482811015611ff65784818460405163391434e360e21b815260040161088d93929190612a77565b6001600160a01b03851660009081526020839052604090209083900390555b6001600160a01b038316612033576002810180548390039055612052565b6001600160a01b03831660009081526020829052604090208054830190555b826001600160a01b0316846001600160a01b03167fddf252ad1be2c89b69c2b068fc378daa952ba7f163c4a11628f55a4df523b3ef8460405161209791815260200190565b60405180910390a350505050565b6000805460025460015460055460405163bb858c1d60e01b8152859485946001600160a01b039182169463bb858c1d946120e99492841693909116916004016128be565b608060405180830381865afa158015612106573d6000803e3d6000fd5b505050506040513d601f19601f8201168201806040525081019061212a91906128e2565b50509150915061214f61213b610990565b6121458385612943565b8691906000611f2c565b949350505050565b6001600160a01b038216612181576000604051634b637e8f60e11b815260040161088d9190612558565b610ad582600083611f7d565b61219682612332565b6040516001600160a01b038316907fbc7cd75a20ee27fd9adebab32041f755214dbc6bffa90cc0225b39da2e5c2d3b90600090a28051156121db576112d2828261238e565b610ad56123fb565b6121eb61241a565b610f4757604051631afcd79f60e31b815260040160405180910390fd5b6113e26121e3565b6122186121e3565b6000612222611415565b9050600381016122328482612bd2565b50600481016114fb8382612bd2565b60008383028160001985870982811083820303915050806000036122785783828161226e5761226e612b60565b0492505050610989565b8084116122985760405163227bc15360e01b815260040160405180910390fd5b6000848688096000868103871696879004966002600389028118808a02820302808a02820302808a02820302808a02820302808a02820302808a02909103029181900381900460010186841190950394909402919094039290920491909117919091029150509392505050565b6000600282600381111561231b5761231b612c91565b6123259190612ca7565b60ff166001149050919050565b806001600160a01b03163b60000361235f5780604051634c9c8ce360e01b815260040161088d9190612558565b600080516020612cca83398151915280546001600160a01b0319166001600160a01b0392909216919091179055565b6060600080846001600160a01b0316846040516123ab9190612b0b565b600060405180830381855af49150503d80600081146123e6576040519150601f19603f3d011682016040523d82523d6000602084013e6123eb565b606091505b5091509150611f74858383612434565b3415610f475760405163b398979f60e01b815260040160405180910390fd5b6000612424611dbe565b54600160401b900460ff16919050565b6060826124495761244482612487565b610989565b815115801561246057506001600160a01b0384163b155b156124805783604051639996b31560e01b815260040161088d9190612558565b5080610989565b8051156124975780518082602001fd5b604051630a12f52160e11b815260040160405180910390fd5b60005b838110156124cb5781810151838201526020016124b3565b50506000910152565b60208152600082518060208401526124f38160408501602087016124b0565b601f01601f19169190910160400192915050565b6001600160a01b0381168114610b5057600080fd5b803561252781612507565b919050565b6000806040838503121561253f57600080fd5b823561254a81612507565b946020939093013593505050565b6001600160a01b0391909116815260200190565b60008060008060006080868803121561258457600080fd5b853561258f81612507565b9450602086013561259f81612507565b93506040860135925060608601356001600160401b03808211156125c257600080fd5b818801915088601f8301126125d657600080fd5b8135818111156125e557600080fd5b8960208285010111156125f757600080fd5b9699959850939650602001949392505050565b60008060006060848603121561261f57600080fd5b833561262a81612507565b9250602084013561263a81612507565b929592945050506040919091013590565b60006020828403121561265d57600080fd5b813561098981612507565b60006020828403121561267a57600080fd5b5035919050565b634e487b7160e01b600052604160045260246000fd5b60006001600160401b03808411156126b1576126b1612681565b604051601f8501601f19908116603f011681019082821181831017156126d9576126d9612681565b816040528093508581528686860111156126f257600080fd5b858560208301376000602087830101525050509392505050565b6000806040838503121561271f57600080fd5b823561272a81612507565b915060208301356001600160401b0381111561274557600080fd5b8301601f8101851361275657600080fd5b61276585823560208401612697565b9150509250929050565b600082601f83011261278057600080fd5b61098983833560208501612697565b803562ffffff8116811461252757600080fd5b6000806000806000806000806000806101408b8d0312156127c257600080fd5b8a356001600160401b03808211156127d957600080fd5b6127e58e838f0161276f565b9b5060208d01359150808211156127fb57600080fd5b506128088d828e0161276f565b99505061281760408c0161251c565b975061282560608c0161251c565b965061283360808c0161251c565b955061284160a08c0161251c565b945061284f60c08c0161251c565b935061285d60e08c0161278f565b92506101008b013591506128746101208c0161251c565b90509295989b9194979a5092959850565b6000806040838503121561289857600080fd5b82356128a381612507565b915060208301356128b381612507565b809150509250929050565b6001600160a01b039384168152919092166020820152604081019190915260600190565b600080600080608085870312156128f857600080fd5b8451935060208501519250604085015161291181612507565b606086015190925061292281612507565b939692955090935050565b634e487b7160e01b600052601160045260246000fd5b808201808211156108465761084661292d565b600181811c9082168061296a57607f821691505b60208210810361298a57634e487b7160e01b600052602260045260246000fd5b50919050565b6001600160a01b03929092168252602082015260400190565b6000602082840312156129bb57600080fd5b5051919050565b6001600160a01b03948516815292841660208401526040830191909152909116606082015260800190565b602080825260139082015272696e73756666696369656e742073686172657360681b604082015260600190565b6001600160a01b0392831681529116602082015260400190565b600080600060608486031215612a4957600080fd5b83516001600160801b0381168114612a6057600080fd5b602085015160409095015190969495509392505050565b6001600160a01b039390931683526020830191909152604082015260600190565b60008060408385031215612aab57600080fd5b505080516020909101519092909150565b8181036000831280158383131683831282161715612adc57612adc61292d565b5092915050565b8082018281126000831280158216821582161715612b0357612b0361292d565b505092915050565b60008251612b1d8184602087016124b0565b9190910192915050565b600060208284031215612b3957600080fd5b8151801515811461098957600080fd5b80820281158282048414176108465761084661292d565b634e487b7160e01b600052601260045260246000fd5b600082612b8557612b85612b60565b500490565b601f8211156112d2576000816000526020600020601f850160051c81016020861015612bb35750805b601f850160051c820191505b818110156117a357828155600101612bbf565b81516001600160401b03811115612beb57612beb612681565b612bff81612bf98454612956565b84612b8a565b602080601f831160018114612c345760008415612c1c5750858301515b600019600386901b1c1916600185901b1785556117a3565b600085815260208120601f198616915b82811015612c6357888601518255948401946001909101908401612c44565b5085821015612c815787850151600019600388901b60f8161c191681555b5050505050600190811b01905550565b634e487b7160e01b600052602160045260246000fd5b600060ff831680612cba57612cba612b60565b8060ff8416069150509291505056fe360894a13ba1a3210667c828492db98dca3e2076cc3735a920a3ca505d382bbca2646970667358221220df2afc887c78629ec60b6e4a4deb12592895dbf233776478ba9b68b9e0acc09664736f6c63430008180033","linkReferences":{}},"methodIdentifiers":{"BLAST()":"97d75776","UPGRADE_INTERFACE_VERSION()":"ad3cb1cc","allowance(address,address)":"dd62ed3e","approve(address,uint256)":"095ea7b3","balanceOf(address)":"70a08231","claimAllGas()":"645dd1fa","claimAllYield()":"409a33ce","decimals()":"313ce567","deposit(address,uint256)":"47e7ef24","factory()":"c45a0155","fee()":"ddca3f43","initialize(string,string,address,address,address,address,address,uint24,uint256,address)":"7508e173","initiateLP()":"b5da527f","lpManager()":"b906f15a","myBalc(address)":"6f8c8ee1","name()":"06fdde03","npm()":"7f1e9ef6","onERC721Received(address,address,uint256,bytes)":"150b7a02","owner()":"8da5cb5b","protTotalDeposits(address)":"28f63944","proxiableUUID()":"52d1902d","redeem(uint256)":"db006a75","renounceOwnership()":"715018a6","revokeLP(address)":"b22ec6ac","symbol()":"95d89b41","token0()":"0dfe1681","token1()":"d21220a7","tokenId()":"17d70f7c","totalAssets()":"01e1d114","totalLp()":"242c135d","totalSupply()":"18160ddd","transfer(address,uint256)":"a9059cbb","transferFrom(address,address,uint256)":"23b872dd","transferOwnership(address)":"f2fde38b","updateLPManager(address)":"aff5442c","upgradeToAndCall(address,bytes)":"4f1ef286","userTotalDeposits(address,address)":"ccea5b2b","withdraw(uint256)":"2e1a7d4d"},"storageLayout":{"storage":[{"astId":72983,"contract":"src/stake/Stake.sol:Stake","label":"lpManager","offset":0,"slot":"0","type":"t_contract(ILPManager)61599"},{"astId":72985,"contract":"src/stake/Stake.sol:Stake","label":"factory","offset":0,"slot":"1","type":"t_address"},{"astId":72987,"contract":"src/stake/Stake.sol:Stake","label":"npm","offset":0,"slot":"2","type":"t_address"},{"astId":72989,"contract":"src/stake/Stake.sol:Stake","label":"token0","offset":0,"slot":"3","type":"t_address"},{"astId":72991,"contract":"src/stake/Stake.sol:Stake","label":"token1","offset":0,"slot":"4","type":"t_address"},{"astId":72993,"contract":"src/stake/Stake.sol:Stake","label":"fee","offset":20,"slot":"4","type":"t_uint24"},{"astId":72995,"contract":"src/stake/Stake.sol:Stake","label":"tokenId","offset":0,"slot":"5","type":"t_uint256"},{"astId":72999,"contract":"src/stake/Stake.sol:Stake","label":"protTotalDeposits","offset":0,"slot":"6","type":"t_mapping(t_address,t_int256)"},{"astId":73005,"contract":"src/stake/Stake.sol:Stake","label":"userTotalDeposits","offset":0,"slot":"7","type":"t_mapping(t_address,t_mapping(t_address,t_int256))"}],"types":{"t_address":{"encoding":"inplace","label":"address","numberOfBytes":"20"},"t_contract(ILPManager)61599":{"encoding":"inplace","label":"contract ILPManager","numberOfBytes":"20"},"t_int256":{"encoding":"inplace","label":"int256","numberOfBytes":"32"},"t_mapping(t_address,t_int256)":{"encoding":"mapping","key":"t_address","label":"mapping(address => int256)","numberOfBytes":"32","value":"t_int256"},"t_mapping(t_address,t_mapping(t_address,t_int256))":{"encoding":"mapping","key":"t_address","label":"mapping(address => mapping(address => int256))","numberOfBytes":"32","value":"t_mapping(t_address,t_int256)"},"t_uint24":{"encoding":"inplace","label":"uint24","numberOfBytes":"3"},"t_uint256":{"encoding":"inplace","label":"uint256","numberOfBytes":"32"}}},"id":112}