{"abi":[{"type":"function","name":"BLAST","inputs":[],"outputs":[{"name":"","type":"address","internalType":"contract IBlast"}],"stateMutability":"view"},{"type":"function","name":"UPGRADE_INTERFACE_VERSION","inputs":[],"outputs":[{"name":"","type":"string","internalType":"string"}],"stateMutability":"view"},{"type":"function","name":"allowance","inputs":[{"name":"owner","type":"address","internalType":"address"},{"name":"spender","type":"address","internalType":"address"}],"outputs":[{"name":"","type":"uint256","internalType":"uint256"}],"stateMutability":"view"},{"type":"function","name":"approve","inputs":[{"name":"spender","type":"address","internalType":"address"},{"name":"value","type":"uint256","internalType":"uint256"}],"outputs":[{"name":"","type":"bool","internalType":"bool"}],"stateMutability":"nonpayable"},{"type":"function","name":"balanceOf","inputs":[{"name":"account","type":"address","internalType":"address"}],"outputs":[{"name":"","type":"uint256","internalType":"uint256"}],"stateMutability":"view"},{"type":"function","name":"claimAllGas","inputs":[],"outputs":[],"stateMutability":"nonpayable"},{"type":"function","name":"claimAllYield","inputs":[],"outputs":[],"stateMutability":"nonpayable"},{"type":"function","name":"decimals","inputs":[],"outputs":[{"name":"","type":"uint8","internalType":"uint8"}],"stateMutability":"view"},{"type":"function","name":"deposit","inputs":[{"name":"token","type":"address","internalType":"address"},{"name":"value","type":"uint256","internalType":"uint256"}],"outputs":[],"stateMutability":"nonpayable"},{"type":"function","name":"factory","inputs":[],"outputs":[{"name":"","type":"address","internalType":"address"}],"stateMutability":"view"},{"type":"function","name":"fee","inputs":[],"outputs":[{"name":"","type":"uint24","internalType":"uint24"}],"stateMutability":"view"},{"type":"function","name":"initialize","inputs":[{"name":"name_","type":"string","internalType":"string"},{"name":"symbol_","type":"string","internalType":"string"},{"name":"owner_","type":"address","internalType":"address"},{"name":"factory_","type":"address","internalType":"address"},{"name":"npm_","type":"address","internalType":"address"},{"name":"token0_","type":"address","internalType":"address"},{"name":"token1_","type":"address","internalType":"address"},{"name":"fee_","type":"uint24","internalType":"uint24"},{"name":"tokenId_","type":"uint256","internalType":"uint256"},{"name":"lpManager_","type":"address","internalType":"address"}],"outputs":[],"stateMutability":"nonpayable"},{"type":"function","name":"initiateLP","inputs":[],"outputs":[],"stateMutability":"nonpayable"},{"type":"function","name":"lpManager","inputs":[],"outputs":[{"name":"","type":"address","internalType":"contract ILPManager"}],"stateMutability":"view"},{"type":"function","name":"myBalc","inputs":[{"name":"token","type":"address","internalType":"address"}],"outputs":[{"name":"","type":"uint256","internalType":"uint256"}],"stateMutability":"view"},{"type":"function","name":"name","inputs":[],"outputs":[{"name":"","type":"string","internalType":"string"}],"stateMutability":"view"},{"type":"function","name":"npm","inputs":[],"outputs":[{"name":"","type":"address","internalType":"address"}],"stateMutability":"view"},{"type":"function","name":"onERC721Received","inputs":[{"name":"","type":"address","internalType":"address"},{"name":"from","type":"address","internalType":"address"},{"name":"tokenId_","type":"uint256","internalType":"uint256"},{"name":"","type":"bytes","internalType":"bytes"}],"outputs":[{"name":"","type":"bytes4","internalType":"bytes4"}],"stateMutability":"nonpayable"},{"type":"function","name":"owner","inputs":[],"outputs":[{"name":"","type":"address","internalType":"address"}],"stateMutability":"view"},{"type":"function","name":"protTotalDeposits","inputs":[],"outputs":[{"name":"","type":"uint256","internalType":"uint256"}],"stateMutability":"view"},{"type":"function","name":"proxiableUUID","inputs":[],"outputs":[{"name":"","type":"bytes32","internalType":"bytes32"}],"stateMutability":"view"},{"type":"function","name":"redeem","inputs":[{"name":"shares","type":"uint256","internalType":"uint256"}],"outputs":[],"stateMutability":"nonpayable"},{"type":"function","name":"renounceOwnership","inputs":[],"outputs":[],"stateMutability":"nonpayable"},{"type":"function","name":"revokeLP","inputs":[{"name":"to","type":"address","internalType":"address"}],"outputs":[],"stateMutability":"nonpayable"},{"type":"function","name":"symbol","inputs":[],"outputs":[{"name":"","type":"string","internalType":"string"}],"stateMutability":"view"},{"type":"function","name":"token0","inputs":[],"outputs":[{"name":"","type":"address","internalType":"address"}],"stateMutability":"view"},{"type":"function","name":"token1","inputs":[],"outputs":[{"name":"","type":"address","internalType":"address"}],"stateMutability":"view"},{"type":"function","name":"tokenId","inputs":[],"outputs":[{"name":"","type":"uint256","internalType":"uint256"}],"stateMutability":"view"},{"type":"function","name":"totalAssets","inputs":[],"outputs":[{"name":"","type":"uint256","internalType":"uint256"}],"stateMutability":"view"},{"type":"function","name":"totalLp","inputs":[],"outputs":[{"name":"","type":"uint256","internalType":"uint256"}],"stateMutability":"view"},{"type":"function","name":"totalSupply","inputs":[],"outputs":[{"name":"","type":"uint256","internalType":"uint256"}],"stateMutability":"view"},{"type":"function","name":"transfer","inputs":[{"name":"to","type":"address","internalType":"address"},{"name":"value","type":"uint256","internalType":"uint256"}],"outputs":[{"name":"","type":"bool","internalType":"bool"}],"stateMutability":"nonpayable"},{"type":"function","name":"transferFrom","inputs":[{"name":"from","type":"address","internalType":"address"},{"name":"to","type":"address","internalType":"address"},{"name":"value","type":"uint256","internalType":"uint256"}],"outputs":[{"name":"","type":"bool","internalType":"bool"}],"stateMutability":"nonpayable"},{"type":"function","name":"transferOwnership","inputs":[{"name":"newOwner","type":"address","internalType":"address"}],"outputs":[],"stateMutability":"nonpayable"},{"type":"function","name":"updateLPManager","inputs":[{"name":"newLpMgrAddr","type":"address","internalType":"address"}],"outputs":[],"stateMutability":"nonpayable"},{"type":"function","name":"upgradeToAndCall","inputs":[{"name":"newImplementation","type":"address","internalType":"address"},{"name":"data","type":"bytes","internalType":"bytes"}],"outputs":[],"stateMutability":"payable"},{"type":"function","name":"userTotalDeposits","inputs":[{"name":"user","type":"address","internalType":"address"}],"outputs":[{"name":"totalDeposit","type":"uint256","internalType":"uint256"}],"stateMutability":"view"},{"type":"function","name":"withdraw","inputs":[{"name":"assets","type":"uint256","internalType":"uint256"}],"outputs":[],"stateMutability":"nonpayable"},{"type":"event","name":"Approval","inputs":[{"name":"owner","type":"address","indexed":true,"internalType":"address"},{"name":"spender","type":"address","indexed":true,"internalType":"address"},{"name":"value","type":"uint256","indexed":false,"internalType":"uint256"}],"anonymous":false},{"type":"event","name":"Initialized","inputs":[{"name":"version","type":"uint64","indexed":false,"internalType":"uint64"}],"anonymous":false},{"type":"event","name":"OwnershipTransferred","inputs":[{"name":"previousOwner","type":"address","indexed":true,"internalType":"address"},{"name":"newOwner","type":"address","indexed":true,"internalType":"address"}],"anonymous":false},{"type":"event","name":"Transfer","inputs":[{"name":"from","type":"address","indexed":true,"internalType":"address"},{"name":"to","type":"address","indexed":true,"internalType":"address"},{"name":"value","type":"uint256","indexed":false,"internalType":"uint256"}],"anonymous":false},{"type":"event","name":"Upgraded","inputs":[{"name":"implementation","type":"address","indexed":true,"internalType":"address"}],"anonymous":false},{"type":"error","name":"AddressEmptyCode","inputs":[{"name":"target","type":"address","internalType":"address"}]},{"type":"error","name":"ERC1967InvalidImplementation","inputs":[{"name":"implementation","type":"address","internalType":"address"}]},{"type":"error","name":"ERC1967NonPayable","inputs":[]},{"type":"error","name":"ERC20InsufficientAllowance","inputs":[{"name":"spender","type":"address","internalType":"address"},{"name":"allowance","type":"uint256","internalType":"uint256"},{"name":"needed","type":"uint256","internalType":"uint256"}]},{"type":"error","name":"ERC20InsufficientBalance","inputs":[{"name":"sender","type":"address","internalType":"address"},{"name":"balance","type":"uint256","internalType":"uint256"},{"name":"needed","type":"uint256","internalType":"uint256"}]},{"type":"error","name":"ERC20InvalidApprover","inputs":[{"name":"approver","type":"address","internalType":"address"}]},{"type":"error","name":"ERC20InvalidReceiver","inputs":[{"name":"receiver","type":"address","internalType":"address"}]},{"type":"error","name":"ERC20InvalidSender","inputs":[{"name":"sender","type":"address","internalType":"address"}]},{"type":"error","name":"ERC20InvalidSpender","inputs":[{"name":"spender","type":"address","internalType":"address"}]},{"type":"error","name":"FailedInnerCall","inputs":[]},{"type":"error","name":"InvalidInitialization","inputs":[]},{"type":"error","name":"MathOverflowedMulDiv","inputs":[]},{"type":"error","name":"NotInitializing","inputs":[]},{"type":"error","name":"OwnableInvalidOwner","inputs":[{"name":"owner","type":"address","internalType":"address"}]},{"type":"error","name":"OwnableUnauthorizedAccount","inputs":[{"name":"account","type":"address","internalType":"address"}]},{"type":"error","name":"UUPSUnauthorizedCallContext","inputs":[]},{"type":"error","name":"UUPSUnsupportedProxiableUUID","inputs":[{"name":"slot","type":"bytes32","internalType":"bytes32"}]}],"bytecode":{"object":"0x60a06040523060805234801561001457600080fd5b50608051612e2561003e60003960008181611b3d01528181611b660152611c9e0152612e256000f3fe6080604052600436106101e55760003560e01c80637508e17311610103578063b22ec6ac1161009b578063b22ec6ac14610552578063b5da527f14610572578063b906f15a14610587578063c45a0155146105a7578063d21220a7146105c7578063db006a75146105e7578063dd62ed3e14610607578063ddca3f4314610627578063e42828a01461065e578063f2fde38b1461067457600080fd5b80637508e1731461042f5780637f1e9ef61461044f5780638da5cb5b1461046f5780639295953f1461048457806395d89b41146104b157806397d75776146104c6578063a9059cbb146104e1578063ad3cb1cc14610501578063aff5442c1461053257600080fd5b80632e1a7d4d116101815780632e1a7d4d1461032a578063313ce5671461034c578063409a33ce1461036857806347e7ef241461037d5780634f1ef2861461039d57806352d1902d146103b0578063645dd1fa146103c55780636f8c8ee1146103da57806370a08231146103fa578063715018a61461041a57600080fd5b806301e1d114146101ea57806306fdde0314610212578063095ea7b3146102345780630dfe168114610264578063150b7a021461029157806317d70f7c146102ca57806318160ddd146102e057806323b872dd146102f5578063242c135d14610315575b600080fd5b3480156101f657600080fd5b506101ff610694565b6040519081526020015b60405180910390f35b34801561021e57600080fd5b5061022761076f565b6040516102099190612616565b34801561024057600080fd5b5061025461024f36600461266e565b610810565b6040519015158152602001610209565b34801561027057600080fd5b50600354610284906001600160a01b031681565b604051610209919061269a565b34801561029d57600080fd5b506102b16102ac3660046126ae565b61082a565b6040516001600160e01b03199091168152602001610209565b3480156102d657600080fd5b506101ff60055481565b3480156102ec57600080fd5b506101ff610933565b34801561030157600080fd5b5061025461031036600461274c565b610948565b34801561032157600080fd5b506101ff61096e565b34801561033657600080fd5b5061034a61034536600461278d565b6109ec565b005b34801561035857600080fd5b5060405160128152602001610209565b34801561037457600080fd5b5061034a610ac3565b34801561038957600080fd5b5061034a61039836600461266e565b610b3d565b61034a6103ab366004612831565b610e19565b3480156103bc57600080fd5b506101ff610e34565b3480156103d157600080fd5b5061034a610e51565b3480156103e657600080fd5b506101ff6103f5366004612894565b610e85565b34801561040657600080fd5b506101ff610415366004612894565b610ef5565b34801561042657600080fd5b5061034a610f20565b34801561043b57600080fd5b5061034a61044a3660046128e4565b610f34565b34801561045b57600080fd5b50600254610284906001600160a01b031681565b34801561047b57600080fd5b506102846110b3565b34801561049057600080fd5b506101ff61049f366004612894565b60076020526000908152604090205481565b3480156104bd57600080fd5b506102276110ce565b3480156104d257600080fd5b506102846002604360981b0181565b3480156104ed57600080fd5b506102546104fc36600461266e565b6110eb565b34801561050d57600080fd5b50610227604051806040016040528060058152602001640352e302e360dc1b81525081565b34801561053e57600080fd5b5061034a61054d366004612894565b6110f9565b34801561055e57600080fd5b5061034a61056d366004612894565b611123565b34801561057e57600080fd5b5061034a61119b565b34801561059357600080fd5b50600054610284906001600160a01b031681565b3480156105b357600080fd5b50600154610284906001600160a01b031681565b3480156105d357600080fd5b50600454610284906001600160a01b031681565b3480156105f357600080fd5b5061034a61060236600461278d565b6112c2565b34801561061357600080fd5b506101ff6106223660046129c7565b611395565b34801561063357600080fd5b5060045461064a90600160a01b900462ffffff1681565b60405162ffffff9091168152602001610209565b34801561066a57600080fd5b506101ff60065481565b34801561068057600080fd5b5061034a61068f366004612894565b6113d1565b6000805460025460015460055460405163bb858c1d60e01b8152859485946001600160a01b039182169463bb858c1d946106d8949284169390911691600401612a00565b608060405180830381865afa1580156106f5573d6000803e3d6000fd5b505050506040513d601f19601f820116820180604052508101906107199190612a24565b50506004549193509150610735906001600160a01b0316610e85565b60035461074a906001600160a01b0316610e85565b6107548385612a85565b61075e9190612a85565b6107689190612a85565b9250505090565b6060600061077b61140c565b905080600301805461078c90612a98565b80601f01602080910402602001604051908101604052809291908181526020018280546107b890612a98565b80156108055780601f106107da57610100808354040283529160200191610805565b820191906000526020600020905b8154815290600101906020018083116107e857829003601f168201915b505050505091505090565b60003361081e818585611430565b60019150505b92915050565b600060055484146108745760405162461bcd60e51b815260206004820152600f60248201526e1a5b9d985b1a59081d1bdad95b9259608a1b60448201526064015b60405180910390fd5b6000805460025460015460055460405163bb858c1d60e01b815285946001600160a01b039081169463bb858c1d946108b59491831693921691600401612a00565b608060405180830381865afa1580156108d2573d6000803e3d6000fd5b505050506040513d601f19601f820116820180604052508101906108f69190612a24565b5050915091506000610912828461090d9190612a85565b61143d565b905061091e888261146f565b50630a85bd0160e11b98975050505050505050565b60008061093e61140c565b6002015492915050565b6000336109568582856114a5565b6109618585856114f8565b60019150505b9392505050565b600080546002546005546040516305fd3fa360e21b81526001600160a01b03938416936317f4fe8c936109a693911691600401612ad2565b602060405180830381865afa1580156109c3573d6000803e3d6000fd5b505050506040513d601f19601f820116820180604052508101906109e79190612aeb565b905090565b600054600254600154600554604051630f126f8360e21b81526001600160a01b0394851694633c49be0c94610a2c94908216939116913090600401612b04565b6080604051808303816000875af1158015610a4b573d6000803e3d6000fd5b505050506040513d601f19601f82011682018060405250810190610a6f9190612a24565b505050506000610a7e8261143d565b905080610a8a33610ef5565b1015610aa85760405162461bcd60e51b815260040161086b90612b2f565b610ab433836000611557565b610abf338383611634565b5050565b610acb611793565b60405163430021db60e11b81526002604360981b019063860043b690610af79030903390600401612b5c565b6020604051808303816000875af1158015610b16573d6000803e3d6000fd5b505050506040513d601f19601f82011682018060405250810190610b3a9190612aeb565b50565b6003546001600160a01b0383811691161480610b6657506004546001600160a01b038381169116145b610ba25760405162461bcd60e51b815260206004820152600d60248201526c34b73b30b634b2103a37b5b2b760991b604482015260640161086b565b6040516370a0823160e01b815281906001600160a01b038416906370a0823190610bd090339060040161269a565b602060405180830381865afa158015610bed573d6000803e3d6000fd5b505050506040513d601f19601f82011682018060405250810190610c119190612aeb565b1015610c565760405162461bcd60e51b8152602060048201526014602482015273696e73756666696369656e742062616c616e636560601b604482015260640161086b565b610c6233826001611557565b600054600254600154600554604051630f126f8360e21b81526001600160a01b0394851694633c49be0c94610ca294908216939116913090600401612b04565b6080604051808303816000875af1158015610cc1573d6000803e3d6000fd5b505050506040513d601f19601f82011682018060405250810190610ce59190612a24565b505050506000610cf48261143d565b9050610d02833330856117c5565b600080610d0d6118cb565b91509150600082118015610d215750600081115b15610e0857600354600054610d43916001600160a01b03908116911684611a2f565b600454600054610d60916001600160a01b03908116911683611a2f565b60005460025460055460035460048054604051632dbdfa2960e01b81526001600160a01b03958616928101929092526024820193909352908316604482015290821660648201526084810185905260a48101849052911690632dbdfa299060c4016060604051808303816000875af1158015610de0573d6000803e3d6000fd5b505050506040513d601f19601f82011682018060405250810190610e049190612b76565b5050505b610e12338461146f565b5050505050565b610e21611b32565b610e2a82611bd7565b610abf8282611bdf565b6000610e3e611c93565b50600080516020612dd083398151915290565b610e59611793565b604051634aa7d2f760e11b81526002604360981b019063954fa5ee90610af79030903390600401612b5c565b6040516370a0823160e01b81526000906001600160a01b038316906370a0823190610eb490309060040161269a565b602060405180830381865afa158015610ed1573d6000803e3d6000fd5b505050506040513d601f19601f820116820180604052508101906108249190612aeb565b600080610f0061140c565b6001600160a01b0390931660009081526020939093525050604090205490565b610f28611793565b610f326000611cdc565b565b6000610f3e611d38565b805490915060ff600160401b82041615906001600160401b0316600081158015610f655750825b90506000826001600160401b03166001148015610f815750303b155b905081158015610f8f575080155b15610fad5760405163f92ee8a960e01b815260040160405180910390fd5b845467ffffffffffffffff191660011785558315610fd757845460ff60401b1916600160401b1785555b610fe08d611d5c565b610fea8f8f611d6d565b600180546001600160a01b03808f166001600160a01b031992831617909255600280548e8416908316179055600380548d84169083161790556004805462ffffff8c16600160a01b026001600160b81b03199091168d8516171790556005899055600080549289169290911691909117905583156110a257845460ff60401b19168555604051600181527fc7f505b2f371ae2175ee4913f4499e1f2633a7b5936321eed1cdaeb6115181d29060200160405180910390a15b505050505050505050505050505050565b6000806110be611d7f565b546001600160a01b031692915050565b606060006110da61140c565b905080600401805461078c90612a98565b60003361081e8185856114f8565b611101611793565b600080546001600160a01b0319166001600160a01b0392909216919091179055565b61112b611793565b60005460025460055460405163e466f4c560e01b81526001600160a01b0392831660048201526024810191909152838216604482015291169063e466f4c590606401600060405180830381600087803b15801561118757600080fd5b505af1158015610e12573d6000803e3d6000fd5b6111a3611793565b600254600054600554604051632142170760e11b81526001600160a01b03938416936342842e0e936111de9333939290911691600401612a00565b600060405180830381600087803b1580156111f857600080fd5b505af115801561120c573d6000803e3d6000fd5b50506000805460025460015460055460405163bb858c1d60e01b81529496508695506001600160a01b039384169463bb858c1d9461125294811693169190600401612a00565b608060405180830381865afa15801561126f573d6000803e3d6000fd5b505050506040513d601f19601f820116820180604052508101906112939190612a24565b50509150915060006112aa828461090d9190612a85565b90506112bd6112b76110b3565b8261146f565b505050565b600054600254600154600554604051630f126f8360e21b81526001600160a01b0394851694633c49be0c9461130294908216939116913090600401612b04565b6080604051808303816000875af1158015611321573d6000803e3d6000fd5b505050506040513d601f19601f820116820180604052508101906113459190612a24565b505050508061135333610ef5565b10156113715760405162461bcd60e51b815260040161086b90612b2f565b600061137c82611da3565b905061138a33826000611557565b610abf338284611634565b6000806113a061140c565b6001600160a01b03948516600090815260019190910160209081526040808320959096168252939093525050205490565b6113d9611793565b6001600160a01b038116611403576000604051631e4fbdf760e01b815260040161086b919061269a565b610b3a81611cdc565b7f52c63247e1f47db19d5ce0460030c497f067ca4cebf71ba98eeadabe20bace0090565b6112bd8383836001611e68565b600080611448610933565b905080600003611459575090919050565b61096781611465610694565b8591906000611f4c565b6001600160a01b03821661149957600060405163ec442f0560e01b815260040161086b919061269a565b610abf60008383611f9d565b60006114b18484611395565b905060001981146114f257818110156114e357828183604051637dc7a0d960e11b815260040161086b93929190612bb9565b6114f284848484036000611e68565b50505050565b6001600160a01b038316611522576000604051634b637e8f60e11b815260040161086b919061269a565b6001600160a01b03821661154c57600060405163ec442f0560e01b815260040161086b919061269a565b6112bd838383611f9d565b80156115a9576001600160a01b03831660009081526007602052604081208054849290611585908490612a85565b92505081905550816006600082825461159e9190612a85565b909155506112bd9050565b6001600160a01b0383166000908152600760205260409020548211156115d05760006115f4565b6001600160a01b0383166000908152600760205260409020546115f4908390612bda565b6001600160a01b03841660009081526007602052604090205560065482111561161e57600061162c565b8160065461162c9190612bda565b600655505050565b600061163f836120c5565b60008054600254600554604051635e8e661360e11b8152949550929384936001600160a01b039384169363bd1ccc269361168193911691908890600401612bb9565b60408051808303816000875af115801561169f573d6000803e3d6000fd5b505050506040513d601f19601f820116820180604052508101906116c39190612bed565b600054600254600154600554604051630f126f8360e21b81529597509395506001600160a01b0392831694633c49be0c9461170b949384169390921691903090600401612b04565b6080604051808303816000875af115801561172a573d6000803e3d6000fd5b505050506040513d601f19601f8201168201806040525081019061174e9190612a24565b505060035461176a92506001600160a01b031690508784611a2f565b600454611781906001600160a01b03168783611a2f565b61178b86856121f0565b505050505050565b3361179c6110b3565b6001600160a01b031614610f32573360405163118cdaa760e01b815260040161086b919061269a565b600080856001600160a01b03166323b872dd60e01b8686866040516024016117ef93929190612a00565b60408051601f198184030181529181526020820180516001600160e01b03166001600160e01b031990941693909317909252905161182d9190612c11565b6000604051808303816000865af19150503d806000811461186a576040519150601f19603f3d011682016040523d82523d6000602084013e61186f565b606091505b50915091508180156118995750805115806118995750808060200190518101906118999190612c2d565b61178b5760405162461bcd60e51b815260206004820152600360248201526229aa2360e91b604482015260640161086b565b600354600090819081906118e7906001600160a01b0316610e85565b600454909150600090611902906001600160a01b0316610e85565b905081158061190f575080155b156119205750600093849350915050565b6000805460025460015460055460405163bb858c1d60e01b815285946001600160a01b039081169463bb858c1d946119619491831693921691600401612a00565b608060405180830381865afa15801561197e573d6000803e3d6000fd5b505050506040513d601f19601f820116820180604052508101906119a29190612a24565b50509150915081600014806119b5575080155b156119c857506000958695509350505050565b806119d583612710612c4f565b6119df9190612c7c565b836119ec86612710612c4f565b6119f69190612c7c565b1115611a1557611a098383836000611f4c565b96929550919350505050565b83611a238183856000611f4c565b95509550505050509091565b600080846001600160a01b031663a9059cbb60e01b8585604051602401611a57929190612ad2565b60408051601f198184030181529181526020820180516001600160e01b03166001600160e01b0319909416939093179092529051611a959190612c11565b6000604051808303816000865af19150503d8060008114611ad2576040519150601f19603f3d011682016040523d82523d6000602084013e611ad7565b606091505b5091509150818015611b01575080511580611b01575080806020019051810190611b019190612c2d565b610e125760405162461bcd60e51b815260206004820152600260248201526114d560f21b604482015260640161086b565b306001600160a01b037f0000000000000000000000000000000000000000000000000000000000000000161480611bb957507f00000000000000000000000000000000000000000000000000000000000000006001600160a01b0316611bad600080516020612dd0833981519152546001600160a01b031690565b6001600160a01b031614155b15610f325760405163703e46dd60e11b815260040160405180910390fd5b610b3a611793565b816001600160a01b03166352d1902d6040518163ffffffff1660e01b8152600401602060405180830381865afa925050508015611c39575060408051601f3d908101601f19168201909252611c3691810190612aeb565b60015b611c585781604051634c9c8ce360e01b815260040161086b919061269a565b600080516020612dd08339815191528114611c8957604051632a87526960e21b81526004810182905260240161086b565b6112bd8383612226565b306001600160a01b037f00000000000000000000000000000000000000000000000000000000000000001614610f325760405163703e46dd60e11b815260040160405180910390fd5b6000611ce6611d7f565b80546001600160a01b038481166001600160a01b031983168117845560405193945091169182907f8be0079c531659141344cd1fd0a4f28419497f9722a3daafe3b4186f6b6457e090600090a3505050565b7ff0c57e16840df040f15088dc2f81fe391c3923bec73e23a9662efc9c229c6a0090565b611d6461227c565b610b3a816122a1565b611d7561227c565b610abf82826122a9565b7f9016d09d72d40fdae2fd8ceac6b6234c7706214fd39c1cd1e609a0528c19930090565b6000611dcb60405180604001604052806005815260200164736861726560d81b8152506122da565b611dd48261231d565b611e026040518060400160405280600d81526020016c746f74616c417373657473282960981b8152506122da565b611e12611e0d610694565b61231d565b611e406040518060400160405280600d81526020016c746f74616c537570706c79282960981b8152506122da565b611e4b611e0d610933565b610824611e56610694565b611e5e610933565b8491906000611f4c565b6000611e7261140c565b90506001600160a01b038516611e9e57600060405163e602df0560e01b815260040161086b919061269a565b6001600160a01b038416611ec8576000604051634a1406b160e11b815260040161086b919061269a565b6001600160a01b03808616600090815260018301602090815260408083209388168352929052208390558115610e1257836001600160a01b0316856001600160a01b03167f8c5be1e5ebec7d5bd14f71427d1e84f3dd0314c0f7b2291e5b200ac8c7c3b92585604051611f3d91815260200190565b60405180910390a35050505050565b600080611f5a868686612362565b9050611f6583612426565b8015611f81575060008480611f7c57611f7c612c66565b868809115b15611f9457611f91600182612a85565b90505b95945050505050565b6000611fa761140c565b90506001600160a01b038416611fd65781816002016000828254611fcb9190612a85565b909155506120359050565b6001600160a01b038416600090815260208290526040902054828110156120165784818460405163391434e360e21b815260040161086b93929190612bb9565b6001600160a01b03851660009081526020839052604090209083900390555b6001600160a01b038316612053576002810180548390039055612072565b6001600160a01b03831660009081526020829052604090208054830190555b826001600160a01b0316846001600160a01b03167fddf252ad1be2c89b69c2b068fc378daa952ba7f163c4a11628f55a4df523b3ef846040516120b791815260200190565b60405180910390a350505050565b6000805460025460015460055460405163bb858c1d60e01b8152859485946001600160a01b039182169463bb858c1d94612109949284169390911691600401612a00565b608060405180830381865afa158015612126573d6000803e3d6000fd5b505050506040513d601f19601f8201168201806040525081019061214a9190612a24565b5050915091506121776040518060400160405280600681526020016561737365747360d01b8152506122da565b6121808461231d565b6121bc6040518060400160405280601b81526020017a1d1bdad95b8c105b5bdd5b9d080ac81d1bdad95b8c505b5bdd5b9d602a1b8152506122da565b6121c9611e0d8284612a85565b6121e86121d461096e565b6121de8385612a85565b8691906000611f4c565b949350505050565b6001600160a01b03821661221a576000604051634b637e8f60e11b815260040161086b919061269a565b610abf82600083611f9d565b61222f82612453565b6040516001600160a01b038316907fbc7cd75a20ee27fd9adebab32041f755214dbc6bffa90cc0225b39da2e5c2d3b90600090a2805115612274576112bd82826124af565b610abf61251c565b61228461253b565b610f3257604051631afcd79f60e31b815260040160405180910390fd5b6113d961227c565b6122b161227c565b60006122bb61140c565b9050600381016122cb8482612cd8565b50600481016114f28382612cd8565b610b3a816040516024016122ee9190612616565b60408051601f198184030181529190526020810180516001600160e01b031663104c13eb60e21b179052612555565b610b3a8160405160240161233391815260200190565b60408051601f198184030181529190526020810180516001600160e01b031663f5b1bba960e01b179052612555565b60008383028160001985870982811083820303915050806000036123995783828161238f5761238f612c66565b0492505050610967565b8084116123b95760405163227bc15360e01b815260040160405180910390fd5b6000848688096000868103871696879004966002600389028118808a02820302808a02820302808a02820302808a02820302808a02820302808a02909103029181900381900460010186841190950394909402919094039290920491909117919091029150509392505050565b6000600282600381111561243c5761243c612d97565b6124469190612dad565b60ff166001149050919050565b806001600160a01b03163b6000036124805780604051634c9c8ce360e01b815260040161086b919061269a565b600080516020612dd083398151915280546001600160a01b0319166001600160a01b0392909216919091179055565b6060600080846001600160a01b0316846040516124cc9190612c11565b600060405180830381855af49150503d8060008114612507576040519150601f19603f3d011682016040523d82523d6000602084013e61250c565b606091505b5091509150611f94858383612576565b3415610f325760405163b398979f60e01b815260040160405180910390fd5b6000612545611d38565b54600160401b900460ff16919050565b80516a636f6e736f6c652e6c6f67602083016000808483855afa5050505050565b60608261258b57612586826125c9565b610967565b81511580156125a257506001600160a01b0384163b155b156125c25783604051639996b31560e01b815260040161086b919061269a565b5080610967565b8051156125d95780518082602001fd5b604051630a12f52160e11b815260040160405180910390fd5b60005b8381101561260d5781810151838201526020016125f5565b50506000910152565b60208152600082518060208401526126358160408501602087016125f2565b601f01601f19169190910160400192915050565b6001600160a01b0381168114610b3a57600080fd5b803561266981612649565b919050565b6000806040838503121561268157600080fd5b823561268c81612649565b946020939093013593505050565b6001600160a01b0391909116815260200190565b6000806000806000608086880312156126c657600080fd5b85356126d181612649565b945060208601356126e181612649565b93506040860135925060608601356001600160401b038082111561270457600080fd5b818801915088601f83011261271857600080fd5b81358181111561272757600080fd5b89602082850101111561273957600080fd5b9699959850939650602001949392505050565b60008060006060848603121561276157600080fd5b833561276c81612649565b9250602084013561277c81612649565b929592945050506040919091013590565b60006020828403121561279f57600080fd5b5035919050565b634e487b7160e01b600052604160045260246000fd5b60006001600160401b03808411156127d6576127d66127a6565b604051601f8501601f19908116603f011681019082821181831017156127fe576127fe6127a6565b8160405280935085815286868601111561281757600080fd5b858560208301376000602087830101525050509392505050565b6000806040838503121561284457600080fd5b823561284f81612649565b915060208301356001600160401b0381111561286a57600080fd5b8301601f8101851361287b57600080fd5b61288a858235602084016127bc565b9150509250929050565b6000602082840312156128a657600080fd5b813561096781612649565b600082601f8301126128c257600080fd5b610967838335602085016127bc565b803562ffffff8116811461266957600080fd5b6000806000806000806000806000806101408b8d03121561290457600080fd5b8a356001600160401b038082111561291b57600080fd5b6129278e838f016128b1565b9b5060208d013591508082111561293d57600080fd5b5061294a8d828e016128b1565b99505061295960408c0161265e565b975061296760608c0161265e565b965061297560808c0161265e565b955061298360a08c0161265e565b945061299160c08c0161265e565b935061299f60e08c016128d1565b92506101008b013591506129b66101208c0161265e565b90509295989b9194979a5092959850565b600080604083850312156129da57600080fd5b82356129e581612649565b915060208301356129f581612649565b809150509250929050565b6001600160a01b039384168152919092166020820152604081019190915260600190565b60008060008060808587031215612a3a57600080fd5b84519350602085015192506040850151612a5381612649565b6060860151909250612a6481612649565b939692955090935050565b634e487b7160e01b600052601160045260246000fd5b8082018082111561082457610824612a6f565b600181811c90821680612aac57607f821691505b602082108103612acc57634e487b7160e01b600052602260045260246000fd5b50919050565b6001600160a01b03929092168252602082015260400190565b600060208284031215612afd57600080fd5b5051919050565b6001600160a01b03948516815292841660208401526040830191909152909116606082015260800190565b602080825260139082015272696e73756666696369656e742073686172657360681b604082015260600190565b6001600160a01b0392831681529116602082015260400190565b600080600060608486031215612b8b57600080fd5b83516001600160801b0381168114612ba257600080fd5b602085015160409095015190969495509392505050565b6001600160a01b039390931683526020830191909152604082015260600190565b8181038181111561082457610824612a6f565b60008060408385031215612c0057600080fd5b505080516020909101519092909150565b60008251612c238184602087016125f2565b9190910192915050565b600060208284031215612c3f57600080fd5b8151801515811461096757600080fd5b808202811582820484141761082457610824612a6f565b634e487b7160e01b600052601260045260246000fd5b600082612c8b57612c8b612c66565b500490565b601f8211156112bd576000816000526020600020601f850160051c81016020861015612cb95750805b601f850160051c820191505b8181101561178b57828155600101612cc5565b81516001600160401b03811115612cf157612cf16127a6565b612d0581612cff8454612a98565b84612c90565b602080601f831160018114612d3a5760008415612d225750858301515b600019600386901b1c1916600185901b17855561178b565b600085815260208120601f198616915b82811015612d6957888601518255948401946001909101908401612d4a565b5085821015612d875787850151600019600388901b60f8161c191681555b5050505050600190811b01905550565b634e487b7160e01b600052602160045260246000fd5b600060ff831680612dc057612dc0612c66565b8060ff8416069150509291505056fe360894a13ba1a3210667c828492db98dca3e2076cc3735a920a3ca505d382bbca26469706673582212201e64cd8a0ae9ebc40a706dbe7204bc4b07b88cfc0e28f4c627c3b583cc3c64f564736f6c63430008180033","linkReferences":{}},"methodIdentifiers":{"BLAST()":"97d75776","UPGRADE_INTERFACE_VERSION()":"ad3cb1cc","allowance(address,address)":"dd62ed3e","approve(address,uint256)":"095ea7b3","balanceOf(address)":"70a08231","claimAllGas()":"645dd1fa","claimAllYield()":"409a33ce","decimals()":"313ce567","deposit(address,uint256)":"47e7ef24","factory()":"c45a0155","fee()":"ddca3f43","initialize(string,string,address,address,address,address,address,uint24,uint256,address)":"7508e173","initiateLP()":"b5da527f","lpManager()":"b906f15a","myBalc(address)":"6f8c8ee1","name()":"06fdde03","npm()":"7f1e9ef6","onERC721Received(address,address,uint256,bytes)":"150b7a02","owner()":"8da5cb5b","protTotalDeposits()":"e42828a0","proxiableUUID()":"52d1902d","redeem(uint256)":"db006a75","renounceOwnership()":"715018a6","revokeLP(address)":"b22ec6ac","symbol()":"95d89b41","token0()":"0dfe1681","token1()":"d21220a7","tokenId()":"17d70f7c","totalAssets()":"01e1d114","totalLp()":"242c135d","totalSupply()":"18160ddd","transfer(address,uint256)":"a9059cbb","transferFrom(address,address,uint256)":"23b872dd","transferOwnership(address)":"f2fde38b","updateLPManager(address)":"aff5442c","upgradeToAndCall(address,bytes)":"4f1ef286","userTotalDeposits(address)":"9295953f","withdraw(uint256)":"2e1a7d4d"},"storageLayout":{"storage":[{"astId":72499,"contract":"src/stake/Stake.sol:Stake","label":"lpManager","offset":0,"slot":"0","type":"t_contract(ILPManager)61648"},{"astId":72501,"contract":"src/stake/Stake.sol:Stake","label":"factory","offset":0,"slot":"1","type":"t_address"},{"astId":72503,"contract":"src/stake/Stake.sol:Stake","label":"npm","offset":0,"slot":"2","type":"t_address"},{"astId":72505,"contract":"src/stake/Stake.sol:Stake","label":"token0","offset":0,"slot":"3","type":"t_address"},{"astId":72507,"contract":"src/stake/Stake.sol:Stake","label":"token1","offset":0,"slot":"4","type":"t_address"},{"astId":72509,"contract":"src/stake/Stake.sol:Stake","label":"fee","offset":20,"slot":"4","type":"t_uint24"},{"astId":72511,"contract":"src/stake/Stake.sol:Stake","label":"tokenId","offset":0,"slot":"5","type":"t_uint256"},{"astId":72513,"contract":"src/stake/Stake.sol:Stake","label":"protTotalDeposits","offset":0,"slot":"6","type":"t_uint256"},{"astId":72517,"contract":"src/stake/Stake.sol:Stake","label":"userTotalDeposits","offset":0,"slot":"7","type":"t_mapping(t_address,t_uint256)"}],"types":{"t_address":{"encoding":"inplace","label":"address","numberOfBytes":"20"},"t_contract(ILPManager)61648":{"encoding":"inplace","label":"contract ILPManager","numberOfBytes":"20"},"t_mapping(t_address,t_uint256)":{"encoding":"mapping","key":"t_address","label":"mapping(address => uint256)","numberOfBytes":"32","value":"t_uint256"},"t_uint24":{"encoding":"inplace","label":"uint24","numberOfBytes":"3"},"t_uint256":{"encoding":"inplace","label":"uint256","numberOfBytes":"32"}}},"id":112}