{"abi":[{"type":"function","name":"BLAST","inputs":[],"outputs":[{"name":"","type":"address","internalType":"contract IBlast"}],"stateMutability":"view"},{"type":"function","name":"UPGRADE_INTERFACE_VERSION","inputs":[],"outputs":[{"name":"","type":"string","internalType":"string"}],"stateMutability":"view"},{"type":"function","name":"claimAllGas","inputs":[],"outputs":[],"stateMutability":"nonpayable"},{"type":"function","name":"claimAllYield","inputs":[],"outputs":[],"stateMutability":"nonpayable"},{"type":"function","name":"initialize","inputs":[{"name":"owner_","type":"address","internalType":"address"},{"name":"swapRouter_","type":"address","internalType":"address"}],"outputs":[],"stateMutability":"nonpayable"},{"type":"function","name":"owner","inputs":[],"outputs":[{"name":"","type":"address","internalType":"address"}],"stateMutability":"view"},{"type":"function","name":"proxiableUUID","inputs":[],"outputs":[{"name":"","type":"bytes32","internalType":"bytes32"}],"stateMutability":"view"},{"type":"function","name":"renounceOwnership","inputs":[],"outputs":[],"stateMutability":"nonpayable"},{"type":"function","name":"swapExactInputSingle","inputs":[{"name":"tokenIn","type":"address","internalType":"address"},{"name":"tokenOut","type":"address","internalType":"address"},{"name":"amountIn","type":"uint256","internalType":"uint256"},{"name":"fee","type":"uint24","internalType":"uint24"},{"name":"amountOutMinimum","type":"uint256","internalType":"uint256"},{"name":"sqrtPriceLimitX96","type":"uint160","internalType":"uint160"}],"outputs":[{"name":"amountOut","type":"uint256","internalType":"uint256"}],"stateMutability":"nonpayable"},{"type":"function","name":"swapExactOutputSingle","inputs":[{"name":"tokenIn","type":"address","internalType":"address"},{"name":"tokenOut","type":"address","internalType":"address"},{"name":"amountOut","type":"uint256","internalType":"uint256"},{"name":"fee","type":"uint24","internalType":"uint24"},{"name":"amountInMaximum","type":"uint256","internalType":"uint256"},{"name":"sqrtPriceLimitX96","type":"uint160","internalType":"uint160"}],"outputs":[{"name":"amountIn","type":"uint256","internalType":"uint256"}],"stateMutability":"nonpayable"},{"type":"function","name":"swapRouter","inputs":[],"outputs":[{"name":"","type":"address","internalType":"contract ISwapRouter"}],"stateMutability":"view"},{"type":"function","name":"transferOwnership","inputs":[{"name":"newOwner","type":"address","internalType":"address"}],"outputs":[],"stateMutability":"nonpayable"},{"type":"function","name":"upgradeToAndCall","inputs":[{"name":"newImplementation","type":"address","internalType":"address"},{"name":"data","type":"bytes","internalType":"bytes"}],"outputs":[],"stateMutability":"payable"},{"type":"function","name":"whiteListToken","inputs":[{"name":"token","type":"address","internalType":"address"}],"outputs":[],"stateMutability":"nonpayable"},{"type":"function","name":"whiteListedTokens","inputs":[{"name":"token","type":"address","internalType":"address"}],"outputs":[{"name":"isWhitelisted","type":"bool","internalType":"bool"}],"stateMutability":"view"},{"type":"event","name":"Initialized","inputs":[{"name":"version","type":"uint64","indexed":false,"internalType":"uint64"}],"anonymous":false},{"type":"event","name":"OwnershipTransferred","inputs":[{"name":"previousOwner","type":"address","indexed":true,"internalType":"address"},{"name":"newOwner","type":"address","indexed":true,"internalType":"address"}],"anonymous":false},{"type":"event","name":"Upgraded","inputs":[{"name":"implementation","type":"address","indexed":true,"internalType":"address"}],"anonymous":false},{"type":"error","name":"AddressEmptyCode","inputs":[{"name":"target","type":"address","internalType":"address"}]},{"type":"error","name":"ERC1967InvalidImplementation","inputs":[{"name":"implementation","type":"address","internalType":"address"}]},{"type":"error","name":"ERC1967NonPayable","inputs":[]},{"type":"error","name":"FailedInnerCall","inputs":[]},{"type":"error","name":"InvalidInitialization","inputs":[]},{"type":"error","name":"NotInitializing","inputs":[]},{"type":"error","name":"OwnableInvalidOwner","inputs":[{"name":"owner","type":"address","internalType":"address"}]},{"type":"error","name":"OwnableUnauthorizedAccount","inputs":[{"name":"account","type":"address","internalType":"address"}]},{"type":"error","name":"UUPSUnauthorizedCallContext","inputs":[]},{"type":"error","name":"UUPSUnsupportedProxiableUUID","inputs":[{"name":"slot","type":"bytes32","internalType":"bytes32"}]}],"bytecode":{"object":"0x60a06040523060805234801561001457600080fd5b5060805161148761003e600039600081816109440152818161096d0152610aaa01526114876000f3fe6080604052600436106100b85760003560e01c8063409a33ce146100bd578063485cc955146100d45780634f1ef286146100f457806352d1902d146101075780635fd7651e1461012f578063607716371461014f578063645dd1fa1461016f578063715018a6146101845780638da5cb5b14610199578063927b08d3146101bb57806397d75776146101db578063ad3cb1cc146101f6578063c31c9c0714610234578063d3c2638314610254578063f2fde38b14610294575b600080fd5b3480156100c957600080fd5b506100d26102b4565b005b3480156100e057600080fd5b506100d26100ef3660046110a3565b61032e565b6100d26101023660046110f2565b610446565b34801561011357600080fd5b5061011c610465565b6040519081526020015b60405180910390f35b34801561013b57600080fd5b5061011c61014a3660046111b6565b610482565b34801561015b57600080fd5b5061011c61016a3660046111b6565b610663565b34801561017b57600080fd5b506100d2610805565b34801561019057600080fd5b506100d2610839565b3480156101a557600080fd5b506101ae61084d565b604051610126919061122e565b3480156101c757600080fd5b506100d26101d6366004611242565b610868565b3480156101e757600080fd5b506101ae6002604360981b0181565b34801561020257600080fd5b50610227604051806040016040528060058152602001640352e302e360dc1b81525081565b6040516101269190611283565b34801561024057600080fd5b506000546101ae906001600160a01b031681565b34801561026057600080fd5b5061028461026f366004611242565b60016020526000908152604090205460ff1681565b6040519015158152602001610126565b3480156102a057600080fd5b506100d26102af366004611242565b610897565b6102bc6108d2565b60405163430021db60e11b81526002604360981b019063860043b6906102e890309033906004016112b6565b6020604051808303816000875af1158015610307573d6000803e3d6000fd5b505050506040513d601f19601f8201168201806040525081019061032b91906112d0565b50565b6000610338610904565b805490915060ff600160401b820416159067ffffffffffffffff166000811580156103605750825b905060008267ffffffffffffffff16600114801561037d5750303b155b90508115801561038b575080155b156103a95760405163f92ee8a960e01b815260040160405180910390fd5b845467ffffffffffffffff1916600117855583156103d357845460ff60401b1916600160401b1785555b6103dc87610928565b600080546001600160a01b0319166001600160a01b038816179055831561043d57845460ff60401b19168555604051600181527fc7f505b2f371ae2175ee4913f4499e1f2633a7b5936321eed1cdaeb6115181d29060200160405180910390a15b50505050505050565b61044e610939565b610457826109de565b61046182826109e6565b5050565b600061046f610a9f565b5060008051602061143283398151915290565b6000856001600160a01b0316876001600160a01b0316036104be5760405162461bcd60e51b81526004016104b5906112e9565b60405180910390fd5b6001600160a01b03871660009081526001602052604090205460ff1680156104fe57506001600160a01b03861660009081526001602052604090205460ff165b61051a5760405162461bcd60e51b81526004016104b59061130d565b61052687333086610ae8565b60005461053e9088906001600160a01b031685610bf2565b6000604051806101000160405280896001600160a01b03168152602001886001600160a01b031681526020018662ffffff168152602001336001600160a01b03168152602001426078610591919061134a565b81526020810188905260408082018790526001600160a01b038087166060909301929092526000549051631b67c43360e31b8152929350169063db3e2198906105de90849060040161135d565b6020604051808303816000875af11580156105fd573d6000803e3d6000fd5b505050506040513d601f19601f8201168201806040525081019061062191906112d0565b9150838210156106585760008054610644918a916001600160a01b031690610bf2565b610658883361065385886113c7565b610cfc565b509695505050505050565b6000856001600160a01b0316876001600160a01b0316036106965760405162461bcd60e51b81526004016104b5906112e9565b6001600160a01b03871660009081526001602052604090205460ff1680156106d657506001600160a01b03861660009081526001602052604090205460ff165b6106f25760405162461bcd60e51b81526004016104b59061130d565b6106fe87333088610ae8565b6000546107169088906001600160a01b031687610bf2565b6000604051806101000160405280896001600160a01b03168152602001886001600160a01b031681526020018662ffffff168152602001336001600160a01b03168152602001426078610769919061134a565b81526020810188905260408082018790526001600160a01b03808716606090930192909252600054905163414bf38960e01b8152929350169063414bf389906107b690849060040161135d565b6020604051808303816000875af11580156107d5573d6000803e3d6000fd5b505050506040513d601f19601f820116820180604052508101906107f991906112d0565b98975050505050505050565b61080d6108d2565b604051634aa7d2f760e11b81526002604360981b019063954fa5ee906102e890309033906004016112b6565b6108416108d2565b61084b6000610dff565b565b600080610858610e5b565b546001600160a01b031692915050565b6108706108d2565b6001600160a01b03166000908152600160208190526040909120805460ff19169091179055565b61089f6108d2565b6001600160a01b0381166108c9576000604051631e4fbdf760e01b81526004016104b5919061122e565b61032b81610dff565b336108db61084d565b6001600160a01b03161461084b573360405163118cdaa760e01b81526004016104b5919061122e565b7ff0c57e16840df040f15088dc2f81fe391c3923bec73e23a9662efc9c229c6a0090565b610930610e7f565b61032b81610ea4565b306001600160a01b037f00000000000000000000000000000000000000000000000000000000000000001614806109c057507f00000000000000000000000000000000000000000000000000000000000000006001600160a01b03166109b4600080516020611432833981519152546001600160a01b031690565b6001600160a01b031614155b1561084b5760405163703e46dd60e11b815260040160405180910390fd5b61032b6108d2565b816001600160a01b03166352d1902d6040518163ffffffff1660e01b8152600401602060405180830381865afa925050508015610a40575060408051601f3d908101601f19168201909252610a3d918101906112d0565b60015b610a5f5781604051634c9c8ce360e01b81526004016104b5919061122e565b6000805160206114328339815191528114610a9057604051632a87526960e21b8152600481018290526024016104b5565b610a9a8383610eac565b505050565b306001600160a01b037f0000000000000000000000000000000000000000000000000000000000000000161461084b5760405163703e46dd60e11b815260040160405180910390fd5b604080516001600160a01b0385811660248301528481166044830152606480830185905283518084039091018152608490920183526020820180516001600160e01b03166323b872dd60e01b1790529151600092839290881691610b4c91906113da565b6000604051808303816000865af19150503d8060008114610b89576040519150601f19603f3d011682016040523d82523d6000602084013e610b8e565b606091505b5091509150818015610bb8575080511580610bb8575080806020019051810190610bb891906113f6565b610bea5760405162461bcd60e51b815260206004820152600360248201526229aa2360e91b60448201526064016104b5565b505050505050565b600080846001600160a01b031663095ea7b360e01b8585604051602401610c1a929190611418565b60408051601f198184030181529181526020820180516001600160e01b03166001600160e01b0319909416939093179092529051610c5891906113da565b6000604051808303816000865af19150503d8060008114610c95576040519150601f19603f3d011682016040523d82523d6000602084013e610c9a565b606091505b5091509150818015610cc4575080511580610cc4575080806020019051810190610cc491906113f6565b610cf55760405162461bcd60e51b8152602060048201526002602482015261534160f01b60448201526064016104b5565b5050505050565b600080846001600160a01b031663a9059cbb60e01b8585604051602401610d24929190611418565b60408051601f198184030181529181526020820180516001600160e01b03166001600160e01b0319909416939093179092529051610d6291906113da565b6000604051808303816000865af19150503d8060008114610d9f576040519150601f19603f3d011682016040523d82523d6000602084013e610da4565b606091505b5091509150818015610dce575080511580610dce575080806020019051810190610dce91906113f6565b610cf55760405162461bcd60e51b815260206004820152600260248201526114d560f21b60448201526064016104b5565b6000610e09610e5b565b80546001600160a01b038481166001600160a01b031983168117845560405193945091169182907f8be0079c531659141344cd1fd0a4f28419497f9722a3daafe3b4186f6b6457e090600090a3505050565b7f9016d09d72d40fdae2fd8ceac6b6234c7706214fd39c1cd1e609a0528c19930090565b610e87610f02565b61084b57604051631afcd79f60e31b815260040160405180910390fd5b61089f610e7f565b610eb582610f1c565b6040516001600160a01b038316907fbc7cd75a20ee27fd9adebab32041f755214dbc6bffa90cc0225b39da2e5c2d3b90600090a2805115610efa57610a9a8282610f78565b610461610ff0565b6000610f0c610904565b54600160401b900460ff16919050565b806001600160a01b03163b600003610f495780604051634c9c8ce360e01b81526004016104b5919061122e565b60008051602061143283398151915280546001600160a01b0319166001600160a01b0392909216919091179055565b6060600080846001600160a01b031684604051610f9591906113da565b600060405180830381855af49150503d8060008114610fd0576040519150601f19603f3d011682016040523d82523d6000602084013e610fd5565b606091505b5091509150610fe585838361100f565b925050505b92915050565b341561084b5760405163b398979f60e01b815260040160405180910390fd5b6060826110245761101f82611065565b61105e565b815115801561103b57506001600160a01b0384163b155b1561105b5783604051639996b31560e01b81526004016104b5919061122e565b50805b9392505050565b8051156110755780518082602001fd5b604051630a12f52160e11b815260040160405180910390fd5b6001600160a01b038116811461032b57600080fd5b600080604083850312156110b657600080fd5b82356110c18161108e565b915060208301356110d18161108e565b809150509250929050565b634e487b7160e01b600052604160045260246000fd5b6000806040838503121561110557600080fd5b82356111108161108e565b9150602083013567ffffffffffffffff8082111561112d57600080fd5b818501915085601f83011261114157600080fd5b813581811115611153576111536110dc565b604051601f8201601f19908116603f0116810190838211818310171561117b5761117b6110dc565b8160405282815288602084870101111561119457600080fd5b8260208601602083013760006020848301015280955050505050509250929050565b60008060008060008060c087890312156111cf57600080fd5b86356111da8161108e565b955060208701356111ea8161108e565b945060408701359350606087013562ffffff8116811461120957600080fd5b92506080870135915060a08701356112208161108e565b809150509295509295509295565b6001600160a01b0391909116815260200190565b60006020828403121561125457600080fd5b813561105e8161108e565b60005b8381101561127a578181015183820152602001611262565b50506000910152565b60208152600082518060208401526112a281604085016020870161125f565b601f01601f19169190910160400192915050565b6001600160a01b0392831681529116602082015260400190565b6000602082840312156112e257600080fd5b5051919050565b6020808252600a908201526939b0b6b2903a37b5b2b760b11b604082015260600190565b6020808252600d908201526c34b73b30b634b2103a37b5b2b760991b604082015260600190565b634e487b7160e01b600052601160045260246000fd5b80820180821115610fea57610fea611334565b6101008101610fea828480516001600160a01b03908116835260208083015182169084015260408083015162ffffff16908401526060808301518216908401526080808301519084015260a0828101519084015260c0808301519084015260e09182015116910152565b81810381811115610fea57610fea611334565b600082516113ec81846020870161125f565b9190910192915050565b60006020828403121561140857600080fd5b8151801515811461105e57600080fd5b6001600160a01b0392909216825260208201526040019056fe360894a13ba1a3210667c828492db98dca3e2076cc3735a920a3ca505d382bbca264697066735822122078ad2ec68994d041b9f07c501b879c2af74aed9f65a1ed24fced14e1dc36454864736f6c63430008180033","linkReferences":{}},"methodIdentifiers":{"BLAST()":"97d75776","UPGRADE_INTERFACE_VERSION()":"ad3cb1cc","claimAllGas()":"645dd1fa","claimAllYield()":"409a33ce","initialize(address,address)":"485cc955","owner()":"8da5cb5b","proxiableUUID()":"52d1902d","renounceOwnership()":"715018a6","swapExactInputSingle(address,address,uint256,uint24,uint256,uint160)":"60771637","swapExactOutputSingle(address,address,uint256,uint24,uint256,uint160)":"5fd7651e","swapRouter()":"c31c9c07","transferOwnership(address)":"f2fde38b","upgradeToAndCall(address,bytes)":"4f1ef286","whiteListToken(address)":"927b08d3","whiteListedTokens(address)":"d3c26383"},"storageLayout":{"storage":[{"astId":82622,"contract":"src/swap/Swap.sol:Swap","label":"swapRouter","offset":0,"slot":"0","type":"t_contract(ISwapRouter)69207"},{"astId":82626,"contract":"src/swap/Swap.sol:Swap","label":"whiteListedTokens","offset":0,"slot":"1","type":"t_mapping(t_address,t_bool)"}],"types":{"t_address":{"encoding":"inplace","label":"address","numberOfBytes":"20"},"t_bool":{"encoding":"inplace","label":"bool","numberOfBytes":"1"},"t_contract(ISwapRouter)69207":{"encoding":"inplace","label":"contract ISwapRouter","numberOfBytes":"20"},"t_mapping(t_address,t_bool)":{"encoding":"mapping","key":"t_address","label":"mapping(address => bool)","numberOfBytes":"32","value":"t_bool"}}},"id":132}